{
  "_format": "hh-sol-artifact-1",
  "contractName": "Checkers",
  "sourceName": "contracts/CheckersGame/Checkers.sol",
  "abi": [
    {
      "inputs": [],
      "stateMutability": "nonpayable",
      "type": "constructor"
    },
    {
      "anonymous": false,
      "inputs": [
        {
          "indexed": false,
          "internalType": "string",
          "name": "err",
          "type": "string"
        }
      ],
      "name": "InvalidMove",
      "type": "event"
    },
    {
      "anonymous": false,
      "inputs": [
        {
          "indexed": false,
          "internalType": "string",
          "name": "s",
          "type": "string"
        }
      ],
      "name": "Winner",
      "type": "event"
    },
    {
      "inputs": [
        {
          "internalType": "int256",
          "name": "value",
          "type": "int256"
        }
      ],
      "name": "abs",
      "outputs": [
        {
          "internalType": "int256",
          "name": "",
          "type": "int256"
        }
      ],
      "stateMutability": "pure",
      "type": "function"
    },
    {
      "inputs": [
        {
          "internalType": "contract MainContract",
          "name": "mainContract",
          "type": "address"
        }
      ],
      "name": "addMain",
      "outputs": [],
      "stateMutability": "nonpayable",
      "type": "function"
    },
    {
      "inputs": [
        {
          "internalType": "address",
          "name": "player",
          "type": "address"
        }
      ],
      "name": "addPlayer",
      "outputs": [],
      "stateMutability": "payable",
      "type": "function"
    },
    {
      "inputs": [],
      "name": "board",
      "outputs": [
        {
          "internalType": "contract Board",
          "name": "",
          "type": "address"
        }
      ],
      "stateMutability": "view",
      "type": "function"
    },
    {
      "inputs": [
        {
          "internalType": "enum PlayerNumber",
          "name": "player",
          "type": "uint8"
        }
      ],
      "name": "countPieces",
      "outputs": [
        {
          "internalType": "uint256",
          "name": "",
          "type": "uint256"
        }
      ],
      "stateMutability": "nonpayable",
      "type": "function"
    },
    {
      "inputs": [],
      "name": "currentPlayer",
      "outputs": [
        {
          "internalType": "enum PlayerNumber",
          "name": "",
          "type": "uint8"
        }
      ],
      "stateMutability": "view",
      "type": "function"
    },
    {
      "inputs": [],
      "name": "getBoard",
      "outputs": [
        {
          "internalType": "contract Board",
          "name": "",
          "type": "address"
        }
      ],
      "stateMutability": "nonpayable",
      "type": "function"
    },
    {
      "inputs": [],
      "name": "getBoardAddress",
      "outputs": [
        {
          "internalType": "address",
          "name": "",
          "type": "address"
        }
      ],
      "stateMutability": "view",
      "type": "function"
    },
    {
      "inputs": [],
      "name": "getBoardArrayFlat",
      "outputs": [
        {
          "internalType": "uint256[]",
          "name": "",
          "type": "uint256[]"
        }
      ],
      "stateMutability": "view",
      "type": "function"
    },
    {
      "inputs": [],
      "name": "getCurrentPlayer",
      "outputs": [
        {
          "internalType": "enum PlayerNumber",
          "name": "",
          "type": "uint8"
        }
      ],
      "stateMutability": "view",
      "type": "function"
    },
    {
      "inputs": [
        {
          "internalType": "uint256",
          "name": "row",
          "type": "uint256"
        },
        {
          "internalType": "uint256",
          "name": "col",
          "type": "uint256"
        }
      ],
      "name": "getPiece",
      "outputs": [
        {
          "internalType": "contract Piece",
          "name": "",
          "type": "address"
        }
      ],
      "stateMutability": "view",
      "type": "function"
    },
    {
      "inputs": [
        {
          "internalType": "uint256",
          "name": "row",
          "type": "uint256"
        },
        {
          "internalType": "uint256",
          "name": "col",
          "type": "uint256"
        }
      ],
      "name": "getPiecePlayer",
      "outputs": [
        {
          "internalType": "enum PlayerNumber",
          "name": "",
          "type": "uint8"
        }
      ],
      "stateMutability": "view",
      "type": "function"
    },
    {
      "inputs": [
        {
          "internalType": "uint256",
          "name": "fromRow",
          "type": "uint256"
        },
        {
          "internalType": "uint256",
          "name": "fromCol",
          "type": "uint256"
        },
        {
          "internalType": "uint256",
          "name": "toRow",
          "type": "uint256"
        },
        {
          "internalType": "uint256",
          "name": "toCol",
          "type": "uint256"
        },
        {
          "internalType": "enum PlayerNumber",
          "name": "player",
          "type": "uint8"
        }
      ],
      "name": "isValidMore",
      "outputs": [
        {
          "internalType": "bool",
          "name": "",
          "type": "bool"
        }
      ],
      "stateMutability": "nonpayable",
      "type": "function"
    },
    {
      "inputs": [],
      "name": "main",
      "outputs": [
        {
          "internalType": "contract MainContract",
          "name": "",
          "type": "address"
        }
      ],
      "stateMutability": "view",
      "type": "function"
    },
    {
      "inputs": [
        {
          "internalType": "uint256",
          "name": "fromRow",
          "type": "uint256"
        },
        {
          "internalType": "uint256",
          "name": "fromCol",
          "type": "uint256"
        },
        {
          "internalType": "uint256",
          "name": "toRow",
          "type": "uint256"
        },
        {
          "internalType": "uint256",
          "name": "toCol",
          "type": "uint256"
        },
        {
          "internalType": "enum PlayerNumber",
          "name": "player",
          "type": "uint8"
        }
      ],
      "name": "move",
      "outputs": [],
      "stateMutability": "nonpayable",
      "type": "function"
    },
    {
      "inputs": [
        {
          "internalType": "uint256",
          "name": "_difficulty",
          "type": "uint256"
        },
        {
          "internalType": "contract MainContract",
          "name": "_contract",
          "type": "address"
        }
      ],
      "name": "payWinner",
      "outputs": [],
      "stateMutability": "payable",
      "type": "function"
    },
    {
      "inputs": [],
      "name": "payWinner",
      "outputs": [],
      "stateMutability": "payable",
      "type": "function"
    },
    {
      "inputs": [],
      "name": "switchPlayer",
      "outputs": [],
      "stateMutability": "nonpayable",
      "type": "function"
    },
    {
      "inputs": [
        {
          "internalType": "contract MainContract",
          "name": "_contract",
          "type": "address"
        }
      ],
      "name": "wager",
      "outputs": [],
      "stateMutability": "payable",
      "type": "function"
    },
    {
      "inputs": [
        {
          "internalType": "address",
          "name": "player",
          "type": "address"
        },
        {
          "internalType": "uint256",
          "name": "wager",
          "type": "uint256"
        }
      ],
      "name": "wager",
      "outputs": [],
      "stateMutability": "payable",
      "type": "function"
    }
  ],
  "bytecode": "0x60806040526000600560156101000a81548160ff0219169083151502179055503480156200002c57600080fd5b506040516200003b90620001ca565b604051809103906000f08015801562000058573d6000803e3d6000fd5b50600260006101000a81548173ffffffffffffffffffffffffffffffffffffffff021916908373ffffffffffffffffffffffffffffffffffffffff160217905550600260009054906101000a900473ffffffffffffffffffffffffffffffffffffffff16600460006101000a81548173ffffffffffffffffffffffffffffffffffffffff021916908373ffffffffffffffffffffffffffffffffffffffff160217905550600260009054906101000a900473ffffffffffffffffffffffffffffffffffffffff1673ffffffffffffffffffffffffffffffffffffffff16631668dbc36040518163ffffffff1660e01b8152600401602060405180830381865afa1580156200016a573d6000803e3d6000fd5b505050506040513d601f19601f8201168201806040525081019062000190919062000218565b6003819055506001600560146101000a81548160ff02191690836002811115620001bf57620001be6200024a565b5b021790555062000279565b612593806200418383390190565b600080fd5b6000819050919050565b620001f281620001dd565b8114620001fe57600080fd5b50565b6000815190506200021281620001e7565b92915050565b600060208284031215620002315762000230620001d8565b5b6000620002418482850162000201565b91505092915050565b7f4e487b7100000000000000000000000000000000000000000000000000000000600052602160045260246000fd5b613efa80620002896000396000f3fe60806040526004361061011f5760003560e01c806382b225ce116100a0578063c04c3cf311610064578063c04c3cf3146103a1578063d4755dbb146103b8578063dffeadd0146103f5578063f4cbf60b14610420578063f70dd4c51461043c5761011f565b806382b225ce146102ea57806389fa150c14610315578063ae41e1961461033e578063b1275f9a1461037b578063be71248a146103975761011f565b806347b94f83116100e757806347b94f831461020d5780634d619bee1461022957806358ddb505146102455780635c0465b0146102825780637cd3229a146102bf5761011f565b80631b5ac4b51461012457806325746827146101615780633264a34b1461018c5780634404a438146101b7578063476e6172146101e2575b600080fd5b34801561013057600080fd5b5061014b60048036038101906101469190612be6565b610465565b6040516101589190612c22565b60405180910390f35b34801561016d57600080fd5b506101766104ab565b6040516101839190612d05565b60405180910390f35b34801561019857600080fd5b506101a1610548565b6040516101ae9190612da6565b60405180910390f35b3480156101c357600080fd5b506101cc610572565b6040516101d99190612e38565b60405180910390f35b3480156101ee57600080fd5b506101f7610585565b6040516102049190612e38565b60405180910390f35b61022760048036038101906102229190612ecf565b61059c565b005b610243600480360381019061023e9190612f0f565b6105a0565b005b34801561025157600080fd5b5061026c60048036038101906102679190612f61565b6105a3565b6040516102799190612ff7565b60405180910390f35b34801561028e57600080fd5b506102a960048036038101906102a49190613012565b611cf2565b6040516102b69190612e38565b60405180910390f35b3480156102cb57600080fd5b506102d4611d9a565b6040516102e19190612da6565b60405180910390f35b3480156102f657600080fd5b506102ff611dc0565b60405161030c9190613061565b60405180910390f35b34801561032157600080fd5b5061033c60048036038101906103379190612f0f565b611dea565b005b34801561034a57600080fd5b5061036560048036038101906103609190613012565b611ebb565b604051610372919061309d565b60405180910390f35b610395600480360381019061039091906130e4565b611f63565b005b61039f6121d3565b005b3480156103ad57600080fd5b506103b6612426565b005b3480156103c457600080fd5b506103df60048036038101906103da9190613111565b6124bf565b6040516103ec919061314d565b60405180910390f35b34801561040157600080fd5b5061040a612758565b6040516104179190613189565b60405180910390f35b61043a600480360381019061043591906131a4565b61277e565b005b34801561044857600080fd5b50610463600480360381019061045e9190612f61565b61288a565b005b6000808212156104a2577fffffffffffffffffffffffffffffffffffffffffffffffffffffffffffffffff8261049b9190613213565b90506104a6565b8190505b919050565b6060600260009054906101000a900473ffffffffffffffffffffffffffffffffffffffff1673ffffffffffffffffffffffffffffffffffffffff1663ddaaf7b36040518163ffffffff1660e01b8152600401600060405180830381865afa15801561051a573d6000803e3d6000fd5b505050506040513d6000823e3d601f19601f8201168201806040525081019061054391906133f9565b905090565b6000600260009054906101000a900473ffffffffffffffffffffffffffffffffffffffff16905090565b600560149054906101000a900460ff1681565b6000600560149054906101000a900460ff16905090565b5050565b50565b6000600560149054906101000a900460ff1660028111156105c7576105c6612dc1565b5b8260028111156105da576105d9612dc1565b5b1461061a576040517f08c379a00000000000000000000000000000000000000000000000000000000081526004016106119061349f565b60405180910390fd5b6000600260009054906101000a900473ffffffffffffffffffffffffffffffffffffffff1673ffffffffffffffffffffffffffffffffffffffff1663ae41e19688886040518363ffffffff1660e01b81526004016106799291906134bf565b602060405180830381865afa158015610696573d6000803e3d6000fd5b505050506040513d601f19601f820116820180604052508101906106ba9190613526565b9050600260009054906101000a900473ffffffffffffffffffffffffffffffffffffffff1673ffffffffffffffffffffffffffffffffffffffff1663ae41e19686866040518363ffffffff1660e01b81526004016107199291906134bf565b602060405180830381865afa158015610736573d6000803e3d6000fd5b505050506040513d601f19601f8201168201806040525081019061075a9190613526565b73ffffffffffffffffffffffffffffffffffffffff16632d87286f60006040518263ffffffff1660e01b81526004016107939190612e38565b602060405180830381865afa1580156107b0573d6000803e3d6000fd5b505050506040513d601f19601f820116820180604052508101906107d4919061357f565b610817577f06fd1a882ba36f950c7d8cd1fb81ef6e76d9bd623dbf5d7c9fb2755752c55a1b6040516108059061361e565b60405180910390a16000915050611ce9565b60008710806108265750600787115b806108315750600085105b8061083c5750600785115b806108475750600086105b806108525750600786115b8061085d5750600084105b806108685750600784115b156108ac577f06fd1a882ba36f950c7d8cd1fb81ef6e76d9bd623dbf5d7c9fb2755752c55a1b60405161089a9061368a565b60405180910390a16000915050611ce9565b8073ffffffffffffffffffffffffffffffffffffffff16632d87286f60006040518263ffffffff1660e01b81526004016108e69190612e38565b602060405180830381865afa158015610903573d6000803e3d6000fd5b505050506040513d601f19601f82011682018060405250810190610927919061357f565b1561096b577f06fd1a882ba36f950c7d8cd1fb81ef6e76d9bd623dbf5d7c9fb2755752c55a1b604051610959906136f6565b60405180910390a16000915050611ce9565b8073ffffffffffffffffffffffffffffffffffffffff16632d87286f846040518263ffffffff1660e01b81526004016109a49190612e38565b602060405180830381865afa1580156109c1573d6000803e3d6000fd5b505050506040513d601f19601f820116820180604052508101906109e5919061357f565b610a28577f06fd1a882ba36f950c7d8cd1fb81ef6e76d9bd623dbf5d7c9fb2755752c55a1b604051610a1690613788565b60405180910390a16000915050611ce9565b60008786610a3691906137a8565b905060008786610a4691906137a8565b90506002610a5383610465565b1380610a6757506002610a6582610465565b135b15610aad577f06fd1a882ba36f950c7d8cd1fb81ef6e76d9bd623dbf5d7c9fb2755752c55a1b604051610a9990613837565b60405180910390a160009350505050611ce9565b8273ffffffffffffffffffffffffffffffffffffffff1663ea602fa66040518163ffffffff1660e01b8152600401602060405180830381865afa158015610af8573d6000803e3d6000fd5b505050506040513d601f19601f82011682018060405250810190610b1c919061357f565b156116ce5760016002811115610b3557610b34612dc1565b5b856002811115610b4857610b47612dc1565b5b0361110d576001610b5883610465565b03610bdd576001811480610b8b57507fffffffffffffffffffffffffffffffffffffffffffffffffffffffffffffffff81145b15610b9c5760019350505050611ce9565b7f06fd1a882ba36f950c7d8cd1fb81ef6e76d9bd623dbf5d7c9fb2755752c55a1b604051610bc9906138c9565b60405180910390a160009350505050611ce9565b6002610be883610465565b03611108576000821315610e7f576000811215610d3f576000600260009054906101000a900473ffffffffffffffffffffffffffffffffffffffff1673ffffffffffffffffffffffffffffffffffffffff1663ae41e19660018c610c4c91906138e9565b60018c610c59919061391d565b6040518363ffffffff1660e01b8152600401610c769291906134bf565b602060405180830381865afa158015610c93573d6000803e3d6000fd5b505050506040513d601f19601f82011682018060405250810190610cb79190613526565b90508073ffffffffffffffffffffffffffffffffffffffff16632d87286f60026040518263ffffffff1660e01b8152600401610cf39190612e38565b602060405180830381865afa158015610d10573d6000803e3d6000fd5b505050506040513d601f19601f82011682018060405250810190610d34919061357f565b945050505050611ce9565b6000600260009054906101000a900473ffffffffffffffffffffffffffffffffffffffff1673ffffffffffffffffffffffffffffffffffffffff1663ae41e19660018c610d8c91906138e9565b60018c610d9991906138e9565b6040518363ffffffff1660e01b8152600401610db69291906134bf565b602060405180830381865afa158015610dd3573d6000803e3d6000fd5b505050506040513d601f19601f82011682018060405250810190610df79190613526565b90508073ffffffffffffffffffffffffffffffffffffffff16632d87286f60026040518263ffffffff1660e01b8152600401610e339190612e38565b602060405180830381865afa158015610e50573d6000803e3d6000fd5b505050506040513d601f19601f82011682018060405250810190610e74919061357f565b945050505050611ce9565b6000811215610fc8576000600260009054906101000a900473ffffffffffffffffffffffffffffffffffffffff1673ffffffffffffffffffffffffffffffffffffffff1663ae41e19660018c610ed5919061391d565b60018c610ee2919061391d565b6040518363ffffffff1660e01b8152600401610eff9291906134bf565b602060405180830381865afa158015610f1c573d6000803e3d6000fd5b505050506040513d601f19601f82011682018060405250810190610f409190613526565b90508073ffffffffffffffffffffffffffffffffffffffff16632d87286f60026040518263ffffffff1660e01b8152600401610f7c9190612e38565b602060405180830381865afa158015610f99573d6000803e3d6000fd5b505050506040513d601f19601f82011682018060405250810190610fbd919061357f565b945050505050611ce9565b6000600260009054906101000a900473ffffffffffffffffffffffffffffffffffffffff1673ffffffffffffffffffffffffffffffffffffffff1663ae41e19660018c611015919061391d565b60018c61102291906138e9565b6040518363ffffffff1660e01b815260040161103f9291906134bf565b602060405180830381865afa15801561105c573d6000803e3d6000fd5b505050506040513d601f19601f820116820180604052508101906110809190613526565b90508073ffffffffffffffffffffffffffffffffffffffff16632d87286f60026040518263ffffffff1660e01b81526004016110bc9190612e38565b602060405180830381865afa1580156110d9573d6000803e3d6000fd5b505050506040513d601f19601f820116820180604052508101906110fd919061357f565b945050505050611ce9565b6116c9565b600161111883610465565b0361119d57600181148061114b57507fffffffffffffffffffffffffffffffffffffffffffffffffffffffffffffffff81145b1561115c5760019350505050611ce9565b7f06fd1a882ba36f950c7d8cd1fb81ef6e76d9bd623dbf5d7c9fb2755752c55a1b604051611189906138c9565b60405180910390a160009350505050611ce9565b60026111a883610465565b036116c857600082131561143f5760008112156112ff576000600260009054906101000a900473ffffffffffffffffffffffffffffffffffffffff1673ffffffffffffffffffffffffffffffffffffffff1663ae41e19660018c61120c91906138e9565b60018c611219919061391d565b6040518363ffffffff1660e01b81526004016112369291906134bf565b602060405180830381865afa158015611253573d6000803e3d6000fd5b505050506040513d601f19601f820116820180604052508101906112779190613526565b90508073ffffffffffffffffffffffffffffffffffffffff16632d87286f60016040518263ffffffff1660e01b81526004016112b39190612e38565b602060405180830381865afa1580156112d0573d6000803e3d6000fd5b505050506040513d601f19601f820116820180604052508101906112f4919061357f565b945050505050611ce9565b6000600260009054906101000a900473ffffffffffffffffffffffffffffffffffffffff1673ffffffffffffffffffffffffffffffffffffffff1663ae41e19660018c61134c91906138e9565b60018c61135991906138e9565b6040518363ffffffff1660e01b81526004016113769291906134bf565b602060405180830381865afa158015611393573d6000803e3d6000fd5b505050506040513d601f19601f820116820180604052508101906113b79190613526565b90508073ffffffffffffffffffffffffffffffffffffffff16632d87286f60016040518263ffffffff1660e01b81526004016113f39190612e38565b602060405180830381865afa158015611410573d6000803e3d6000fd5b505050506040513d601f19601f82011682018060405250810190611434919061357f565b945050505050611ce9565b6000811215611588576000600260009054906101000a900473ffffffffffffffffffffffffffffffffffffffff1673ffffffffffffffffffffffffffffffffffffffff1663ae41e19660018c611495919061391d565b60018c6114a2919061391d565b6040518363ffffffff1660e01b81526004016114bf9291906134bf565b602060405180830381865afa1580156114dc573d6000803e3d6000fd5b505050506040513d601f19601f820116820180604052508101906115009190613526565b90508073ffffffffffffffffffffffffffffffffffffffff16632d87286f60016040518263ffffffff1660e01b815260040161153c9190612e38565b602060405180830381865afa158015611559573d6000803e3d6000fd5b505050506040513d601f19601f8201168201806040525081019061157d919061357f565b945050505050611ce9565b6000600260009054906101000a900473ffffffffffffffffffffffffffffffffffffffff1673ffffffffffffffffffffffffffffffffffffffff1663ae41e19660018c6115d5919061391d565b60018c6115e291906138e9565b6040518363ffffffff1660e01b81526004016115ff9291906134bf565b602060405180830381865afa15801561161c573d6000803e3d6000fd5b505050506040513d601f19601f820116820180604052508101906116409190613526565b90508073ffffffffffffffffffffffffffffffffffffffff16632d87286f60016040518263ffffffff1660e01b815260040161167c9190612e38565b602060405180830381865afa158015611699573d6000803e3d6000fd5b505050506040513d601f19601f820116820180604052508101906116bd919061357f565b945050505050611ce9565b5b611ce1565b600160028111156116e2576116e1612dc1565b5b8560028111156116f5576116f4612dc1565b5b036119d0576001820361173a57600181148061173057507fffffffffffffffffffffffffffffffffffffffffffffffffffffffffffffffff81145b9350505050611ce9565b600282036119cb57600081121561188b576000600260009054906101000a900473ffffffffffffffffffffffffffffffffffffffff1673ffffffffffffffffffffffffffffffffffffffff1663ae41e19660018c61179891906138e9565b60018c6117a5919061391d565b6040518363ffffffff1660e01b81526004016117c29291906134bf565b602060405180830381865afa1580156117df573d6000803e3d6000fd5b505050506040513d601f19601f820116820180604052508101906118039190613526565b90508073ffffffffffffffffffffffffffffffffffffffff16632d87286f60026040518263ffffffff1660e01b815260040161183f9190612e38565b602060405180830381865afa15801561185c573d6000803e3d6000fd5b505050506040513d601f19601f82011682018060405250810190611880919061357f565b945050505050611ce9565b6000600260009054906101000a900473ffffffffffffffffffffffffffffffffffffffff1673ffffffffffffffffffffffffffffffffffffffff1663ae41e19660018c6118d891906138e9565b60018c6118e591906138e9565b6040518363ffffffff1660e01b81526004016119029291906134bf565b602060405180830381865afa15801561191f573d6000803e3d6000fd5b505050506040513d601f19601f820116820180604052508101906119439190613526565b90508073ffffffffffffffffffffffffffffffffffffffff16632d87286f60026040518263ffffffff1660e01b815260040161197f9190612e38565b602060405180830381865afa15801561199c573d6000803e3d6000fd5b505050506040513d601f19601f820116820180604052508101906119c0919061357f565b945050505050611ce9565b611ce0565b7fffffffffffffffffffffffffffffffffffffffffffffffffffffffffffffffff8203611a2f576001811480611a2557507fffffffffffffffffffffffffffffffffffffffffffffffffffffffffffffffff81145b9350505050611ce9565b7ffffffffffffffffffffffffffffffffffffffffffffffffffffffffffffffffe8203611cdf576000811215611b9f576000600260009054906101000a900473ffffffffffffffffffffffffffffffffffffffff1673ffffffffffffffffffffffffffffffffffffffff1663ae41e19660018c611aac919061391d565b60018c611ab9919061391d565b6040518363ffffffff1660e01b8152600401611ad69291906134bf565b602060405180830381865afa158015611af3573d6000803e3d6000fd5b505050506040513d601f19601f82011682018060405250810190611b179190613526565b90508073ffffffffffffffffffffffffffffffffffffffff16632d87286f60016040518263ffffffff1660e01b8152600401611b539190612e38565b602060405180830381865afa158015611b70573d6000803e3d6000fd5b505050506040513d601f19601f82011682018060405250810190611b94919061357f565b945050505050611ce9565b6000600260009054906101000a900473ffffffffffffffffffffffffffffffffffffffff1673ffffffffffffffffffffffffffffffffffffffff1663ae41e19660018c611bec919061391d565b60018c611bf991906138e9565b6040518363ffffffff1660e01b8152600401611c169291906134bf565b602060405180830381865afa158015611c33573d6000803e3d6000fd5b505050506040513d601f19601f82011682018060405250810190611c579190613526565b90508073ffffffffffffffffffffffffffffffffffffffff16632d87286f60016040518263ffffffff1660e01b8152600401611c939190612e38565b602060405180830381865afa158015611cb0573d6000803e3d6000fd5b505050506040513d601f19601f82011682018060405250810190611cd4919061357f565b945050505050611ce9565b5b5b600093505050505b95945050505050565b6000600260009054906101000a900473ffffffffffffffffffffffffffffffffffffffff1673ffffffffffffffffffffffffffffffffffffffff16635c0465b084846040518363ffffffff1660e01b8152600401611d519291906134bf565b602060405180830381865afa158015611d6e573d6000803e3d6000fd5b505050506040513d601f19601f82011682018060405250810190611d929190613966565b905092915050565b600260009054906101000a900473ffffffffffffffffffffffffffffffffffffffff1681565b6000600460009054906101000a900473ffffffffffffffffffffffffffffffffffffffff16905090565b80600560006101000a81548173ffffffffffffffffffffffffffffffffffffffff021916908373ffffffffffffffffffffffffffffffffffffffff160217905550600560009054906101000a900473ffffffffffffffffffffffffffffffffffffffff1673ffffffffffffffffffffffffffffffffffffffff1663f80a2cd6306040518263ffffffff1660e01b8152600401611e8691906139b4565b600060405180830381600087803b158015611ea057600080fd5b505af1158015611eb4573d6000803e3d6000fd5b5050505050565b6000600260009054906101000a900473ffffffffffffffffffffffffffffffffffffffff1673ffffffffffffffffffffffffffffffffffffffff1663ae41e19684846040518363ffffffff1660e01b8152600401611f1a9291906134bf565b602060405180830381865afa158015611f37573d6000803e3d6000fd5b505050506040513d601f19601f82011682018060405250810190611f5b9190613526565b905092915050565b60003411611fa6576040517f08c379a0000000000000000000000000000000000000000000000000000000008152600401611f9d90613a1b565b60405180910390fd5b600260068054905010611fee576040517f08c379a0000000000000000000000000000000000000000000000000000000008152600401611fe590613a87565b60405180910390fd5b600034905060006006805490500361206d576001600760008473ffffffffffffffffffffffffffffffffffffffff1673ffffffffffffffffffffffffffffffffffffffff16815260200190815260200160002060006101000a81548160ff0219169083600281111561206357612062612dc1565b5b02179055506120d6565b6002600760008473ffffffffffffffffffffffffffffffffffffffff1673ffffffffffffffffffffffffffffffffffffffff16815260200190815260200160002060006101000a81548160ff021916908360028111156120d0576120cf612dc1565b5b02179055505b3073ffffffffffffffffffffffffffffffffffffffff1663f4cbf60b83836040518363ffffffff1660e01b8152600401612111929190613aa7565b600060405180830381600087803b15801561212b57600080fd5b505af115801561213f573d6000803e3d6000fd5b505050506006829080600181540180825580915050600190039060005260206000200160009091909190916101000a81548173ffffffffffffffffffffffffffffffffffffffff021916908373ffffffffffffffffffffffffffffffffffffffff1602179055506002600680549050036121cf576001600560156101000a81548160ff0219169083151502179055505b5050565b60001515600560159054906101000a900460ff16151514612229576040517f08c379a000000000000000000000000000000000000000000000000000000000815260040161222090613b1c565b60405180910390fd5b3073ffffffffffffffffffffffffffffffffffffffff163373ffffffffffffffffffffffffffffffffffffffff1614612297576040517f08c379a000000000000000000000000000000000000000000000000000000000815260040161228e90613bae565b60405180910390fd5b60006122a360016124bf565b11612368577f1e1f22c88be4eb57512afdedf796b878457b4d104150bb48d3614b166a0415b86040516122d590613c1a565b60405180910390a160066000815481106122f2576122f1613c3a565b5b9060005260206000200160009054906101000a900473ffffffffffffffffffffffffffffffffffffffff1673ffffffffffffffffffffffffffffffffffffffff166108fc479081150290604051600060405180830381858888f19350505050158015612362573d6000803e3d6000fd5b50612424565b7f1e1f22c88be4eb57512afdedf796b878457b4d104150bb48d3614b166a0415b860405161239590613cb5565b60405180910390a160066001815481106123b2576123b1613c3a565b5b9060005260206000200160009054906101000a900473ffffffffffffffffffffffffffffffffffffffff1673ffffffffffffffffffffffffffffffffffffffff166108fc479081150290604051600060405180830381858888f19350505050158015612422573d6000803e3d6000fd5b505b565b6001600281111561243a57612439612dc1565b5b600560149054906101000a900460ff16600281111561245c5761245b612dc1565b5b03612491576002600560146101000a81548160ff0219169083600281111561248757612486612dc1565b5b02179055506124bd565b6001600560146101000a81548160ff021916908360028111156124b7576124b6612dc1565b5b02179055505b565b6000806000905060005b600260009054906101000a900473ffffffffffffffffffffffffffffffffffffffff1673ffffffffffffffffffffffffffffffffffffffff16631668dbc36040518163ffffffff1660e01b8152600401602060405180830381865afa158015612536573d6000803e3d6000fd5b505050506040513d601f19601f8201168201806040525081019061255a9190613cd5565b81101561274e5760005b600260009054906101000a900473ffffffffffffffffffffffffffffffffffffffff1673ffffffffffffffffffffffffffffffffffffffff16631668dbc36040518163ffffffff1660e01b8152600401602060405180830381865afa1580156125d1573d6000803e3d6000fd5b505050506040513d601f19601f820116820180604052508101906125f59190613cd5565b81101561273a57600260009054906101000a900473ffffffffffffffffffffffffffffffffffffffff1673ffffffffffffffffffffffffffffffffffffffff1663ae41e19683836040518363ffffffff1660e01b81526004016126599291906134bf565b602060405180830381865afa158015612676573d6000803e3d6000fd5b505050506040513d601f19601f8201168201806040525081019061269a9190613526565b73ffffffffffffffffffffffffffffffffffffffff16632d87286f866040518263ffffffff1660e01b81526004016126d29190612e38565b602060405180830381865afa1580156126ef573d6000803e3d6000fd5b505050506040513d601f19601f82011682018060405250810190612713919061357f565b1561272757828061272390613d02565b9350505b808061273290613d02565b915050612564565b50808061274690613d02565b9150506124c9565b5080915050919050565b600560009054906101000a900473ffffffffffffffffffffffffffffffffffffffff1681565b60001515600560159054906101000a900460ff161515146127d4576040517f08c379a00000000000000000000000000000000000000000000000000000000081526004016127cb90613b1c565b60405180910390fd5b3073ffffffffffffffffffffffffffffffffffffffff163373ffffffffffffffffffffffffffffffffffffffff1614612842576040517f08c379a000000000000000000000000000000000000000000000000000000000815260040161283990613dbc565b60405180910390fd5b80600860008473ffffffffffffffffffffffffffffffffffffffff1673ffffffffffffffffffffffffffffffffffffffff168152602001908152602001600020819055505050565b60011515600560159054906101000a900460ff161515146128e0576040517f08c379a00000000000000000000000000000000000000000000000000000000081526004016128d790613e28565b60405180910390fd5b6128ed85858585856105a3565b15612907576128fe8585858561290e565b612906612426565b5b5050505050565b6002612924838661291f91906137a8565b610465565b03612a2a576000808386612938919061391d565b1061294f5760018561294a919061391d565b61295d565b60018361295c919061391d565b5b9050600080838661296e919061391d565b1061298557600185612980919061391d565b612993565b600183612992919061391d565b5b9050600260009054906101000a900473ffffffffffffffffffffffffffffffffffffffff1673ffffffffffffffffffffffffffffffffffffffff166319d862e5838360006040518463ffffffff1660e01b81526004016129f593929190613e48565b600060405180830381600087803b158015612a0f57600080fd5b505af1158015612a23573d6000803e3d6000fd5b5050505050505b600260009054906101000a900473ffffffffffffffffffffffffffffffffffffffff1673ffffffffffffffffffffffffffffffffffffffff16631ea2d500858585856040518563ffffffff1660e01b8152600401612a8b9493929190613e7f565b600060405180830381600087803b158015612aa557600080fd5b505af1158015612ab9573d6000803e3d6000fd5b505050506000612ac960016124bf565b111580612ae057506000612add60026124bf565b11155b15612b96576000600560156101000a81548160ff021916908315150217905550612b086121d3565b600560009054906101000a900473ffffffffffffffffffffffffffffffffffffffff1673ffffffffffffffffffffffffffffffffffffffff16632a120b58306040518263ffffffff1660e01b8152600401612b6391906139b4565b600060405180830381600087803b158015612b7d57600080fd5b505af1158015612b91573d6000803e3d6000fd5b505050505b50505050565b6000604051905090565b600080fd5b600080fd5b6000819050919050565b612bc381612bb0565b8114612bce57600080fd5b50565b600081359050612be081612bba565b92915050565b600060208284031215612bfc57612bfb612ba6565b5b6000612c0a84828501612bd1565b91505092915050565b612c1c81612bb0565b82525050565b6000602082019050612c376000830184612c13565b92915050565b600081519050919050565b600082825260208201905092915050565b6000819050602082019050919050565b6000819050919050565b612c7c81612c69565b82525050565b6000612c8e8383612c73565b60208301905092915050565b6000602082019050919050565b6000612cb282612c3d565b612cbc8185612c48565b9350612cc783612c59565b8060005b83811015612cf8578151612cdf8882612c82565b9750612cea83612c9a565b925050600181019050612ccb565b5085935050505092915050565b60006020820190508181036000830152612d1f8184612ca7565b905092915050565b600073ffffffffffffffffffffffffffffffffffffffff82169050919050565b6000819050919050565b6000612d6c612d67612d6284612d27565b612d47565b612d27565b9050919050565b6000612d7e82612d51565b9050919050565b6000612d9082612d73565b9050919050565b612da081612d85565b82525050565b6000602082019050612dbb6000830184612d97565b92915050565b7f4e487b7100000000000000000000000000000000000000000000000000000000600052602160045260246000fd5b60038110612e0157612e00612dc1565b5b50565b6000819050612e1282612df0565b919050565b6000612e2282612e04565b9050919050565b612e3281612e17565b82525050565b6000602082019050612e4d6000830184612e29565b92915050565b612e5c81612c69565b8114612e6757600080fd5b50565b600081359050612e7981612e53565b92915050565b6000612e8a82612d27565b9050919050565b6000612e9c82612e7f565b9050919050565b612eac81612e91565b8114612eb757600080fd5b50565b600081359050612ec981612ea3565b92915050565b60008060408385031215612ee657612ee5612ba6565b5b6000612ef485828601612e6a565b9250506020612f0585828601612eba565b9150509250929050565b600060208284031215612f2557612f24612ba6565b5b6000612f3384828501612eba565b91505092915050565b60038110612f4957600080fd5b50565b600081359050612f5b81612f3c565b92915050565b600080600080600060a08688031215612f7d57612f7c612ba6565b5b6000612f8b88828901612e6a565b9550506020612f9c88828901612e6a565b9450506040612fad88828901612e6a565b9350506060612fbe88828901612e6a565b9250506080612fcf88828901612f4c565b9150509295509295909350565b60008115159050919050565b612ff181612fdc565b82525050565b600060208201905061300c6000830184612fe8565b92915050565b6000806040838503121561302957613028612ba6565b5b600061303785828601612e6a565b925050602061304885828601612e6a565b9150509250929050565b61305b81612e7f565b82525050565b60006020820190506130766000830184613052565b92915050565b600061308782612d73565b9050919050565b6130978161307c565b82525050565b60006020820190506130b2600083018461308e565b92915050565b6130c181612e7f565b81146130cc57600080fd5b50565b6000813590506130de816130b8565b92915050565b6000602082840312156130fa576130f9612ba6565b5b6000613108848285016130cf565b91505092915050565b60006020828403121561312757613126612ba6565b5b600061313584828501612f4c565b91505092915050565b61314781612c69565b82525050565b6000602082019050613162600083018461313e565b92915050565b600061317382612d73565b9050919050565b61318381613168565b82525050565b600060208201905061319e600083018461317a565b92915050565b600080604083850312156131bb576131ba612ba6565b5b60006131c9858286016130cf565b92505060206131da85828601612e6a565b9150509250929050565b7f4e487b7100000000000000000000000000000000000000000000000000000000600052601160045260246000fd5b600061321e82612bb0565b915061322983612bb0565b925082820261323781612bb0565b91507f8000000000000000000000000000000000000000000000000000000000000000841460008412161561326f5761326e6131e4565b5b8282058414831517613284576132836131e4565b5b5092915050565b600080fd5b6000601f19601f8301169050919050565b7f4e487b7100000000000000000000000000000000000000000000000000000000600052604160045260246000fd5b6132d982613290565b810181811067ffffffffffffffff821117156132f8576132f76132a1565b5b80604052505050565b600061330b612b9c565b905061331782826132d0565b919050565b600067ffffffffffffffff821115613337576133366132a1565b5b602082029050602081019050919050565b600080fd5b60008151905061335c81612e53565b92915050565b60006133756133708461331c565b613301565b9050808382526020820190506020840283018581111561339857613397613348565b5b835b818110156133c157806133ad888261334d565b84526020840193505060208101905061339a565b5050509392505050565b600082601f8301126133e0576133df61328b565b5b81516133f0848260208601613362565b91505092915050565b60006020828403121561340f5761340e612ba6565b5b600082015167ffffffffffffffff81111561342d5761342c612bab565b5b613439848285016133cb565b91505092915050565b600082825260208201905092915050565b7f596f7520617265206e6f74207468652063757272656e7420706c617965720000600082015250565b6000613489601e83613442565b915061349482613453565b602082019050919050565b600060208201905081810360008301526134b88161347c565b9050919050565b60006040820190506134d4600083018561313e565b6134e1602083018461313e565b9392505050565b60006134f382612e7f565b9050919050565b613503816134e8565b811461350e57600080fd5b50565b600081519050613520816134fa565b92915050565b60006020828403121561353c5761353b612ba6565b5b600061354a84828501613511565b91505092915050565b61355c81612fdc565b811461356757600080fd5b50565b60008151905061357981613553565b92915050565b60006020828403121561359557613594612ba6565b5b60006135a38482850161356a565b91505092915050565b7f43616e206e6f74204a756d7020746f206120706965636520746861742069732060008201527f616c726561647920746865726500000000000000000000000000000000000000602082015250565b6000613608602d83613442565b9150613613826135ac565b604082019050919050565b60006020820190508181036000830152613637816135fb565b9050919050565b7f43616e206e6f74204a756d70206f66662074686520626f617264000000000000600082015250565b6000613674601a83613442565b915061367f8261363e565b602082019050919050565b600060208201905081810360008301526136a381613667565b9050919050565b7f43616e206e6f74206d6f76652061206e6f207069656365000000000000000000600082015250565b60006136e0601783613442565b91506136eb826136aa565b602082019050919050565b6000602082019050818103600083015261370f816136d3565b9050919050565b7f43616e206e6f74206d6f7665206f7468657220706572736f6e2773207069656360008201527f6500000000000000000000000000000000000000000000000000000000000000602082015250565b6000613772602183613442565b915061377d82613716565b604082019050919050565b600060208201905081810360008301526137a181613765565b9050919050565b60006137b382612bb0565b91506137be83612bb0565b92508282039050818112600084121682821360008512151617156137e5576137e46131e4565b5b92915050565b7f43616e2774206d6f766520746861742066617200000000000000000000000000600082015250565b6000613821601383613442565b915061382c826137eb565b602082019050919050565b6000602082019050818103600083015261385081613814565b9050919050565b7f43616e206d6f7665206c65667420616e64207269676874206f6e6c792031206660008201527f6f7220612073696d706c65207475726e00000000000000000000000000000000602082015250565b60006138b3603083613442565b91506138be82613857565b604082019050919050565b600060208201905081810360008301526138e2816138a6565b9050919050565b60006138f482612c69565b91506138ff83612c69565b9250828201905080821115613917576139166131e4565b5b92915050565b600061392882612c69565b915061393383612c69565b925082820390508181111561394b5761394a6131e4565b5b92915050565b60008151905061396081612f3c565b92915050565b60006020828403121561397c5761397b612ba6565b5b600061398a84828501613951565b91505092915050565b600061399e82612d73565b9050919050565b6139ae81613993565b82525050565b60006020820190506139c960008301846139a5565b92915050565b7f796f7520646964206e6f7420776167657220656e6f7567680000000000000000600082015250565b6000613a05601883613442565b9150613a10826139cf565b602082019050919050565b60006020820190508181036000830152613a34816139f8565b9050919050565b7f416c72656164792068617665203220706c617965727300000000000000000000600082015250565b6000613a71601683613442565b9150613a7c82613a3b565b602082019050919050565b60006020820190508181036000830152613aa081613a64565b9050919050565b6000604082019050613abc6000830185613052565b613ac9602083018461313e565b9392505050565b7f47616d6520697320636c6f736564000000000000000000000000000000000000600082015250565b6000613b06600e83613442565b9150613b1182613ad0565b602082019050919050565b60006020820190508181036000830152613b3581613af9565b9050919050565b7f4e6f206f6e6520697320616c6c6f77656420746f20706179206265736964657360008201527f207468697320636f6e7472616374000000000000000000000000000000000000602082015250565b6000613b98602e83613442565b9150613ba382613b3c565b604082019050919050565b60006020820190508181036000830152613bc781613b8b565b9050919050565b7f506c61796572203120776f6e2000000000000000000000000000000000000000600082015250565b6000613c04600d83613442565b9150613c0f82613bce565b602082019050919050565b60006020820190508181036000830152613c3381613bf7565b9050919050565b7f4e487b7100000000000000000000000000000000000000000000000000000000600052603260045260246000fd5b7f506c61796572203220776f6e2000000000000000000000000000000000000000600082015250565b6000613c9f600d83613442565b9150613caa82613c69565b602082019050919050565b60006020820190508181036000830152613cce81613c92565b9050919050565b600060208284031215613ceb57613cea612ba6565b5b6000613cf98482850161334d565b91505092915050565b6000613d0d82612c69565b91507fffffffffffffffffffffffffffffffffffffffffffffffffffffffffffffffff8203613d3f57613d3e6131e4565b5b600182019050919050565b7f4e6f206f6e6520697320616c6c6f77656420746f20616464207761676572732060008201527f62657369646573207468697320636f6e74726163740000000000000000000000602082015250565b6000613da6603583613442565b9150613db182613d4a565b604082019050919050565b60006020820190508181036000830152613dd581613d99565b9050919050565b7f47616d65206973204f70656e0000000000000000000000000000000000000000600082015250565b6000613e12600c83613442565b9150613e1d82613ddc565b602082019050919050565b60006020820190508181036000830152613e4181613e05565b9050919050565b6000606082019050613e5d600083018661313e565b613e6a602083018561313e565b613e776040830184612e29565b949350505050565b6000608082019050613e94600083018761313e565b613ea1602083018661313e565b613eae604083018561313e565b613ebb606083018461313e565b9594505050505056fea26469706673582212201c8ace706519ec153b3f731607c82f7baf38034ee5ec5ec97c6b290f939a3dea64736f6c6343000813003360806040523480156200001157600080fd5b50620000226200003b60201b60201c565b60009060086200003492919062000437565b5062000787565b620000456200048e565b60005b6008811015620003815760005b60088110156200036a5760028211158015620000cf575060006002836200007d919062000607565b148015620000995750600060028262000097919062000607565b145b80620000ce57506001600283620000b1919062000607565b148015620000cd57506001600282620000cb919062000607565b145b5b5b1562000184576001604051620000e590620004bf565b620000f19190620006bf565b604051809103906000f0801580156200010e573d6000803e3d6000fd5b5060008360088110620001265762000125620006dc565b5b6008020182600881106200013f576200013e620006dc565b5b0160006101000a81548173ffffffffffffffffffffffffffffffffffffffff021916908373ffffffffffffffffffffffffffffffffffffffff16021790555062000354565b60058210158015620001f457506000600283620001a2919062000607565b148015620001be57506000600282620001bc919062000607565b145b80620001f357506001600283620001d6919062000607565b148015620001f257506001600282620001f0919062000607565b145b5b5b15620002a95760026040516200020a90620004bf565b620002169190620006bf565b604051809103906000f08015801562000233573d6000803e3d6000fd5b50600083600881106200024b576200024a620006dc565b5b600802018260088110620002645762000263620006dc565b5b0160006101000a81548173ffffffffffffffffffffffffffffffffffffffff021916908373ffffffffffffffffffffffffffffffffffffffff16021790555062000353565b6000604051620002b990620004bf565b620002c59190620006bf565b604051809103906000f080158015620002e2573d6000803e3d6000fd5b5060008360088110620002fa57620002f9620006dc565b5b600802018260088110620003135762000312620006dc565b5b0160006101000a81548173ffffffffffffffffffffffffffffffffffffffff021916908373ffffffffffffffffffffffffffffffffffffffff1602179055505b5b808062000361906200073a565b91505062000055565b50808062000378906200073a565b91505062000048565b506000600880602002604051908101604052809291906000905b828210156200042e5783826008020160088060200260405190810160405280929190826008801562000419576020028201915b8160009054906101000a900473ffffffffffffffffffffffffffffffffffffffff1673ffffffffffffffffffffffffffffffffffffffff1681526020019060010190808311620003ce575b5050505050815260200190600101906200039b565b50505050905090565b826008800281019282156200047b579160200282015b828111156200047a5782518290600862000469929190620004cd565b50916020019190600801906200044d565b5b5090506200048a91906200054f565b5090565b6040518061010001604052806008905b620004a862000577565b8152602001906001900390816200049e5790505090565b610545806200204e83390190565b82600881019282156200053c579160200282015b828111156200053b5782518260006101000a81548173ffffffffffffffffffffffffffffffffffffffff021916908373ffffffffffffffffffffffffffffffffffffffff16021790555091602001919060010190620004e1565b5b5090506200054b91906200059a565b5090565b5b80821115620005735760008181620005699190620005b9565b5060080162000550565b5090565b604051806101000160405280600890602082028036833780820191505090505090565b5b80821115620005b55760008160009055506001016200059b565b5090565b508060080190620005cb91906200059a565b50565b6000819050919050565b7f4e487b7100000000000000000000000000000000000000000000000000000000600052601260045260246000fd5b60006200061482620005ce565b91506200062183620005ce565b925082620006345762000633620005d8565b5b828206905092915050565b7f4e487b7100000000000000000000000000000000000000000000000000000000600052602160045260246000fd5b600381106200068257620006816200063f565b5b50565b600081905062000695826200066e565b919050565b6000620006a78262000685565b9050919050565b620006b9816200069a565b82525050565b6000602082019050620006d66000830184620006ae565b92915050565b7f4e487b7100000000000000000000000000000000000000000000000000000000600052603260045260246000fd5b7f4e487b7100000000000000000000000000000000000000000000000000000000600052601160045260246000fd5b60006200074782620005ce565b91507fffffffffffffffffffffffffffffffffffffffffffffffffffffffffffffffff82036200077c576200077b6200070b565b5b600182019050919050565b6118b780620007976000396000f3fe60806040523480156200001157600080fd5b5060043610620000a05760003560e01c80638086a92a116200006f5780638086a92a146200013d57806395ea50cb1462000173578063ae41e1961462000195578063c51d69f414620001cb578063ddaaf7b314620001ed57620000a0565b80631668dbc314620000a557806319d862e514620000c75780631ea2d50014620000e75780635c0465b01462000107575b600080fd5b620000af6200020f565b604051620000be919062000c04565b60405180910390f35b620000e56004803603810190620000df919062000c7f565b62000218565b005b620001056004803603810190620000ff919062000cdb565b620002c5565b005b6200012560048036038101906200011f919062000d4d565b620005c5565b60405162000134919062000e14565b60405180910390f35b6200015b600480360381019062000155919062000d4d565b62000691565b6040516200016a919062000ebc565b60405180910390f35b6200017d620006de565b6040516200018c91906200103f565b60405180910390f35b620001b36004803603810190620001ad919062000d4d565b62000962565b604051620001c2919062000ebc565b60405180910390f35b620001d5620009bd565b604051620001e4919062000c04565b60405180910390f35b620001f7620009c2565b60405162000206919062001100565b60405180910390f35b60006008905090565b80604051620002279062000b87565b62000233919062000e14565b604051809103906000f08015801562000250573d6000803e3d6000fd5b506000846008811062000268576200026762001124565b5b60080201836008811062000281576200028062001124565b5b0160006101000a81548173ffffffffffffffffffffffffffffffffffffffff021916908373ffffffffffffffffffffffffffffffffffffffff160217905550505050565b6000808560088110620002dd57620002dc62001124565b5b600802018460088110620002f657620002f562001124565b5b0160009054906101000a900473ffffffffffffffffffffffffffffffffffffffff16905060006040516200032a9062000b87565b62000336919062000e14565b604051809103906000f08015801562000353573d6000803e3d6000fd5b50600086600881106200036b576200036a62001124565b5b60080201856008811062000384576200038362001124565b5b0160006101000a81548173ffffffffffffffffffffffffffffffffffffffff021916908373ffffffffffffffffffffffffffffffffffffffff1602179055508060008460088110620003db57620003da62001124565b5b600802018360088110620003f457620003f362001124565b5b0160006101000a81548173ffffffffffffffffffffffffffffffffffffffff021916908373ffffffffffffffffffffffffffffffffffffffff1602179055508073ffffffffffffffffffffffffffffffffffffffff16632d87286f60016040518263ffffffff1660e01b81526004016200046f919062000e14565b602060405180830381865afa1580156200048d573d6000803e3d6000fd5b505050506040513d601f19601f82011682018060405250810190620004b3919062001190565b8015620004c05750600783145b806200055557508073ffffffffffffffffffffffffffffffffffffffff16632d87286f60026040518263ffffffff1660e01b815260040162000503919062000e14565b602060405180830381865afa15801562000521573d6000803e3d6000fd5b505050506040513d601f19601f8201168201806040525081019062000547919062001190565b8015620005545750600083145b5b15620005be578073ffffffffffffffffffffffffffffffffffffffff1663815eda8b6040518163ffffffff1660e01b8152600401600060405180830381600087803b158015620005a457600080fd5b505af1158015620005b9573d6000803e3d6000fd5b505050505b5050505050565b6000808360088110620005dd57620005dc62001124565b5b600802018260088110620005f657620005f562001124565b5b0160009054906101000a900473ffffffffffffffffffffffffffffffffffffffff1673ffffffffffffffffffffffffffffffffffffffff1663d4bcc33c6040518163ffffffff1660e01b8152600401602060405180830381865afa15801562000663573d6000803e3d6000fd5b505050506040513d601f19601f82011682018060405250810190620006899190620011d9565b905092915050565b60008260088110620006a257600080fd5b600802018160088110620006b557600080fd5b016000915091509054906101000a900473ffffffffffffffffffffffffffffffffffffffff1681565b620006e862000b95565b620006f262000b95565b60005b60088110156200095a5760005b60088110156200094357600080836008811062000724576200072362001124565b5b6008020182600881106200073d576200073c62001124565b5b0160009054906101000a900473ffffffffffffffffffffffffffffffffffffffff1690508073ffffffffffffffffffffffffffffffffffffffff16632d87286f60016040518263ffffffff1660e01b81526004016200079d919062000e14565b602060405180830381865afa158015620007bb573d6000803e3d6000fd5b505050506040513d601f19601f82011682018060405250810190620007e1919062001190565b1562000828576001848460088110620007ff57620007fe62001124565b5b6020020151836008811062000819576200081862001124565b5b6020020181815250506200092c565b8073ffffffffffffffffffffffffffffffffffffffff16632d87286f60026040518263ffffffff1660e01b815260040162000864919062000e14565b602060405180830381865afa15801562000882573d6000803e3d6000fd5b505050506040513d601f19601f82011682018060405250810190620008a8919062001190565b15620008ef576002848460088110620008c657620008c562001124565b5b60200201518360088110620008e057620008df62001124565b5b6020020181815250506200092b565b600084846008811062000907576200090662001124565b5b6020020151836008811062000921576200092062001124565b5b6020020181815250505b5b5080806200093a906200123a565b91505062000702565b50808062000951906200123a565b915050620006f5565b508091505090565b60008083600881106200097a576200097962001124565b5b60080201826008811062000993576200099262001124565b5b0160009054906101000a900473ffffffffffffffffffffffffffffffffffffffff16905092915050565b600881565b60606000600880620009d5919062001287565b67ffffffffffffffff811115620009f157620009f0620012d2565b5b60405190808252806020026020018201604052801562000a205781602001602082028036833780820191505090505b50905060005b600881101562000b7f5760005b600881101562000b68576000826008811062000a545762000a5362001124565b5b60080201816008811062000a6d5762000a6c62001124565b5b0160009054906101000a900473ffffffffffffffffffffffffffffffffffffffff1673ffffffffffffffffffffffffffffffffffffffff166313eaac6c6040518163ffffffff1660e01b8152600401602060405180830381865afa15801562000ada573d6000803e3d6000fd5b505050506040513d601f19601f8201168201806040525081019062000b009190620011d9565b600281111562000b155762000b1462000d94565b5b838260088562000b26919062001287565b62000b32919062001301565b8151811062000b465762000b4562001124565b5b602002602001018181525050808062000b5f906200123a565b91505062000a33565b50808062000b76906200123a565b91505062000a26565b508091505090565b610545806200133d83390190565b6040518061010001604052806008905b62000baf62000bc6565b81526020019060019003908162000ba55790505090565b604051806101000160405280600890602082028036833780820191505090505090565b6000819050919050565b62000bfe8162000be9565b82525050565b600060208201905062000c1b600083018462000bf3565b92915050565b600080fd5b62000c318162000be9565b811462000c3d57600080fd5b50565b60008135905062000c518162000c26565b92915050565b6003811062000c6557600080fd5b50565b60008135905062000c798162000c57565b92915050565b60008060006060848603121562000c9b5762000c9a62000c21565b5b600062000cab8682870162000c40565b935050602062000cbe8682870162000c40565b925050604062000cd18682870162000c68565b9150509250925092565b6000806000806080858703121562000cf85762000cf762000c21565b5b600062000d088782880162000c40565b945050602062000d1b8782880162000c40565b935050604062000d2e8782880162000c40565b925050606062000d418782880162000c40565b91505092959194509250565b6000806040838503121562000d675762000d6662000c21565b5b600062000d778582860162000c40565b925050602062000d8a8582860162000c40565b9150509250929050565b7f4e487b7100000000000000000000000000000000000000000000000000000000600052602160045260246000fd5b6003811062000dd75762000dd662000d94565b5b50565b600081905062000dea8262000dc3565b919050565b600062000dfc8262000dda565b9050919050565b62000e0e8162000def565b82525050565b600060208201905062000e2b600083018462000e03565b92915050565b600073ffffffffffffffffffffffffffffffffffffffff82169050919050565b6000819050919050565b600062000e7c62000e7662000e708462000e31565b62000e51565b62000e31565b9050919050565b600062000e908262000e5b565b9050919050565b600062000ea48262000e83565b9050919050565b62000eb68162000e97565b82525050565b600060208201905062000ed3600083018462000eab565b92915050565b600060089050919050565b600081905092915050565b6000819050919050565b600060089050919050565b600081905092915050565b6000819050919050565b62000f248162000be9565b82525050565b600062000f38838362000f19565b60208301905092915050565b6000602082019050919050565b62000f5c8162000ef9565b62000f68818462000f04565b925062000f758262000f0f565b8060005b8381101562000fac57815162000f90878262000f2a565b965062000f9d8362000f44565b92505060018101905062000f79565b505050505050565b600062000fc2838362000f51565b6101008301905092915050565b6000602082019050919050565b62000fe78162000ed9565b62000ff3818462000ee4565b9250620010008262000eef565b8060005b83811015620010375781516200101b878262000fb4565b9650620010288362000fcf565b92505060018101905062001004565b505050505050565b60006108008201905062001057600083018462000fdc565b92915050565b600081519050919050565b600082825260208201905092915050565b6000819050602082019050919050565b6000602082019050919050565b6000620010a3826200105d565b620010af818562001068565b9350620010bc8362001079565b8060005b83811015620010f3578151620010d7888262000f2a565b9750620010e48362001089565b925050600181019050620010c0565b5085935050505092915050565b600060208201905081810360008301526200111c818462001096565b905092915050565b7f4e487b7100000000000000000000000000000000000000000000000000000000600052603260045260246000fd5b60008115159050919050565b6200116a8162001153565b81146200117657600080fd5b50565b6000815190506200118a816200115f565b92915050565b600060208284031215620011a957620011a862000c21565b5b6000620011b98482850162001179565b91505092915050565b600081519050620011d38162000c57565b92915050565b600060208284031215620011f257620011f162000c21565b5b60006200120284828501620011c2565b91505092915050565b7f4e487b7100000000000000000000000000000000000000000000000000000000600052601160045260246000fd5b6000620012478262000be9565b91507fffffffffffffffffffffffffffffffffffffffffffffffffffffffffffffffff82036200127c576200127b6200120b565b5b600182019050919050565b6000620012948262000be9565b9150620012a18362000be9565b9250828202620012b18162000be9565b91508282048414831517620012cb57620012ca6200120b565b5b5092915050565b7f4e487b7100000000000000000000000000000000000000000000000000000000600052604160045260246000fd5b60006200130e8262000be9565b91506200131b8362000be9565b92508282019050808211156200133657620013356200120b565b5b9291505056fe608060405260008060016101000a81548160ff021916908360018111156100295761002861008b565b5b021790555034801561003a57600080fd5b50604051610545380380610545833981810160405281019061005c91906100e4565b806000806101000a81548160ff021916908360028111156100805761007f61008b565b5b021790555050610111565b7f4e487b7100000000000000000000000000000000000000000000000000000000600052602160045260246000fd5b600080fd5b600381106100cc57600080fd5b50565b6000815190506100de816100bf565b92915050565b6000602082840312156100fa576100f96100ba565b5b6000610108848285016100cf565b91505092915050565b610425806101206000396000f3fe608060405234801561001057600080fd5b506004361061007d5760003560e01c806362a4b7781161005b57806362a4b778146100ee578063815eda8b1461010a578063d4bcc33c14610114578063ea602fa6146101325761007d565b806313eaac6c146100825780632d87286f146100a057806340e775f5146100d0575b600080fd5b61008a610150565b60405161009791906102e4565b60405180910390f35b6100ba60048036038101906100b59190610329565b610166565b6040516100c79190610371565b60405180910390f35b6100d86101b3565b6040516100e591906103d4565b60405180910390f35b61010860048036038101906101039190610329565b6101c6565b005b6101126101f2565b005b61011c61021f565b60405161012991906102e4565b60405180910390f35b61013a610230565b6040516101479190610371565b60405180910390f35b60008060009054906101000a900460ff16905090565b600081600281111561017b5761017a61026d565b5b60008054906101000a900460ff16600281111561019b5761019a61026d565b5b036101a957600190506101ae565b600090505b919050565b600060019054906101000a900460ff1681565b806000806101000a81548160ff021916908360028111156101ea576101e961026d565b5b021790555050565b6001600060016101000a81548160ff021916908360018111156102185761021761026d565b5b0217905550565b60008054906101000a900460ff1681565b60006001808111156102455761024461026d565b5b600060019054906101000a900460ff1660018111156102675761026661026d565b5b14905090565b7f4e487b7100000000000000000000000000000000000000000000000000000000600052602160045260246000fd5b600381106102ad576102ac61026d565b5b50565b60008190506102be8261029c565b919050565b60006102ce826102b0565b9050919050565b6102de816102c3565b82525050565b60006020820190506102f960008301846102d5565b92915050565b600080fd5b6003811061031157600080fd5b50565b60008135905061032381610304565b92915050565b60006020828403121561033f5761033e6102ff565b5b600061034d84828501610314565b91505092915050565b60008115159050919050565b61036b81610356565b82525050565b60006020820190506103866000830184610362565b92915050565b6002811061039d5761039c61026d565b5b50565b60008190506103ae8261038c565b919050565b60006103be826103a0565b9050919050565b6103ce816103b3565b82525050565b60006020820190506103e960008301846103c5565b9291505056fea2646970667358221220c91cc5c912682312e9b35cac59d7dee8b57bc01fd6ff27f1b702259de185515964736f6c63430008130033a26469706673582212201be5276fc534be87591ec951628a4c22ceba4cd555d431245b8252af30f6381b64736f6c63430008130033608060405260008060016101000a81548160ff021916908360018111156100295761002861008b565b5b021790555034801561003a57600080fd5b50604051610545380380610545833981810160405281019061005c91906100e4565b806000806101000a81548160ff021916908360028111156100805761007f61008b565b5b021790555050610111565b7f4e487b7100000000000000000000000000000000000000000000000000000000600052602160045260246000fd5b600080fd5b600381106100cc57600080fd5b50565b6000815190506100de816100bf565b92915050565b6000602082840312156100fa576100f96100ba565b5b6000610108848285016100cf565b91505092915050565b610425806101206000396000f3fe608060405234801561001057600080fd5b506004361061007d5760003560e01c806362a4b7781161005b57806362a4b778146100ee578063815eda8b1461010a578063d4bcc33c14610114578063ea602fa6146101325761007d565b806313eaac6c146100825780632d87286f146100a057806340e775f5146100d0575b600080fd5b61008a610150565b60405161009791906102e4565b60405180910390f35b6100ba60048036038101906100b59190610329565b610166565b6040516100c79190610371565b60405180910390f35b6100d86101b3565b6040516100e591906103d4565b60405180910390f35b61010860048036038101906101039190610329565b6101c6565b005b6101126101f2565b005b61011c61021f565b60405161012991906102e4565b60405180910390f35b61013a610230565b6040516101479190610371565b60405180910390f35b60008060009054906101000a900460ff16905090565b600081600281111561017b5761017a61026d565b5b60008054906101000a900460ff16600281111561019b5761019a61026d565b5b036101a957600190506101ae565b600090505b919050565b600060019054906101000a900460ff1681565b806000806101000a81548160ff021916908360028111156101ea576101e961026d565b5b021790555050565b6001600060016101000a81548160ff021916908360018111156102185761021761026d565b5b0217905550565b60008054906101000a900460ff1681565b60006001808111156102455761024461026d565b5b600060019054906101000a900460ff1660018111156102675761026661026d565b5b14905090565b7f4e487b7100000000000000000000000000000000000000000000000000000000600052602160045260246000fd5b600381106102ad576102ac61026d565b5b50565b60008190506102be8261029c565b919050565b60006102ce826102b0565b9050919050565b6102de816102c3565b82525050565b60006020820190506102f960008301846102d5565b92915050565b600080fd5b6003811061031157600080fd5b50565b60008135905061032381610304565b92915050565b60006020828403121561033f5761033e6102ff565b5b600061034d84828501610314565b91505092915050565b60008115159050919050565b61036b81610356565b82525050565b60006020820190506103866000830184610362565b92915050565b6002811061039d5761039c61026d565b5b50565b60008190506103ae8261038c565b919050565b60006103be826103a0565b9050919050565b6103ce816103b3565b82525050565b60006020820190506103e960008301846103c5565b9291505056fea2646970667358221220c91cc5c912682312e9b35cac59d7dee8b57bc01fd6ff27f1b702259de185515964736f6c63430008130033",
  "linkReferences": {},
  "deployedLinkReferences": {}
}