{
  "_format": "hh-sol-artifact-1",
  "contractName": "CheckersTracker",
  "sourceName": "contracts/CheckersGame/CheckersTracker.sol",
  "abi": [
    {
      "inputs": [],
      "stateMutability": "nonpayable",
      "type": "constructor"
    },
    {
      "inputs": [
        {
          "internalType": "address",
          "name": "game",
          "type": "address"
        }
      ],
      "name": "addGame",
      "outputs": [],
      "stateMutability": "nonpayable",
      "type": "function"
    },
    {
      "inputs": [
        {
          "internalType": "address",
          "name": "game",
          "type": "address"
        },
        {
          "internalType": "address",
          "name": "player",
          "type": "address"
        }
      ],
      "name": "addPlayerToGame",
      "outputs": [],
      "stateMutability": "nonpayable",
      "type": "function"
    },
    {
      "inputs": [
        {
          "internalType": "address",
          "name": "player",
          "type": "address"
        }
      ],
      "name": "currentGameFromPlayer",
      "outputs": [
        {
          "internalType": "address",
          "name": "",
          "type": "address"
        }
      ],
      "stateMutability": "view",
      "type": "function"
    },
    {
      "inputs": [],
      "name": "getAllGames",
      "outputs": [
        {
          "internalType": "address[]",
          "name": "",
          "type": "address[]"
        }
      ],
      "stateMutability": "view",
      "type": "function"
    },
    {
      "inputs": [
        {
          "internalType": "address",
          "name": "game",
          "type": "address"
        }
      ],
      "name": "isAddedGame",
      "outputs": [
        {
          "internalType": "bool",
          "name": "",
          "type": "bool"
        }
      ],
      "stateMutability": "view",
      "type": "function"
    },
    {
      "inputs": [
        {
          "internalType": "address",
          "name": "player",
          "type": "address"
        }
      ],
      "name": "playerisPlaying",
      "outputs": [
        {
          "internalType": "bool",
          "name": "",
          "type": "bool"
        }
      ],
      "stateMutability": "view",
      "type": "function"
    },
    {
      "inputs": [
        {
          "internalType": "address",
          "name": "game",
          "type": "address"
        }
      ],
      "name": "removeGame",
      "outputs": [],
      "stateMutability": "nonpayable",
      "type": "function"
    }
  ],
  "bytecode": "0x60806040523480156200001157600080fd5b50600067ffffffffffffffff81111562000030576200002f62000192565b5b6040519080825280602002602001820160405280156200005f5781602001602082028036833780820191505090505b506000908051906020019062000077929190620000e4565b50600067ffffffffffffffff81111562000096576200009562000192565b5b604051908082528060200260200182016040528015620000c55781602001602082028036833780820191505090505b5060019080519060200190620000dd929190620000e4565b50620001c1565b82805482825590600052602060002090810192821562000160579160200282015b828111156200015f5782518260006101000a81548173ffffffffffffffffffffffffffffffffffffffff021916908373ffffffffffffffffffffffffffffffffffffffff1602179055509160200191906001019062000105565b5b5090506200016f919062000173565b5090565b5b808211156200018e57600081600090555060010162000174565b5090565b7f4e487b7100000000000000000000000000000000000000000000000000000000600052604160045260246000fd5b6110fd80620001d16000396000f3fe608060405234801561001057600080fd5b506004361061007d5760003560e01c8063bce246691161005b578063bce24669146100fe578063d671d1201461011a578063d72d04db1461014a578063db1c45f9146101665761007d565b8063746a6cf114610082578063aaa447761461009e578063b739ea06146100ce575b600080fd5b61009c60048036038101906100979190610b64565b610184565b005b6100b860048036038101906100b39190610ba4565b61044b565b6040516100c59190610be0565b60405180910390f35b6100e860048036038101906100e39190610ba4565b6104b7565b6040516100f59190610c16565b60405180910390f35b61011860048036038101906101139190610ba4565b610565565b005b610134600480360381019061012f9190610ba4565b61075a565b6040516101419190610c16565b60405180910390f35b610164600480360381019061015f9190610ba4565b6107b3565b005b61016e610862565b60405161017b9190610cef565b60405180910390f35b61018d826104b7565b6101cc576040517f08c379a00000000000000000000000000000000000000000000000000000000081526004016101c390610d6e565b60405180910390fd5b600260008273ffffffffffffffffffffffffffffffffffffffff1673ffffffffffffffffffffffffffffffffffffffff16815260200190815260200160002060000160149054906101000a900460ff161561025c576040517f08c379a000000000000000000000000000000000000000000000000000000000815260040161025390610dda565b60405180910390fd5b8173ffffffffffffffffffffffffffffffffffffffff1663363cc7906040518163ffffffff1660e01b81526004016020604051808303816000875af11580156102a9573d6000803e3d6000fd5b505050506040513d601f19601f820116820180604052508101906102cd9190610e26565b1561030d576040517f08c379a000000000000000000000000000000000000000000000000000000000815260040161030490610eeb565b60405180910390fd5b60405180604001604052808373ffffffffffffffffffffffffffffffffffffffff16815260200160011515815250600260008373ffffffffffffffffffffffffffffffffffffffff1673ffffffffffffffffffffffffffffffffffffffff16815260200190815260200160002060008201518160000160006101000a81548173ffffffffffffffffffffffffffffffffffffffff021916908373ffffffffffffffffffffffffffffffffffffffff16021790555060208201518160000160146101000a81548160ff0219169083151502179055509050506001819080600181540180825580915050600190039060005260206000200160009091909190916101000a81548173ffffffffffffffffffffffffffffffffffffffff021916908373ffffffffffffffffffffffffffffffffffffffff1602179055505050565b6000600260008373ffffffffffffffffffffffffffffffffffffffff1673ffffffffffffffffffffffffffffffffffffffff16815260200190815260200160002060000160009054906101000a900473ffffffffffffffffffffffffffffffffffffffff169050919050565b600080600090505b60008054905081101561055a578273ffffffffffffffffffffffffffffffffffffffff16600082815481106104f7576104f6610f0b565b5b9060005260206000200160009054906101000a900473ffffffffffffffffffffffffffffffffffffffff1673ffffffffffffffffffffffffffffffffffffffff1603610547576001915050610560565b808061055290610f73565b9150506104bf565b50600090505b919050565b61056e816104b7565b6105ad576040517f08c379a00000000000000000000000000000000000000000000000000000000081526004016105a490611007565b60405180910390fd5b600060016000805490506105c19190611027565b905060005b60008054905081101561065f57600081815481106105e7576105e6610f0b565b5b9060005260206000200160009054906101000a900473ffffffffffffffffffffffffffffffffffffffff1673ffffffffffffffffffffffffffffffffffffffff168373ffffffffffffffffffffffffffffffffffffffff160361064c5780915061065f565b808061065790610f73565b9150506105c6565b5060016000805490506106729190611027565b810361067e5750610757565b60008190505b60008054905081101561074b5760006001826106a09190611027565b815481106106b1576106b0610f0b565b5b9060005260206000200160009054906101000a900473ffffffffffffffffffffffffffffffffffffffff16600082815481106106f0576106ef610f0b565b5b9060005260206000200160006101000a81548173ffffffffffffffffffffffffffffffffffffffff021916908373ffffffffffffffffffffffffffffffffffffffff160217905550808061074390610f73565b915050610684565b50610755826108f0565b505b50565b6000600260008373ffffffffffffffffffffffffffffffffffffffff1673ffffffffffffffffffffffffffffffffffffffff16815260200190815260200160002060000160149054906101000a900460ff169050919050565b6107bc816104b7565b156107fc576040517f08c379a00000000000000000000000000000000000000000000000000000000081526004016107f3906110a7565b60405180910390fd5b6000819080600181540180825580915050600190039060005260206000200160009091909190916101000a81548173ffffffffffffffffffffffffffffffffffffffff021916908373ffffffffffffffffffffffffffffffffffffffff16021790555050565b606060008054806020026020016040519081016040528092919081815260200182805480156108e657602002820191906000526020600020905b8160009054906101000a900473ffffffffffffffffffffffffffffffffffffffff1673ffffffffffffffffffffffffffffffffffffffff168152602001906001019080831161089c575b5050505050905090565b60005b600180549050811015610afd578173ffffffffffffffffffffffffffffffffffffffff16600260006001848154811061092f5761092e610f0b565b5b9060005260206000200160009054906101000a900473ffffffffffffffffffffffffffffffffffffffff1673ffffffffffffffffffffffffffffffffffffffff1673ffffffffffffffffffffffffffffffffffffffff16815260200190815260200160002060000160009054906101000a900473ffffffffffffffffffffffffffffffffffffffff1673ffffffffffffffffffffffffffffffffffffffff1603610aea576040518060400160405280600073ffffffffffffffffffffffffffffffffffffffff168152602001600015158152506002600060018481548110610a1a57610a19610f0b565b5b9060005260206000200160009054906101000a900473ffffffffffffffffffffffffffffffffffffffff1673ffffffffffffffffffffffffffffffffffffffff1673ffffffffffffffffffffffffffffffffffffffff16815260200190815260200160002060008201518160000160006101000a81548173ffffffffffffffffffffffffffffffffffffffff021916908373ffffffffffffffffffffffffffffffffffffffff16021790555060208201518160000160146101000a81548160ff0219169083151502179055509050505b8080610af590610f73565b9150506108f3565b5050565b600080fd5b600073ffffffffffffffffffffffffffffffffffffffff82169050919050565b6000610b3182610b06565b9050919050565b610b4181610b26565b8114610b4c57600080fd5b50565b600081359050610b5e81610b38565b92915050565b60008060408385031215610b7b57610b7a610b01565b5b6000610b8985828601610b4f565b9250506020610b9a85828601610b4f565b9150509250929050565b600060208284031215610bba57610bb9610b01565b5b6000610bc884828501610b4f565b91505092915050565b610bda81610b26565b82525050565b6000602082019050610bf56000830184610bd1565b92915050565b60008115159050919050565b610c1081610bfb565b82525050565b6000602082019050610c2b6000830184610c07565b92915050565b600081519050919050565b600082825260208201905092915050565b6000819050602082019050919050565b610c6681610b26565b82525050565b6000610c788383610c5d565b60208301905092915050565b6000602082019050919050565b6000610c9c82610c31565b610ca68185610c3c565b9350610cb183610c4d565b8060005b83811015610ce2578151610cc98882610c6c565b9750610cd483610c84565b925050600181019050610cb5565b5085935050505092915050565b60006020820190508181036000830152610d098184610c91565b905092915050565b600082825260208201905092915050565b7f47616d65206973206e6f7420616c726561647920616464656400000000000000600082015250565b6000610d58601983610d11565b9150610d6382610d22565b602082019050919050565b60006020820190508181036000830152610d8781610d4b565b9050919050565b7f596f752061726520616c726561647920506c6179696e6720612067616d650000600082015250565b6000610dc4601e83610d11565b9150610dcf82610d8e565b602082019050919050565b60006020820190508181036000830152610df381610db7565b9050919050565b610e0381610bfb565b8114610e0e57600080fd5b50565b600081519050610e2081610dfa565b92915050565b600060208284031215610e3c57610e3b610b01565b5b6000610e4a84828501610e11565b91505092915050565b7f47616d6520697320616c726561647920506c6179696e67206f7220746865726560008201527f2061726520616c7265616479203220706c617965727320696e2074686520676160208201527f6d65000000000000000000000000000000000000000000000000000000000000604082015250565b6000610ed5604283610d11565b9150610ee082610e53565b606082019050919050565b60006020820190508181036000830152610f0481610ec8565b9050919050565b7f4e487b7100000000000000000000000000000000000000000000000000000000600052603260045260246000fd5b7f4e487b7100000000000000000000000000000000000000000000000000000000600052601160045260246000fd5b6000819050919050565b6000610f7e82610f69565b91507fffffffffffffffffffffffffffffffffffffffffffffffffffffffffffffffff8203610fb057610faf610f3a565b5b600182019050919050565b7f47616d65206e6f74206164646564000000000000000000000000000000000000600082015250565b6000610ff1600e83610d11565b9150610ffc82610fbb565b602082019050919050565b6000602082019050818103600083015261102081610fe4565b9050919050565b600061103282610f69565b915061103d83610f69565b925082820190508082111561105557611054610f3a565b5b92915050565b7f47616d6520616c7265616479204265696e6720706c6179656400000000000000600082015250565b6000611091601983610d11565b915061109c8261105b565b602082019050919050565b600060208201905081810360008301526110c081611084565b905091905056fea26469706673582212209da53257c32d055990bcf89930565848b963db2de626c3752ab25755d77f81d064736f6c63430008130033",
  "linkReferences": {},
  "deployedLinkReferences": {}
}