{
  "_format": "hh-sol-artifact-1",
  "contractName": "Checkers",
  "sourceName": "contracts/CheckersGame/Checkers.sol",
  "abi": [
    {
      "inputs": [
        {
          "internalType": "contract CheckersTracker",
          "name": "checkerTracker",
          "type": "address"
        }
      ],
      "stateMutability": "nonpayable",
      "type": "constructor"
    },
    {
      "anonymous": false,
      "inputs": [
        {
          "indexed": false,
          "internalType": "string",
          "name": "err",
          "type": "string"
        }
      ],
      "name": "InvalidMove",
      "type": "event"
    },
    {
      "anonymous": false,
      "inputs": [
        {
          "indexed": false,
          "internalType": "string",
          "name": "s",
          "type": "string"
        }
      ],
      "name": "Winner",
      "type": "event"
    },
    {
      "inputs": [
        {
          "internalType": "int256",
          "name": "value",
          "type": "int256"
        }
      ],
      "name": "abs",
      "outputs": [
        {
          "internalType": "int256",
          "name": "",
          "type": "int256"
        }
      ],
      "stateMutability": "pure",
      "type": "function"
    },
    {
      "inputs": [
        {
          "internalType": "contract MainContract",
          "name": "mainContract",
          "type": "address"
        }
      ],
      "name": "addMain",
      "outputs": [],
      "stateMutability": "nonpayable",
      "type": "function"
    },
    {
      "inputs": [
        {
          "internalType": "address",
          "name": "player",
          "type": "address"
        }
      ],
      "name": "addPlayer",
      "outputs": [],
      "stateMutability": "payable",
      "type": "function"
    },
    {
      "inputs": [],
      "name": "board",
      "outputs": [
        {
          "internalType": "contract Board",
          "name": "",
          "type": "address"
        }
      ],
      "stateMutability": "view",
      "type": "function"
    },
    {
      "inputs": [
        {
          "internalType": "enum PlayerNumber",
          "name": "player",
          "type": "uint8"
        }
      ],
      "name": "countPieces",
      "outputs": [
        {
          "internalType": "uint256",
          "name": "",
          "type": "uint256"
        }
      ],
      "stateMutability": "nonpayable",
      "type": "function"
    },
    {
      "inputs": [],
      "name": "currentPlayer",
      "outputs": [
        {
          "internalType": "enum PlayerNumber",
          "name": "",
          "type": "uint8"
        }
      ],
      "stateMutability": "view",
      "type": "function"
    },
    {
      "inputs": [],
      "name": "getBoard",
      "outputs": [
        {
          "internalType": "contract Board",
          "name": "",
          "type": "address"
        }
      ],
      "stateMutability": "nonpayable",
      "type": "function"
    },
    {
      "inputs": [],
      "name": "getBoardAddress",
      "outputs": [
        {
          "internalType": "address",
          "name": "",
          "type": "address"
        }
      ],
      "stateMutability": "view",
      "type": "function"
    },
    {
      "inputs": [],
      "name": "getBoardArrayFlat",
      "outputs": [
        {
          "internalType": "uint256[]",
          "name": "",
          "type": "uint256[]"
        }
      ],
      "stateMutability": "view",
      "type": "function"
    },
    {
      "inputs": [],
      "name": "getCurrentPlayer",
      "outputs": [
        {
          "internalType": "enum PlayerNumber",
          "name": "",
          "type": "uint8"
        }
      ],
      "stateMutability": "view",
      "type": "function"
    },
    {
      "inputs": [
        {
          "internalType": "uint256",
          "name": "row",
          "type": "uint256"
        },
        {
          "internalType": "uint256",
          "name": "col",
          "type": "uint256"
        }
      ],
      "name": "getPiece",
      "outputs": [
        {
          "internalType": "contract Piece",
          "name": "",
          "type": "address"
        }
      ],
      "stateMutability": "view",
      "type": "function"
    },
    {
      "inputs": [
        {
          "internalType": "uint256",
          "name": "row",
          "type": "uint256"
        },
        {
          "internalType": "uint256",
          "name": "col",
          "type": "uint256"
        }
      ],
      "name": "getPiecePlayer",
      "outputs": [
        {
          "internalType": "enum PlayerNumber",
          "name": "",
          "type": "uint8"
        }
      ],
      "stateMutability": "view",
      "type": "function"
    },
    {
      "inputs": [],
      "name": "isOpenGame",
      "outputs": [
        {
          "internalType": "bool",
          "name": "",
          "type": "bool"
        }
      ],
      "stateMutability": "nonpayable",
      "type": "function"
    },
    {
      "inputs": [
        {
          "internalType": "uint256",
          "name": "fromRow",
          "type": "uint256"
        },
        {
          "internalType": "uint256",
          "name": "fromCol",
          "type": "uint256"
        },
        {
          "internalType": "uint256",
          "name": "toRow",
          "type": "uint256"
        },
        {
          "internalType": "uint256",
          "name": "toCol",
          "type": "uint256"
        },
        {
          "internalType": "enum PlayerNumber",
          "name": "player",
          "type": "uint8"
        }
      ],
      "name": "isValidMore",
      "outputs": [
        {
          "internalType": "bool",
          "name": "",
          "type": "bool"
        }
      ],
      "stateMutability": "nonpayable",
      "type": "function"
    },
    {
      "inputs": [],
      "name": "main",
      "outputs": [
        {
          "internalType": "contract MainContract",
          "name": "",
          "type": "address"
        }
      ],
      "stateMutability": "view",
      "type": "function"
    },
    {
      "inputs": [
        {
          "internalType": "uint256",
          "name": "fromRow",
          "type": "uint256"
        },
        {
          "internalType": "uint256",
          "name": "fromCol",
          "type": "uint256"
        },
        {
          "internalType": "uint256",
          "name": "toRow",
          "type": "uint256"
        },
        {
          "internalType": "uint256",
          "name": "toCol",
          "type": "uint256"
        },
        {
          "internalType": "enum PlayerNumber",
          "name": "player",
          "type": "uint8"
        }
      ],
      "name": "move",
      "outputs": [],
      "stateMutability": "nonpayable",
      "type": "function"
    },
    {
      "inputs": [
        {
          "internalType": "uint256",
          "name": "_difficulty",
          "type": "uint256"
        },
        {
          "internalType": "contract MainContract",
          "name": "_contract",
          "type": "address"
        }
      ],
      "name": "payWinner",
      "outputs": [],
      "stateMutability": "payable",
      "type": "function"
    },
    {
      "inputs": [],
      "name": "payWinner",
      "outputs": [],
      "stateMutability": "payable",
      "type": "function"
    },
    {
      "inputs": [],
      "name": "switchPlayer",
      "outputs": [],
      "stateMutability": "nonpayable",
      "type": "function"
    },
    {
      "inputs": [
        {
          "internalType": "contract MainContract",
          "name": "_contract",
          "type": "address"
        }
      ],
      "name": "wager",
      "outputs": [],
      "stateMutability": "payable",
      "type": "function"
    },
    {
      "inputs": [
        {
          "internalType": "address",
          "name": "player",
          "type": "address"
        },
        {
          "internalType": "uint256",
          "name": "wager",
          "type": "uint256"
        }
      ],
      "name": "wager",
      "outputs": [],
      "stateMutability": "payable",
      "type": "function"
    }
  ],
  "bytecode": "0x60806040526000600560156101000a81548160ff0219169083151502179055503480156200002c57600080fd5b5060405162006c4438038062006c448339818101604052810190620000529190620002bd565b604051620000609062000231565b604051809103906000f0801580156200007d573d6000803e3d6000fd5b50600260006101000a81548173ffffffffffffffffffffffffffffffffffffffff021916908373ffffffffffffffffffffffffffffffffffffffff160217905550600260009054906101000a900473ffffffffffffffffffffffffffffffffffffffff16600460006101000a81548173ffffffffffffffffffffffffffffffffffffffff021916908373ffffffffffffffffffffffffffffffffffffffff160217905550600260009054906101000a900473ffffffffffffffffffffffffffffffffffffffff1673ffffffffffffffffffffffffffffffffffffffff16631668dbc36040518163ffffffff1660e01b8152600401602060405180830381865afa1580156200018f573d6000803e3d6000fd5b505050506040513d601f19601f82011682018060405250810190620001b591906200032a565b6003819055506001600560146101000a81548160ff02191690836002811115620001e457620001e36200035c565b5b021790555080600960006101000a81548173ffffffffffffffffffffffffffffffffffffffff021916908373ffffffffffffffffffffffffffffffffffffffff160217905550506200038b565b61259380620046b183390190565b600080fd5b600073ffffffffffffffffffffffffffffffffffffffff82169050919050565b6000620002718262000244565b9050919050565b6000620002858262000264565b9050919050565b620002978162000278565b8114620002a357600080fd5b50565b600081519050620002b7816200028c565b92915050565b600060208284031215620002d657620002d56200023f565b5b6000620002e684828501620002a6565b91505092915050565b6000819050919050565b6200030481620002ef565b81146200031057600080fd5b50565b6000815190506200032481620002f9565b92915050565b6000602082840312156200034357620003426200023f565b5b6000620003538482850162000313565b91505092915050565b7f4e487b7100000000000000000000000000000000000000000000000000000000600052602160045260246000fd5b614316806200039b6000396000f3fe60806040526004361061012a5760003560e01c80637cd3229a116100ab578063be71248a1161006f578063be71248a146103cd578063c04c3cf3146103d7578063d4755dbb146103ee578063dffeadd01461042b578063f4cbf60b14610456578063f70dd4c5146104725761012a565b80637cd3229a146102f557806382b225ce1461032057806389fa150c1461034b578063ae41e19614610374578063b1275f9a146103b15761012a565b8063476e6172116100f2578063476e61721461021857806347b94f83146102435780634d619bee1461025f57806358ddb5051461027b5780635c0465b0146102b85761012a565b80631b5ac4b51461012f578063257468271461016c5780633264a34b14610197578063363cc790146101c25780634404a438146101ed575b600080fd5b34801561013b57600080fd5b5061015660048036038101906101519190612f47565b61049b565b6040516101639190612f83565b60405180910390f35b34801561017857600080fd5b506101816104e1565b60405161018e9190613066565b60405180910390f35b3480156101a357600080fd5b506101ac61057e565b6040516101b99190613107565b60405180910390f35b3480156101ce57600080fd5b506101d76105a8565b6040516101e4919061313d565b60405180910390f35b3480156101f957600080fd5b506102026105bf565b60405161020f91906131cf565b60405180910390f35b34801561022457600080fd5b5061022d6105d2565b60405161023a91906131cf565b60405180910390f35b61025d60048036038101906102589190613266565b6105e9565b005b610279600480360381019061027491906132a6565b6105ed565b005b34801561028757600080fd5b506102a2600480360381019061029d91906132f8565b6105f0565b6040516102af919061313d565b60405180910390f35b3480156102c457600080fd5b506102df60048036038101906102da9190613373565b611d3f565b6040516102ec91906131cf565b60405180910390f35b34801561030157600080fd5b5061030a611de7565b6040516103179190613107565b60405180910390f35b34801561032c57600080fd5b50610335611e0d565b60405161034291906133c2565b60405180910390f35b34801561035757600080fd5b50610372600480360381019061036d91906132a6565b611e37565b005b34801561038057600080fd5b5061039b60048036038101906103969190613373565b611f08565b6040516103a891906133fe565b60405180910390f35b6103cb60048036038101906103c69190613445565b611fb0565b005b6103d56124a7565b005b3480156103e357600080fd5b506103ec612787565b005b3480156103fa57600080fd5b5061041560048036038101906104109190613472565b612820565b60405161042291906134ae565b60405180910390f35b34801561043757600080fd5b50610440612ab9565b60405161044d91906134ea565b60405180910390f35b610470600480360381019061046b9190613505565b612adf565b005b34801561047e57600080fd5b50610499600480360381019061049491906132f8565b612beb565b005b6000808212156104d8577fffffffffffffffffffffffffffffffffffffffffffffffffffffffffffffffff826104d19190613574565b90506104dc565b8190505b919050565b6060600260009054906101000a900473ffffffffffffffffffffffffffffffffffffffff1673ffffffffffffffffffffffffffffffffffffffff1663ddaaf7b36040518163ffffffff1660e01b8152600401600060405180830381865afa158015610550573d6000803e3d6000fd5b505050506040513d6000823e3d601f19601f82011682018060405250810190610579919061375a565b905090565b6000600260009054906101000a900473ffffffffffffffffffffffffffffffffffffffff16905090565b6000600560159054906101000a900460ff16905090565b600560149054906101000a900460ff1681565b6000600560149054906101000a900460ff16905090565b5050565b50565b6000600560149054906101000a900460ff16600281111561061457610613613158565b5b82600281111561062757610626613158565b5b14610667576040517f08c379a000000000000000000000000000000000000000000000000000000000815260040161065e90613800565b60405180910390fd5b6000600260009054906101000a900473ffffffffffffffffffffffffffffffffffffffff1673ffffffffffffffffffffffffffffffffffffffff1663ae41e19688886040518363ffffffff1660e01b81526004016106c6929190613820565b602060405180830381865afa1580156106e3573d6000803e3d6000fd5b505050506040513d601f19601f820116820180604052508101906107079190613887565b9050600260009054906101000a900473ffffffffffffffffffffffffffffffffffffffff1673ffffffffffffffffffffffffffffffffffffffff1663ae41e19686866040518363ffffffff1660e01b8152600401610766929190613820565b602060405180830381865afa158015610783573d6000803e3d6000fd5b505050506040513d601f19601f820116820180604052508101906107a79190613887565b73ffffffffffffffffffffffffffffffffffffffff16632d87286f60006040518263ffffffff1660e01b81526004016107e091906131cf565b602060405180830381865afa1580156107fd573d6000803e3d6000fd5b505050506040513d601f19601f8201168201806040525081019061082191906138e0565b610864577f06fd1a882ba36f950c7d8cd1fb81ef6e76d9bd623dbf5d7c9fb2755752c55a1b6040516108529061397f565b60405180910390a16000915050611d36565b60008710806108735750600787115b8061087e5750600085105b806108895750600785115b806108945750600086105b8061089f5750600786115b806108aa5750600084105b806108b55750600784115b156108f9577f06fd1a882ba36f950c7d8cd1fb81ef6e76d9bd623dbf5d7c9fb2755752c55a1b6040516108e7906139eb565b60405180910390a16000915050611d36565b8073ffffffffffffffffffffffffffffffffffffffff16632d87286f60006040518263ffffffff1660e01b815260040161093391906131cf565b602060405180830381865afa158015610950573d6000803e3d6000fd5b505050506040513d601f19601f8201168201806040525081019061097491906138e0565b156109b8577f06fd1a882ba36f950c7d8cd1fb81ef6e76d9bd623dbf5d7c9fb2755752c55a1b6040516109a690613a57565b60405180910390a16000915050611d36565b8073ffffffffffffffffffffffffffffffffffffffff16632d87286f846040518263ffffffff1660e01b81526004016109f191906131cf565b602060405180830381865afa158015610a0e573d6000803e3d6000fd5b505050506040513d601f19601f82011682018060405250810190610a3291906138e0565b610a75577f06fd1a882ba36f950c7d8cd1fb81ef6e76d9bd623dbf5d7c9fb2755752c55a1b604051610a6390613ae9565b60405180910390a16000915050611d36565b60008786610a839190613b09565b905060008786610a939190613b09565b90506002610aa08361049b565b1380610ab457506002610ab28261049b565b135b15610afa577f06fd1a882ba36f950c7d8cd1fb81ef6e76d9bd623dbf5d7c9fb2755752c55a1b604051610ae690613b98565b60405180910390a160009350505050611d36565b8273ffffffffffffffffffffffffffffffffffffffff1663ea602fa66040518163ffffffff1660e01b8152600401602060405180830381865afa158015610b45573d6000803e3d6000fd5b505050506040513d601f19601f82011682018060405250810190610b6991906138e0565b1561171b5760016002811115610b8257610b81613158565b5b856002811115610b9557610b94613158565b5b0361115a576001610ba58361049b565b03610c2a576001811480610bd857507fffffffffffffffffffffffffffffffffffffffffffffffffffffffffffffffff81145b15610be95760019350505050611d36565b7f06fd1a882ba36f950c7d8cd1fb81ef6e76d9bd623dbf5d7c9fb2755752c55a1b604051610c1690613c2a565b60405180910390a160009350505050611d36565b6002610c358361049b565b03611155576000821315610ecc576000811215610d8c576000600260009054906101000a900473ffffffffffffffffffffffffffffffffffffffff1673ffffffffffffffffffffffffffffffffffffffff1663ae41e19660018c610c999190613c4a565b60018c610ca69190613c7e565b6040518363ffffffff1660e01b8152600401610cc3929190613820565b602060405180830381865afa158015610ce0573d6000803e3d6000fd5b505050506040513d601f19601f82011682018060405250810190610d049190613887565b90508073ffffffffffffffffffffffffffffffffffffffff16632d87286f60026040518263ffffffff1660e01b8152600401610d4091906131cf565b602060405180830381865afa158015610d5d573d6000803e3d6000fd5b505050506040513d601f19601f82011682018060405250810190610d8191906138e0565b945050505050611d36565b6000600260009054906101000a900473ffffffffffffffffffffffffffffffffffffffff1673ffffffffffffffffffffffffffffffffffffffff1663ae41e19660018c610dd99190613c4a565b60018c610de69190613c4a565b6040518363ffffffff1660e01b8152600401610e03929190613820565b602060405180830381865afa158015610e20573d6000803e3d6000fd5b505050506040513d601f19601f82011682018060405250810190610e449190613887565b90508073ffffffffffffffffffffffffffffffffffffffff16632d87286f60026040518263ffffffff1660e01b8152600401610e8091906131cf565b602060405180830381865afa158015610e9d573d6000803e3d6000fd5b505050506040513d601f19601f82011682018060405250810190610ec191906138e0565b945050505050611d36565b6000811215611015576000600260009054906101000a900473ffffffffffffffffffffffffffffffffffffffff1673ffffffffffffffffffffffffffffffffffffffff1663ae41e19660018c610f229190613c7e565b60018c610f2f9190613c7e565b6040518363ffffffff1660e01b8152600401610f4c929190613820565b602060405180830381865afa158015610f69573d6000803e3d6000fd5b505050506040513d601f19601f82011682018060405250810190610f8d9190613887565b90508073ffffffffffffffffffffffffffffffffffffffff16632d87286f60026040518263ffffffff1660e01b8152600401610fc991906131cf565b602060405180830381865afa158015610fe6573d6000803e3d6000fd5b505050506040513d601f19601f8201168201806040525081019061100a91906138e0565b945050505050611d36565b6000600260009054906101000a900473ffffffffffffffffffffffffffffffffffffffff1673ffffffffffffffffffffffffffffffffffffffff1663ae41e19660018c6110629190613c7e565b60018c61106f9190613c4a565b6040518363ffffffff1660e01b815260040161108c929190613820565b602060405180830381865afa1580156110a9573d6000803e3d6000fd5b505050506040513d601f19601f820116820180604052508101906110cd9190613887565b90508073ffffffffffffffffffffffffffffffffffffffff16632d87286f60026040518263ffffffff1660e01b815260040161110991906131cf565b602060405180830381865afa158015611126573d6000803e3d6000fd5b505050506040513d601f19601f8201168201806040525081019061114a91906138e0565b945050505050611d36565b611716565b60016111658361049b565b036111ea57600181148061119857507fffffffffffffffffffffffffffffffffffffffffffffffffffffffffffffffff81145b156111a95760019350505050611d36565b7f06fd1a882ba36f950c7d8cd1fb81ef6e76d9bd623dbf5d7c9fb2755752c55a1b6040516111d690613c2a565b60405180910390a160009350505050611d36565b60026111f58361049b565b0361171557600082131561148c57600081121561134c576000600260009054906101000a900473ffffffffffffffffffffffffffffffffffffffff1673ffffffffffffffffffffffffffffffffffffffff1663ae41e19660018c6112599190613c4a565b60018c6112669190613c7e565b6040518363ffffffff1660e01b8152600401611283929190613820565b602060405180830381865afa1580156112a0573d6000803e3d6000fd5b505050506040513d601f19601f820116820180604052508101906112c49190613887565b90508073ffffffffffffffffffffffffffffffffffffffff16632d87286f60016040518263ffffffff1660e01b815260040161130091906131cf565b602060405180830381865afa15801561131d573d6000803e3d6000fd5b505050506040513d601f19601f8201168201806040525081019061134191906138e0565b945050505050611d36565b6000600260009054906101000a900473ffffffffffffffffffffffffffffffffffffffff1673ffffffffffffffffffffffffffffffffffffffff1663ae41e19660018c6113999190613c4a565b60018c6113a69190613c4a565b6040518363ffffffff1660e01b81526004016113c3929190613820565b602060405180830381865afa1580156113e0573d6000803e3d6000fd5b505050506040513d601f19601f820116820180604052508101906114049190613887565b90508073ffffffffffffffffffffffffffffffffffffffff16632d87286f60016040518263ffffffff1660e01b815260040161144091906131cf565b602060405180830381865afa15801561145d573d6000803e3d6000fd5b505050506040513d601f19601f8201168201806040525081019061148191906138e0565b945050505050611d36565b60008112156115d5576000600260009054906101000a900473ffffffffffffffffffffffffffffffffffffffff1673ffffffffffffffffffffffffffffffffffffffff1663ae41e19660018c6114e29190613c7e565b60018c6114ef9190613c7e565b6040518363ffffffff1660e01b815260040161150c929190613820565b602060405180830381865afa158015611529573d6000803e3d6000fd5b505050506040513d601f19601f8201168201806040525081019061154d9190613887565b90508073ffffffffffffffffffffffffffffffffffffffff16632d87286f60016040518263ffffffff1660e01b815260040161158991906131cf565b602060405180830381865afa1580156115a6573d6000803e3d6000fd5b505050506040513d601f19601f820116820180604052508101906115ca91906138e0565b945050505050611d36565b6000600260009054906101000a900473ffffffffffffffffffffffffffffffffffffffff1673ffffffffffffffffffffffffffffffffffffffff1663ae41e19660018c6116229190613c7e565b60018c61162f9190613c4a565b6040518363ffffffff1660e01b815260040161164c929190613820565b602060405180830381865afa158015611669573d6000803e3d6000fd5b505050506040513d601f19601f8201168201806040525081019061168d9190613887565b90508073ffffffffffffffffffffffffffffffffffffffff16632d87286f60016040518263ffffffff1660e01b81526004016116c991906131cf565b602060405180830381865afa1580156116e6573d6000803e3d6000fd5b505050506040513d601f19601f8201168201806040525081019061170a91906138e0565b945050505050611d36565b5b611d2e565b6001600281111561172f5761172e613158565b5b85600281111561174257611741613158565b5b03611a1d576001820361178757600181148061177d57507fffffffffffffffffffffffffffffffffffffffffffffffffffffffffffffffff81145b9350505050611d36565b60028203611a185760008112156118d8576000600260009054906101000a900473ffffffffffffffffffffffffffffffffffffffff1673ffffffffffffffffffffffffffffffffffffffff1663ae41e19660018c6117e59190613c4a565b60018c6117f29190613c7e565b6040518363ffffffff1660e01b815260040161180f929190613820565b602060405180830381865afa15801561182c573d6000803e3d6000fd5b505050506040513d601f19601f820116820180604052508101906118509190613887565b90508073ffffffffffffffffffffffffffffffffffffffff16632d87286f60026040518263ffffffff1660e01b815260040161188c91906131cf565b602060405180830381865afa1580156118a9573d6000803e3d6000fd5b505050506040513d601f19601f820116820180604052508101906118cd91906138e0565b945050505050611d36565b6000600260009054906101000a900473ffffffffffffffffffffffffffffffffffffffff1673ffffffffffffffffffffffffffffffffffffffff1663ae41e19660018c6119259190613c4a565b60018c6119329190613c4a565b6040518363ffffffff1660e01b815260040161194f929190613820565b602060405180830381865afa15801561196c573d6000803e3d6000fd5b505050506040513d601f19601f820116820180604052508101906119909190613887565b90508073ffffffffffffffffffffffffffffffffffffffff16632d87286f60026040518263ffffffff1660e01b81526004016119cc91906131cf565b602060405180830381865afa1580156119e9573d6000803e3d6000fd5b505050506040513d601f19601f82011682018060405250810190611a0d91906138e0565b945050505050611d36565b611d2d565b7fffffffffffffffffffffffffffffffffffffffffffffffffffffffffffffffff8203611a7c576001811480611a7257507fffffffffffffffffffffffffffffffffffffffffffffffffffffffffffffffff81145b9350505050611d36565b7ffffffffffffffffffffffffffffffffffffffffffffffffffffffffffffffffe8203611d2c576000811215611bec576000600260009054906101000a900473ffffffffffffffffffffffffffffffffffffffff1673ffffffffffffffffffffffffffffffffffffffff1663ae41e19660018c611af99190613c7e565b60018c611b069190613c7e565b6040518363ffffffff1660e01b8152600401611b23929190613820565b602060405180830381865afa158015611b40573d6000803e3d6000fd5b505050506040513d601f19601f82011682018060405250810190611b649190613887565b90508073ffffffffffffffffffffffffffffffffffffffff16632d87286f60016040518263ffffffff1660e01b8152600401611ba091906131cf565b602060405180830381865afa158015611bbd573d6000803e3d6000fd5b505050506040513d601f19601f82011682018060405250810190611be191906138e0565b945050505050611d36565b6000600260009054906101000a900473ffffffffffffffffffffffffffffffffffffffff1673ffffffffffffffffffffffffffffffffffffffff1663ae41e19660018c611c399190613c7e565b60018c611c469190613c4a565b6040518363ffffffff1660e01b8152600401611c63929190613820565b602060405180830381865afa158015611c80573d6000803e3d6000fd5b505050506040513d601f19601f82011682018060405250810190611ca49190613887565b90508073ffffffffffffffffffffffffffffffffffffffff16632d87286f60016040518263ffffffff1660e01b8152600401611ce091906131cf565b602060405180830381865afa158015611cfd573d6000803e3d6000fd5b505050506040513d601f19601f82011682018060405250810190611d2191906138e0565b945050505050611d36565b5b5b600093505050505b95945050505050565b6000600260009054906101000a900473ffffffffffffffffffffffffffffffffffffffff1673ffffffffffffffffffffffffffffffffffffffff16635c0465b084846040518363ffffffff1660e01b8152600401611d9e929190613820565b602060405180830381865afa158015611dbb573d6000803e3d6000fd5b505050506040513d601f19601f82011682018060405250810190611ddf9190613cc7565b905092915050565b600260009054906101000a900473ffffffffffffffffffffffffffffffffffffffff1681565b6000600460009054906101000a900473ffffffffffffffffffffffffffffffffffffffff16905090565b80600560006101000a81548173ffffffffffffffffffffffffffffffffffffffff021916908373ffffffffffffffffffffffffffffffffffffffff160217905550600560009054906101000a900473ffffffffffffffffffffffffffffffffffffffff1673ffffffffffffffffffffffffffffffffffffffff1663f80a2cd6306040518263ffffffff1660e01b8152600401611ed39190613d15565b600060405180830381600087803b158015611eed57600080fd5b505af1158015611f01573d6000803e3d6000fd5b5050505050565b6000600260009054906101000a900473ffffffffffffffffffffffffffffffffffffffff1673ffffffffffffffffffffffffffffffffffffffff1663ae41e19684846040518363ffffffff1660e01b8152600401611f67929190613820565b602060405180830381865afa158015611f84573d6000803e3d6000fd5b505050506040513d601f19601f82011682018060405250810190611fa89190613887565b905092915050565b60003411611ff3576040517f08c379a0000000000000000000000000000000000000000000000000000000008152600401611fea90613d7c565b60405180910390fd5b60026006805490501061203b576040517f08c379a000000000000000000000000000000000000000000000000000000000815260040161203290613de8565b60405180910390fd5b600960009054906101000a900473ffffffffffffffffffffffffffffffffffffffff1673ffffffffffffffffffffffffffffffffffffffff1663d671d120826040518263ffffffff1660e01b815260040161209691906133c2565b602060405180830381865afa1580156120b3573d6000803e3d6000fd5b505050506040513d601f19601f820116820180604052508101906120d791906138e0565b15612117576040517f08c379a000000000000000000000000000000000000000000000000000000000815260040161210e90613e7a565b60405180910390fd5b60003490506000600680549050036122b257600960009054906101000a900473ffffffffffffffffffffffffffffffffffffffff1673ffffffffffffffffffffffffffffffffffffffff1663d72d04db306040518263ffffffff1660e01b815260040161218491906133c2565b600060405180830381600087803b15801561219e57600080fd5b505af11580156121b2573d6000803e3d6000fd5b50505050600960009054906101000a900473ffffffffffffffffffffffffffffffffffffffff1673ffffffffffffffffffffffffffffffffffffffff1663746a6cf130846040518363ffffffff1660e01b8152600401612213929190613e9a565b600060405180830381600087803b15801561222d57600080fd5b505af1158015612241573d6000803e3d6000fd5b505050506001600760008473ffffffffffffffffffffffffffffffffffffffff1673ffffffffffffffffffffffffffffffffffffffff16815260200190815260200160002060006101000a81548160ff021916908360028111156122a8576122a7613158565b5b02179055506123aa565b6002600760008473ffffffffffffffffffffffffffffffffffffffff1673ffffffffffffffffffffffffffffffffffffffff16815260200190815260200160002060006101000a81548160ff0219169083600281111561231557612314613158565b5b0217905550600960009054906101000a900473ffffffffffffffffffffffffffffffffffffffff1673ffffffffffffffffffffffffffffffffffffffff1663746a6cf130846040518363ffffffff1660e01b8152600401612377929190613e9a565b600060405180830381600087803b15801561239157600080fd5b505af11580156123a5573d6000803e3d6000fd5b505050505b3073ffffffffffffffffffffffffffffffffffffffff1663f4cbf60b83836040518363ffffffff1660e01b81526004016123e5929190613ec3565b600060405180830381600087803b1580156123ff57600080fd5b505af1158015612413573d6000803e3d6000fd5b505050506006829080600181540180825580915050600190039060005260206000200160009091909190916101000a81548173ffffffffffffffffffffffffffffffffffffffff021916908373ffffffffffffffffffffffffffffffffffffffff1602179055506002600680549050036124a3576001600560156101000a81548160ff0219169083151502179055505b5050565b60001515600560159054906101000a900460ff161515146124fd576040517f08c379a00000000000000000000000000000000000000000000000000000000081526004016124f490613f38565b60405180910390fd5b3073ffffffffffffffffffffffffffffffffffffffff163373ffffffffffffffffffffffffffffffffffffffff161461256b576040517f08c379a000000000000000000000000000000000000000000000000000000000815260040161256290613fca565b60405180910390fd5b60006125776001612820565b1161263c577f1e1f22c88be4eb57512afdedf796b878457b4d104150bb48d3614b166a0415b86040516125a990614036565b60405180910390a160066000815481106125c6576125c5614056565b5b9060005260206000200160009054906101000a900473ffffffffffffffffffffffffffffffffffffffff1673ffffffffffffffffffffffffffffffffffffffff166108fc479081150290604051600060405180830381858888f19350505050158015612636573d6000803e3d6000fd5b506126f8565b7f1e1f22c88be4eb57512afdedf796b878457b4d104150bb48d3614b166a0415b8604051612669906140d1565b60405180910390a1600660018154811061268657612685614056565b5b9060005260206000200160009054906101000a900473ffffffffffffffffffffffffffffffffffffffff1673ffffffffffffffffffffffffffffffffffffffff166108fc479081150290604051600060405180830381858888f193505050501580156126f6573d6000803e3d6000fd5b505b600960009054906101000a900473ffffffffffffffffffffffffffffffffffffffff1673ffffffffffffffffffffffffffffffffffffffff1663bce24669306040518263ffffffff1660e01b815260040161275391906133c2565b600060405180830381600087803b15801561276d57600080fd5b505af1158015612781573d6000803e3d6000fd5b50505050565b6001600281111561279b5761279a613158565b5b600560149054906101000a900460ff1660028111156127bd576127bc613158565b5b036127f2576002600560146101000a81548160ff021916908360028111156127e8576127e7613158565b5b021790555061281e565b6001600560146101000a81548160ff0219169083600281111561281857612817613158565b5b02179055505b565b6000806000905060005b600260009054906101000a900473ffffffffffffffffffffffffffffffffffffffff1673ffffffffffffffffffffffffffffffffffffffff16631668dbc36040518163ffffffff1660e01b8152600401602060405180830381865afa158015612897573d6000803e3d6000fd5b505050506040513d601f19601f820116820180604052508101906128bb91906140f1565b811015612aaf5760005b600260009054906101000a900473ffffffffffffffffffffffffffffffffffffffff1673ffffffffffffffffffffffffffffffffffffffff16631668dbc36040518163ffffffff1660e01b8152600401602060405180830381865afa158015612932573d6000803e3d6000fd5b505050506040513d601f19601f8201168201806040525081019061295691906140f1565b811015612a9b57600260009054906101000a900473ffffffffffffffffffffffffffffffffffffffff1673ffffffffffffffffffffffffffffffffffffffff1663ae41e19683836040518363ffffffff1660e01b81526004016129ba929190613820565b602060405180830381865afa1580156129d7573d6000803e3d6000fd5b505050506040513d601f19601f820116820180604052508101906129fb9190613887565b73ffffffffffffffffffffffffffffffffffffffff16632d87286f866040518263ffffffff1660e01b8152600401612a3391906131cf565b602060405180830381865afa158015612a50573d6000803e3d6000fd5b505050506040513d601f19601f82011682018060405250810190612a7491906138e0565b15612a88578280612a849061411e565b9350505b8080612a939061411e565b9150506128c5565b508080612aa79061411e565b91505061282a565b5080915050919050565b600560009054906101000a900473ffffffffffffffffffffffffffffffffffffffff1681565b60001515600560159054906101000a900460ff16151514612b35576040517f08c379a0000000000000000000000000000000000000000000000000000000008152600401612b2c90613f38565b60405180910390fd5b3073ffffffffffffffffffffffffffffffffffffffff163373ffffffffffffffffffffffffffffffffffffffff1614612ba3576040517f08c379a0000000000000000000000000000000000000000000000000000000008152600401612b9a906141d8565b60405180910390fd5b80600860008473ffffffffffffffffffffffffffffffffffffffff1673ffffffffffffffffffffffffffffffffffffffff168152602001908152602001600020819055505050565b60011515600560159054906101000a900460ff16151514612c41576040517f08c379a0000000000000000000000000000000000000000000000000000000008152600401612c3890614244565b60405180910390fd5b612c4e85858585856105f0565b15612c6857612c5f85858585612c6f565b612c67612787565b5b5050505050565b6002612c858386612c809190613b09565b61049b565b03612d8b576000808386612c999190613c7e565b10612cb057600185612cab9190613c7e565b612cbe565b600183612cbd9190613c7e565b5b90506000808386612ccf9190613c7e565b10612ce657600185612ce19190613c7e565b612cf4565b600183612cf39190613c7e565b5b9050600260009054906101000a900473ffffffffffffffffffffffffffffffffffffffff1673ffffffffffffffffffffffffffffffffffffffff166319d862e5838360006040518463ffffffff1660e01b8152600401612d5693929190614264565b600060405180830381600087803b158015612d7057600080fd5b505af1158015612d84573d6000803e3d6000fd5b5050505050505b600260009054906101000a900473ffffffffffffffffffffffffffffffffffffffff1673ffffffffffffffffffffffffffffffffffffffff16631ea2d500858585856040518563ffffffff1660e01b8152600401612dec949392919061429b565b600060405180830381600087803b158015612e0657600080fd5b505af1158015612e1a573d6000803e3d6000fd5b505050506000612e2a6001612820565b111580612e4157506000612e3e6002612820565b11155b15612ef7576000600560156101000a81548160ff021916908315150217905550612e696124a7565b600560009054906101000a900473ffffffffffffffffffffffffffffffffffffffff1673ffffffffffffffffffffffffffffffffffffffff16632a120b58306040518263ffffffff1660e01b8152600401612ec49190613d15565b600060405180830381600087803b158015612ede57600080fd5b505af1158015612ef2573d6000803e3d6000fd5b505050505b50505050565b6000604051905090565b600080fd5b600080fd5b6000819050919050565b612f2481612f11565b8114612f2f57600080fd5b50565b600081359050612f4181612f1b565b92915050565b600060208284031215612f5d57612f5c612f07565b5b6000612f6b84828501612f32565b91505092915050565b612f7d81612f11565b82525050565b6000602082019050612f986000830184612f74565b92915050565b600081519050919050565b600082825260208201905092915050565b6000819050602082019050919050565b6000819050919050565b612fdd81612fca565b82525050565b6000612fef8383612fd4565b60208301905092915050565b6000602082019050919050565b600061301382612f9e565b61301d8185612fa9565b935061302883612fba565b8060005b838110156130595781516130408882612fe3565b975061304b83612ffb565b92505060018101905061302c565b5085935050505092915050565b600060208201905081810360008301526130808184613008565b905092915050565b600073ffffffffffffffffffffffffffffffffffffffff82169050919050565b6000819050919050565b60006130cd6130c86130c384613088565b6130a8565b613088565b9050919050565b60006130df826130b2565b9050919050565b60006130f1826130d4565b9050919050565b613101816130e6565b82525050565b600060208201905061311c60008301846130f8565b92915050565b60008115159050919050565b61313781613122565b82525050565b6000602082019050613152600083018461312e565b92915050565b7f4e487b7100000000000000000000000000000000000000000000000000000000600052602160045260246000fd5b6003811061319857613197613158565b5b50565b60008190506131a982613187565b919050565b60006131b98261319b565b9050919050565b6131c9816131ae565b82525050565b60006020820190506131e460008301846131c0565b92915050565b6131f381612fca565b81146131fe57600080fd5b50565b600081359050613210816131ea565b92915050565b600061322182613088565b9050919050565b600061323382613216565b9050919050565b61324381613228565b811461324e57600080fd5b50565b6000813590506132608161323a565b92915050565b6000806040838503121561327d5761327c612f07565b5b600061328b85828601613201565b925050602061329c85828601613251565b9150509250929050565b6000602082840312156132bc576132bb612f07565b5b60006132ca84828501613251565b91505092915050565b600381106132e057600080fd5b50565b6000813590506132f2816132d3565b92915050565b600080600080600060a0868803121561331457613313612f07565b5b600061332288828901613201565b955050602061333388828901613201565b945050604061334488828901613201565b935050606061335588828901613201565b9250506080613366888289016132e3565b9150509295509295909350565b6000806040838503121561338a57613389612f07565b5b600061339885828601613201565b92505060206133a985828601613201565b9150509250929050565b6133bc81613216565b82525050565b60006020820190506133d760008301846133b3565b92915050565b60006133e8826130d4565b9050919050565b6133f8816133dd565b82525050565b600060208201905061341360008301846133ef565b92915050565b61342281613216565b811461342d57600080fd5b50565b60008135905061343f81613419565b92915050565b60006020828403121561345b5761345a612f07565b5b600061346984828501613430565b91505092915050565b60006020828403121561348857613487612f07565b5b6000613496848285016132e3565b91505092915050565b6134a881612fca565b82525050565b60006020820190506134c3600083018461349f565b92915050565b60006134d4826130d4565b9050919050565b6134e4816134c9565b82525050565b60006020820190506134ff60008301846134db565b92915050565b6000806040838503121561351c5761351b612f07565b5b600061352a85828601613430565b925050602061353b85828601613201565b9150509250929050565b7f4e487b7100000000000000000000000000000000000000000000000000000000600052601160045260246000fd5b600061357f82612f11565b915061358a83612f11565b925082820261359881612f11565b91507f800000000000000000000000000000000000000000000000000000000000000084146000841216156135d0576135cf613545565b5b82820584148315176135e5576135e4613545565b5b5092915050565b600080fd5b6000601f19601f8301169050919050565b7f4e487b7100000000000000000000000000000000000000000000000000000000600052604160045260246000fd5b61363a826135f1565b810181811067ffffffffffffffff8211171561365957613658613602565b5b80604052505050565b600061366c612efd565b90506136788282613631565b919050565b600067ffffffffffffffff82111561369857613697613602565b5b602082029050602081019050919050565b600080fd5b6000815190506136bd816131ea565b92915050565b60006136d66136d18461367d565b613662565b905080838252602082019050602084028301858111156136f9576136f86136a9565b5b835b81811015613722578061370e88826136ae565b8452602084019350506020810190506136fb565b5050509392505050565b600082601f830112613741576137406135ec565b5b81516137518482602086016136c3565b91505092915050565b6000602082840312156137705761376f612f07565b5b600082015167ffffffffffffffff81111561378e5761378d612f0c565b5b61379a8482850161372c565b91505092915050565b600082825260208201905092915050565b7f596f7520617265206e6f74207468652063757272656e7420706c617965720000600082015250565b60006137ea601e836137a3565b91506137f5826137b4565b602082019050919050565b60006020820190508181036000830152613819816137dd565b9050919050565b6000604082019050613835600083018561349f565b613842602083018461349f565b9392505050565b600061385482613216565b9050919050565b61386481613849565b811461386f57600080fd5b50565b6000815190506138818161385b565b92915050565b60006020828403121561389d5761389c612f07565b5b60006138ab84828501613872565b91505092915050565b6138bd81613122565b81146138c857600080fd5b50565b6000815190506138da816138b4565b92915050565b6000602082840312156138f6576138f5612f07565b5b6000613904848285016138cb565b91505092915050565b7f43616e206e6f74204a756d7020746f206120706965636520746861742069732060008201527f616c726561647920746865726500000000000000000000000000000000000000602082015250565b6000613969602d836137a3565b91506139748261390d565b604082019050919050565b600060208201905081810360008301526139988161395c565b9050919050565b7f43616e206e6f74204a756d70206f66662074686520626f617264000000000000600082015250565b60006139d5601a836137a3565b91506139e08261399f565b602082019050919050565b60006020820190508181036000830152613a04816139c8565b9050919050565b7f43616e206e6f74206d6f76652061206e6f207069656365000000000000000000600082015250565b6000613a416017836137a3565b9150613a4c82613a0b565b602082019050919050565b60006020820190508181036000830152613a7081613a34565b9050919050565b7f43616e206e6f74206d6f7665206f7468657220706572736f6e2773207069656360008201527f6500000000000000000000000000000000000000000000000000000000000000602082015250565b6000613ad36021836137a3565b9150613ade82613a77565b604082019050919050565b60006020820190508181036000830152613b0281613ac6565b9050919050565b6000613b1482612f11565b9150613b1f83612f11565b9250828203905081811260008412168282136000851215161715613b4657613b45613545565b5b92915050565b7f43616e2774206d6f766520746861742066617200000000000000000000000000600082015250565b6000613b826013836137a3565b9150613b8d82613b4c565b602082019050919050565b60006020820190508181036000830152613bb181613b75565b9050919050565b7f43616e206d6f7665206c65667420616e64207269676874206f6e6c792031206660008201527f6f7220612073696d706c65207475726e00000000000000000000000000000000602082015250565b6000613c146030836137a3565b9150613c1f82613bb8565b604082019050919050565b60006020820190508181036000830152613c4381613c07565b9050919050565b6000613c5582612fca565b9150613c6083612fca565b9250828201905080821115613c7857613c77613545565b5b92915050565b6000613c8982612fca565b9150613c9483612fca565b9250828203905081811115613cac57613cab613545565b5b92915050565b600081519050613cc1816132d3565b92915050565b600060208284031215613cdd57613cdc612f07565b5b6000613ceb84828501613cb2565b91505092915050565b6000613cff826130d4565b9050919050565b613d0f81613cf4565b82525050565b6000602082019050613d2a6000830184613d06565b92915050565b7f796f7520646964206e6f7420776167657220656e6f7567680000000000000000600082015250565b6000613d666018836137a3565b9150613d7182613d30565b602082019050919050565b60006020820190508181036000830152613d9581613d59565b9050919050565b7f416c72656164792068617665203220706c617965727300000000000000000000600082015250565b6000613dd26016836137a3565b9150613ddd82613d9c565b602082019050919050565b60006020820190508181036000830152613e0181613dc5565b9050919050565b7f596f752063616e206e6f7420706c6179206d6f7265207468616e206f6e65204760008201527f616d6520617420612074696d6500000000000000000000000000000000000000602082015250565b6000613e64602d836137a3565b9150613e6f82613e08565b604082019050919050565b60006020820190508181036000830152613e9381613e57565b9050919050565b6000604082019050613eaf60008301856133b3565b613ebc60208301846133b3565b9392505050565b6000604082019050613ed860008301856133b3565b613ee5602083018461349f565b9392505050565b7f47616d6520697320636c6f736564000000000000000000000000000000000000600082015250565b6000613f22600e836137a3565b9150613f2d82613eec565b602082019050919050565b60006020820190508181036000830152613f5181613f15565b9050919050565b7f4e6f206f6e6520697320616c6c6f77656420746f20706179206265736964657360008201527f207468697320636f6e7472616374000000000000000000000000000000000000602082015250565b6000613fb4602e836137a3565b9150613fbf82613f58565b604082019050919050565b60006020820190508181036000830152613fe381613fa7565b9050919050565b7f506c61796572203120776f6e2000000000000000000000000000000000000000600082015250565b6000614020600d836137a3565b915061402b82613fea565b602082019050919050565b6000602082019050818103600083015261404f81614013565b9050919050565b7f4e487b7100000000000000000000000000000000000000000000000000000000600052603260045260246000fd5b7f506c61796572203220776f6e2000000000000000000000000000000000000000600082015250565b60006140bb600d836137a3565b91506140c682614085565b602082019050919050565b600060208201905081810360008301526140ea816140ae565b9050919050565b60006020828403121561410757614106612f07565b5b6000614115848285016136ae565b91505092915050565b600061412982612fca565b91507fffffffffffffffffffffffffffffffffffffffffffffffffffffffffffffffff820361415b5761415a613545565b5b600182019050919050565b7f4e6f206f6e6520697320616c6c6f77656420746f20616464207761676572732060008201527f62657369646573207468697320636f6e74726163740000000000000000000000602082015250565b60006141c26035836137a3565b91506141cd82614166565b604082019050919050565b600060208201905081810360008301526141f1816141b5565b9050919050565b7f47616d65206973204f70656e0000000000000000000000000000000000000000600082015250565b600061422e600c836137a3565b9150614239826141f8565b602082019050919050565b6000602082019050818103600083015261425d81614221565b9050919050565b6000606082019050614279600083018661349f565b614286602083018561349f565b61429360408301846131c0565b949350505050565b60006080820190506142b0600083018761349f565b6142bd602083018661349f565b6142ca604083018561349f565b6142d7606083018461349f565b9594505050505056fea264697066735822122027cfa869c13b9849cf9b9e00a11caca5b6976e35a730dc134c090627970c0db964736f6c6343000813003360806040523480156200001157600080fd5b50620000226200003b60201b60201c565b60009060086200003492919062000437565b5062000787565b620000456200048e565b60005b6008811015620003815760005b60088110156200036a5760028211158015620000cf575060006002836200007d919062000607565b148015620000995750600060028262000097919062000607565b145b80620000ce57506001600283620000b1919062000607565b148015620000cd57506001600282620000cb919062000607565b145b5b5b1562000184576001604051620000e590620004bf565b620000f19190620006bf565b604051809103906000f0801580156200010e573d6000803e3d6000fd5b5060008360088110620001265762000125620006dc565b5b6008020182600881106200013f576200013e620006dc565b5b0160006101000a81548173ffffffffffffffffffffffffffffffffffffffff021916908373ffffffffffffffffffffffffffffffffffffffff16021790555062000354565b60058210158015620001f457506000600283620001a2919062000607565b148015620001be57506000600282620001bc919062000607565b145b80620001f357506001600283620001d6919062000607565b148015620001f257506001600282620001f0919062000607565b145b5b5b15620002a95760026040516200020a90620004bf565b620002169190620006bf565b604051809103906000f08015801562000233573d6000803e3d6000fd5b50600083600881106200024b576200024a620006dc565b5b600802018260088110620002645762000263620006dc565b5b0160006101000a81548173ffffffffffffffffffffffffffffffffffffffff021916908373ffffffffffffffffffffffffffffffffffffffff16021790555062000353565b6000604051620002b990620004bf565b620002c59190620006bf565b604051809103906000f080158015620002e2573d6000803e3d6000fd5b5060008360088110620002fa57620002f9620006dc565b5b600802018260088110620003135762000312620006dc565b5b0160006101000a81548173ffffffffffffffffffffffffffffffffffffffff021916908373ffffffffffffffffffffffffffffffffffffffff1602179055505b5b808062000361906200073a565b91505062000055565b50808062000378906200073a565b91505062000048565b506000600880602002604051908101604052809291906000905b828210156200042e5783826008020160088060200260405190810160405280929190826008801562000419576020028201915b8160009054906101000a900473ffffffffffffffffffffffffffffffffffffffff1673ffffffffffffffffffffffffffffffffffffffff1681526020019060010190808311620003ce575b5050505050815260200190600101906200039b565b50505050905090565b826008800281019282156200047b579160200282015b828111156200047a5782518290600862000469929190620004cd565b50916020019190600801906200044d565b5b5090506200048a91906200054f565b5090565b6040518061010001604052806008905b620004a862000577565b8152602001906001900390816200049e5790505090565b610545806200204e83390190565b82600881019282156200053c579160200282015b828111156200053b5782518260006101000a81548173ffffffffffffffffffffffffffffffffffffffff021916908373ffffffffffffffffffffffffffffffffffffffff16021790555091602001919060010190620004e1565b5b5090506200054b91906200059a565b5090565b5b80821115620005735760008181620005699190620005b9565b5060080162000550565b5090565b604051806101000160405280600890602082028036833780820191505090505090565b5b80821115620005b55760008160009055506001016200059b565b5090565b508060080190620005cb91906200059a565b50565b6000819050919050565b7f4e487b7100000000000000000000000000000000000000000000000000000000600052601260045260246000fd5b60006200061482620005ce565b91506200062183620005ce565b925082620006345762000633620005d8565b5b828206905092915050565b7f4e487b7100000000000000000000000000000000000000000000000000000000600052602160045260246000fd5b600381106200068257620006816200063f565b5b50565b600081905062000695826200066e565b919050565b6000620006a78262000685565b9050919050565b620006b9816200069a565b82525050565b6000602082019050620006d66000830184620006ae565b92915050565b7f4e487b7100000000000000000000000000000000000000000000000000000000600052603260045260246000fd5b7f4e487b7100000000000000000000000000000000000000000000000000000000600052601160045260246000fd5b60006200074782620005ce565b91507fffffffffffffffffffffffffffffffffffffffffffffffffffffffffffffffff82036200077c576200077b6200070b565b5b600182019050919050565b6118b780620007976000396000f3fe60806040523480156200001157600080fd5b5060043610620000a05760003560e01c80638086a92a116200006f5780638086a92a146200013d57806395ea50cb1462000173578063ae41e1961462000195578063c51d69f414620001cb578063ddaaf7b314620001ed57620000a0565b80631668dbc314620000a557806319d862e514620000c75780631ea2d50014620000e75780635c0465b01462000107575b600080fd5b620000af6200020f565b604051620000be919062000c04565b60405180910390f35b620000e56004803603810190620000df919062000c7f565b62000218565b005b620001056004803603810190620000ff919062000cdb565b620002c5565b005b6200012560048036038101906200011f919062000d4d565b620005c5565b60405162000134919062000e14565b60405180910390f35b6200015b600480360381019062000155919062000d4d565b62000691565b6040516200016a919062000ebc565b60405180910390f35b6200017d620006de565b6040516200018c91906200103f565b60405180910390f35b620001b36004803603810190620001ad919062000d4d565b62000962565b604051620001c2919062000ebc565b60405180910390f35b620001d5620009bd565b604051620001e4919062000c04565b60405180910390f35b620001f7620009c2565b60405162000206919062001100565b60405180910390f35b60006008905090565b80604051620002279062000b87565b62000233919062000e14565b604051809103906000f08015801562000250573d6000803e3d6000fd5b506000846008811062000268576200026762001124565b5b60080201836008811062000281576200028062001124565b5b0160006101000a81548173ffffffffffffffffffffffffffffffffffffffff021916908373ffffffffffffffffffffffffffffffffffffffff160217905550505050565b6000808560088110620002dd57620002dc62001124565b5b600802018460088110620002f657620002f562001124565b5b0160009054906101000a900473ffffffffffffffffffffffffffffffffffffffff16905060006040516200032a9062000b87565b62000336919062000e14565b604051809103906000f08015801562000353573d6000803e3d6000fd5b50600086600881106200036b576200036a62001124565b5b60080201856008811062000384576200038362001124565b5b0160006101000a81548173ffffffffffffffffffffffffffffffffffffffff021916908373ffffffffffffffffffffffffffffffffffffffff1602179055508060008460088110620003db57620003da62001124565b5b600802018360088110620003f457620003f362001124565b5b0160006101000a81548173ffffffffffffffffffffffffffffffffffffffff021916908373ffffffffffffffffffffffffffffffffffffffff1602179055508073ffffffffffffffffffffffffffffffffffffffff16632d87286f60016040518263ffffffff1660e01b81526004016200046f919062000e14565b602060405180830381865afa1580156200048d573d6000803e3d6000fd5b505050506040513d601f19601f82011682018060405250810190620004b3919062001190565b8015620004c05750600783145b806200055557508073ffffffffffffffffffffffffffffffffffffffff16632d87286f60026040518263ffffffff1660e01b815260040162000503919062000e14565b602060405180830381865afa15801562000521573d6000803e3d6000fd5b505050506040513d601f19601f8201168201806040525081019062000547919062001190565b8015620005545750600083145b5b15620005be578073ffffffffffffffffffffffffffffffffffffffff1663815eda8b6040518163ffffffff1660e01b8152600401600060405180830381600087803b158015620005a457600080fd5b505af1158015620005b9573d6000803e3d6000fd5b505050505b5050505050565b6000808360088110620005dd57620005dc62001124565b5b600802018260088110620005f657620005f562001124565b5b0160009054906101000a900473ffffffffffffffffffffffffffffffffffffffff1673ffffffffffffffffffffffffffffffffffffffff1663d4bcc33c6040518163ffffffff1660e01b8152600401602060405180830381865afa15801562000663573d6000803e3d6000fd5b505050506040513d601f19601f82011682018060405250810190620006899190620011d9565b905092915050565b60008260088110620006a257600080fd5b600802018160088110620006b557600080fd5b016000915091509054906101000a900473ffffffffffffffffffffffffffffffffffffffff1681565b620006e862000b95565b620006f262000b95565b60005b60088110156200095a5760005b60088110156200094357600080836008811062000724576200072362001124565b5b6008020182600881106200073d576200073c62001124565b5b0160009054906101000a900473ffffffffffffffffffffffffffffffffffffffff1690508073ffffffffffffffffffffffffffffffffffffffff16632d87286f60016040518263ffffffff1660e01b81526004016200079d919062000e14565b602060405180830381865afa158015620007bb573d6000803e3d6000fd5b505050506040513d601f19601f82011682018060405250810190620007e1919062001190565b1562000828576001848460088110620007ff57620007fe62001124565b5b6020020151836008811062000819576200081862001124565b5b6020020181815250506200092c565b8073ffffffffffffffffffffffffffffffffffffffff16632d87286f60026040518263ffffffff1660e01b815260040162000864919062000e14565b602060405180830381865afa15801562000882573d6000803e3d6000fd5b505050506040513d601f19601f82011682018060405250810190620008a8919062001190565b15620008ef576002848460088110620008c657620008c562001124565b5b60200201518360088110620008e057620008df62001124565b5b6020020181815250506200092b565b600084846008811062000907576200090662001124565b5b6020020151836008811062000921576200092062001124565b5b6020020181815250505b5b5080806200093a906200123a565b91505062000702565b50808062000951906200123a565b915050620006f5565b508091505090565b60008083600881106200097a576200097962001124565b5b60080201826008811062000993576200099262001124565b5b0160009054906101000a900473ffffffffffffffffffffffffffffffffffffffff16905092915050565b600881565b60606000600880620009d5919062001287565b67ffffffffffffffff811115620009f157620009f0620012d2565b5b60405190808252806020026020018201604052801562000a205781602001602082028036833780820191505090505b50905060005b600881101562000b7f5760005b600881101562000b68576000826008811062000a545762000a5362001124565b5b60080201816008811062000a6d5762000a6c62001124565b5b0160009054906101000a900473ffffffffffffffffffffffffffffffffffffffff1673ffffffffffffffffffffffffffffffffffffffff166313eaac6c6040518163ffffffff1660e01b8152600401602060405180830381865afa15801562000ada573d6000803e3d6000fd5b505050506040513d601f19601f8201168201806040525081019062000b009190620011d9565b600281111562000b155762000b1462000d94565b5b838260088562000b26919062001287565b62000b32919062001301565b8151811062000b465762000b4562001124565b5b602002602001018181525050808062000b5f906200123a565b91505062000a33565b50808062000b76906200123a565b91505062000a26565b508091505090565b610545806200133d83390190565b6040518061010001604052806008905b62000baf62000bc6565b81526020019060019003908162000ba55790505090565b604051806101000160405280600890602082028036833780820191505090505090565b6000819050919050565b62000bfe8162000be9565b82525050565b600060208201905062000c1b600083018462000bf3565b92915050565b600080fd5b62000c318162000be9565b811462000c3d57600080fd5b50565b60008135905062000c518162000c26565b92915050565b6003811062000c6557600080fd5b50565b60008135905062000c798162000c57565b92915050565b60008060006060848603121562000c9b5762000c9a62000c21565b5b600062000cab8682870162000c40565b935050602062000cbe8682870162000c40565b925050604062000cd18682870162000c68565b9150509250925092565b6000806000806080858703121562000cf85762000cf762000c21565b5b600062000d088782880162000c40565b945050602062000d1b8782880162000c40565b935050604062000d2e8782880162000c40565b925050606062000d418782880162000c40565b91505092959194509250565b6000806040838503121562000d675762000d6662000c21565b5b600062000d778582860162000c40565b925050602062000d8a8582860162000c40565b9150509250929050565b7f4e487b7100000000000000000000000000000000000000000000000000000000600052602160045260246000fd5b6003811062000dd75762000dd662000d94565b5b50565b600081905062000dea8262000dc3565b919050565b600062000dfc8262000dda565b9050919050565b62000e0e8162000def565b82525050565b600060208201905062000e2b600083018462000e03565b92915050565b600073ffffffffffffffffffffffffffffffffffffffff82169050919050565b6000819050919050565b600062000e7c62000e7662000e708462000e31565b62000e51565b62000e31565b9050919050565b600062000e908262000e5b565b9050919050565b600062000ea48262000e83565b9050919050565b62000eb68162000e97565b82525050565b600060208201905062000ed3600083018462000eab565b92915050565b600060089050919050565b600081905092915050565b6000819050919050565b600060089050919050565b600081905092915050565b6000819050919050565b62000f248162000be9565b82525050565b600062000f38838362000f19565b60208301905092915050565b6000602082019050919050565b62000f5c8162000ef9565b62000f68818462000f04565b925062000f758262000f0f565b8060005b8381101562000fac57815162000f90878262000f2a565b965062000f9d8362000f44565b92505060018101905062000f79565b505050505050565b600062000fc2838362000f51565b6101008301905092915050565b6000602082019050919050565b62000fe78162000ed9565b62000ff3818462000ee4565b9250620010008262000eef565b8060005b83811015620010375781516200101b878262000fb4565b9650620010288362000fcf565b92505060018101905062001004565b505050505050565b60006108008201905062001057600083018462000fdc565b92915050565b600081519050919050565b600082825260208201905092915050565b6000819050602082019050919050565b6000602082019050919050565b6000620010a3826200105d565b620010af818562001068565b9350620010bc8362001079565b8060005b83811015620010f3578151620010d7888262000f2a565b9750620010e48362001089565b925050600181019050620010c0565b5085935050505092915050565b600060208201905081810360008301526200111c818462001096565b905092915050565b7f4e487b7100000000000000000000000000000000000000000000000000000000600052603260045260246000fd5b60008115159050919050565b6200116a8162001153565b81146200117657600080fd5b50565b6000815190506200118a816200115f565b92915050565b600060208284031215620011a957620011a862000c21565b5b6000620011b98482850162001179565b91505092915050565b600081519050620011d38162000c57565b92915050565b600060208284031215620011f257620011f162000c21565b5b60006200120284828501620011c2565b91505092915050565b7f4e487b7100000000000000000000000000000000000000000000000000000000600052601160045260246000fd5b6000620012478262000be9565b91507fffffffffffffffffffffffffffffffffffffffffffffffffffffffffffffffff82036200127c576200127b6200120b565b5b600182019050919050565b6000620012948262000be9565b9150620012a18362000be9565b9250828202620012b18162000be9565b91508282048414831517620012cb57620012ca6200120b565b5b5092915050565b7f4e487b7100000000000000000000000000000000000000000000000000000000600052604160045260246000fd5b60006200130e8262000be9565b91506200131b8362000be9565b92508282019050808211156200133657620013356200120b565b5b9291505056fe608060405260008060016101000a81548160ff021916908360018111156100295761002861008b565b5b021790555034801561003a57600080fd5b50604051610545380380610545833981810160405281019061005c91906100e4565b806000806101000a81548160ff021916908360028111156100805761007f61008b565b5b021790555050610111565b7f4e487b7100000000000000000000000000000000000000000000000000000000600052602160045260246000fd5b600080fd5b600381106100cc57600080fd5b50565b6000815190506100de816100bf565b92915050565b6000602082840312156100fa576100f96100ba565b5b6000610108848285016100cf565b91505092915050565b610425806101206000396000f3fe608060405234801561001057600080fd5b506004361061007d5760003560e01c806362a4b7781161005b57806362a4b778146100ee578063815eda8b1461010a578063d4bcc33c14610114578063ea602fa6146101325761007d565b806313eaac6c146100825780632d87286f146100a057806340e775f5146100d0575b600080fd5b61008a610150565b60405161009791906102e4565b60405180910390f35b6100ba60048036038101906100b59190610329565b610166565b6040516100c79190610371565b60405180910390f35b6100d86101b3565b6040516100e591906103d4565b60405180910390f35b61010860048036038101906101039190610329565b6101c6565b005b6101126101f2565b005b61011c61021f565b60405161012991906102e4565b60405180910390f35b61013a610230565b6040516101479190610371565b60405180910390f35b60008060009054906101000a900460ff16905090565b600081600281111561017b5761017a61026d565b5b60008054906101000a900460ff16600281111561019b5761019a61026d565b5b036101a957600190506101ae565b600090505b919050565b600060019054906101000a900460ff1681565b806000806101000a81548160ff021916908360028111156101ea576101e961026d565b5b021790555050565b6001600060016101000a81548160ff021916908360018111156102185761021761026d565b5b0217905550565b60008054906101000a900460ff1681565b60006001808111156102455761024461026d565b5b600060019054906101000a900460ff1660018111156102675761026661026d565b5b14905090565b7f4e487b7100000000000000000000000000000000000000000000000000000000600052602160045260246000fd5b600381106102ad576102ac61026d565b5b50565b60008190506102be8261029c565b919050565b60006102ce826102b0565b9050919050565b6102de816102c3565b82525050565b60006020820190506102f960008301846102d5565b92915050565b600080fd5b6003811061031157600080fd5b50565b60008135905061032381610304565b92915050565b60006020828403121561033f5761033e6102ff565b5b600061034d84828501610314565b91505092915050565b60008115159050919050565b61036b81610356565b82525050565b60006020820190506103866000830184610362565b92915050565b6002811061039d5761039c61026d565b5b50565b60008190506103ae8261038c565b919050565b60006103be826103a0565b9050919050565b6103ce816103b3565b82525050565b60006020820190506103e960008301846103c5565b9291505056fea2646970667358221220c91cc5c912682312e9b35cac59d7dee8b57bc01fd6ff27f1b702259de185515964736f6c63430008130033a26469706673582212201be5276fc534be87591ec951628a4c22ceba4cd555d431245b8252af30f6381b64736f6c63430008130033608060405260008060016101000a81548160ff021916908360018111156100295761002861008b565b5b021790555034801561003a57600080fd5b50604051610545380380610545833981810160405281019061005c91906100e4565b806000806101000a81548160ff021916908360028111156100805761007f61008b565b5b021790555050610111565b7f4e487b7100000000000000000000000000000000000000000000000000000000600052602160045260246000fd5b600080fd5b600381106100cc57600080fd5b50565b6000815190506100de816100bf565b92915050565b6000602082840312156100fa576100f96100ba565b5b6000610108848285016100cf565b91505092915050565b610425806101206000396000f3fe608060405234801561001057600080fd5b506004361061007d5760003560e01c806362a4b7781161005b57806362a4b778146100ee578063815eda8b1461010a578063d4bcc33c14610114578063ea602fa6146101325761007d565b806313eaac6c146100825780632d87286f146100a057806340e775f5146100d0575b600080fd5b61008a610150565b60405161009791906102e4565b60405180910390f35b6100ba60048036038101906100b59190610329565b610166565b6040516100c79190610371565b60405180910390f35b6100d86101b3565b6040516100e591906103d4565b60405180910390f35b61010860048036038101906101039190610329565b6101c6565b005b6101126101f2565b005b61011c61021f565b60405161012991906102e4565b60405180910390f35b61013a610230565b6040516101479190610371565b60405180910390f35b60008060009054906101000a900460ff16905090565b600081600281111561017b5761017a61026d565b5b60008054906101000a900460ff16600281111561019b5761019a61026d565b5b036101a957600190506101ae565b600090505b919050565b600060019054906101000a900460ff1681565b806000806101000a81548160ff021916908360028111156101ea576101e961026d565b5b021790555050565b6001600060016101000a81548160ff021916908360018111156102185761021761026d565b5b0217905550565b60008054906101000a900460ff1681565b60006001808111156102455761024461026d565b5b600060019054906101000a900460ff1660018111156102675761026661026d565b5b14905090565b7f4e487b7100000000000000000000000000000000000000000000000000000000600052602160045260246000fd5b600381106102ad576102ac61026d565b5b50565b60008190506102be8261029c565b919050565b60006102ce826102b0565b9050919050565b6102de816102c3565b82525050565b60006020820190506102f960008301846102d5565b92915050565b600080fd5b6003811061031157600080fd5b50565b60008135905061032381610304565b92915050565b60006020828403121561033f5761033e6102ff565b5b600061034d84828501610314565b91505092915050565b60008115159050919050565b61036b81610356565b82525050565b60006020820190506103866000830184610362565b92915050565b6002811061039d5761039c61026d565b5b50565b60008190506103ae8261038c565b919050565b60006103be826103a0565b9050919050565b6103ce816103b3565b82525050565b60006020820190506103e960008301846103c5565b9291505056fea2646970667358221220c91cc5c912682312e9b35cac59d7dee8b57bc01fd6ff27f1b702259de185515964736f6c63430008130033",
  "linkReferences": {},
  "deployedLinkReferences": {}
}