{
  "_format": "hh-sol-artifact-1",
  "contractName": "ColorGuess",
  "sourceName": "contracts/ColorGuess.sol",
  "abi": [
    {
      "inputs": [],
      "stateMutability": "nonpayable",
      "type": "constructor"
    },
    {
      "inputs": [],
      "name": "contractBalance",
      "outputs": [
        {
          "internalType": "uint256",
          "name": "",
          "type": "uint256"
        }
      ],
      "stateMutability": "view",
      "type": "function"
    },
    {
      "inputs": [],
      "name": "loadContractBalane",
      "outputs": [],
      "stateMutability": "payable",
      "type": "function"
    },
    {
      "inputs": [],
      "name": "losingWager",
      "outputs": [],
      "stateMutability": "nonpayable",
      "type": "function"
    },
    {
      "inputs": [
        {
          "internalType": "uint256",
          "name": "_difficulty",
          "type": "uint256"
        }
      ],
      "name": "payout",
      "outputs": [],
      "stateMutability": "nonpayable",
      "type": "function"
    },
    {
      "inputs": [
        {
          "internalType": "address",
          "name": "",
          "type": "address"
        }
      ],
      "name": "players",
      "outputs": [
        {
          "internalType": "address payable",
          "name": "id",
          "type": "address"
        },
        {
          "internalType": "uint256",
          "name": "wagerAmmount",
          "type": "uint256"
        },
        {
          "internalType": "bool",
          "name": "hasBet",
          "type": "bool"
        }
      ],
      "stateMutability": "view",
      "type": "function"
    },
    {
      "inputs": [],
      "name": "wager",
      "outputs": [],
      "stateMutability": "payable",
      "type": "function"
    }
  ],
  "bytecode": "0x608060405234801561001057600080fd5b50326000806101000a81548173ffffffffffffffffffffffffffffffffffffffff021916908373ffffffffffffffffffffffffffffffffffffffff160217905550610c77806100606000396000f3fe6080604052600436106100555760003560e01c8063667d5d221461005a578063853467f3146100645780638b7afe2e1461006e578063a5fe33f414610099578063e1152343146100b0578063e2eb41ff146100d9575b600080fd5b610062610118565b005b61006c61032e565b005b34801561007a57600080fd5b50610083610330565b60405161009091906107e0565b60405180910390f35b3480156100a557600080fd5b506100ae610338565b005b3480156100bc57600080fd5b506100d760048036038101906100d2919061082c565b6104cd565b005b3480156100e557600080fd5b5061010060048036038101906100fb91906108b7565b610770565b60405161010f93929190610920565b60405180910390f35b343373ffffffffffffffffffffffffffffffffffffffff16311015610172576040517f08c379a0000000000000000000000000000000000000000000000000000000008152600401610169906109da565b60405180910390fd5b600034116101b5576040517f08c379a00000000000000000000000000000000000000000000000000000000081526004016101ac90610a46565b60405180910390fd5b600160003373ffffffffffffffffffffffffffffffffffffffff1673ffffffffffffffffffffffffffffffffffffffff16815260200190815260200160002060020160009054906101000a900460ff1615610245576040517f08c379a000000000000000000000000000000000000000000000000000000000815260040161023c90610ab2565b60405180910390fd5b60405180606001604052803373ffffffffffffffffffffffffffffffffffffffff16815260200134815260200160011515815250600160003373ffffffffffffffffffffffffffffffffffffffff1673ffffffffffffffffffffffffffffffffffffffff16815260200190815260200160002060008201518160000160006101000a81548173ffffffffffffffffffffffffffffffffffffffff021916908373ffffffffffffffffffffffffffffffffffffffff1602179055506020820151816001015560408201518160020160006101000a81548160ff021916908315150217905550905050565b565b600047905090565b600160003373ffffffffffffffffffffffffffffffffffffffff1673ffffffffffffffffffffffffffffffffffffffff16815260200190815260200160002060020160009054906101000a900460ff166103c7576040517f08c379a00000000000000000000000000000000000000000000000000000000081526004016103be90610b1e565b60405180910390fd5b60008054906101000a900473ffffffffffffffffffffffffffffffffffffffff1673ffffffffffffffffffffffffffffffffffffffff166108fc600160003373ffffffffffffffffffffffffffffffffffffffff1673ffffffffffffffffffffffffffffffffffffffff168152602001908152602001600020600101549081150290604051600060405180830381858888f1935050505015801561046f573d6000803e3d6000fd5b506000600160003373ffffffffffffffffffffffffffffffffffffffff1673ffffffffffffffffffffffffffffffffffffffff16815260200190815260200160002060020160006101000a81548160ff021916908315150217905550565b600160003373ffffffffffffffffffffffffffffffffffffffff1673ffffffffffffffffffffffffffffffffffffffff16815260200190815260200160002060020160009054906101000a900460ff1661055c576040517f08c379a000000000000000000000000000000000000000000000000000000000815260040161055390610b1e565b60405180910390fd5b6000600160003373ffffffffffffffffffffffffffffffffffffffff1673ffffffffffffffffffffffffffffffffffffffff16815260200190815260200160002060010154116105e1576040517f08c379a00000000000000000000000000000000000000000000000000000000081526004016105d890610a46565b60405180910390fd5b6000811180156105f15750600581105b610630576040517f08c379a000000000000000000000000000000000000000000000000000000000815260040161062790610bb0565b60405180910390fd5b600081600160003373ffffffffffffffffffffffffffffffffffffffff1673ffffffffffffffffffffffffffffffffffffffff168152602001908152602001600020600101546106809190610bff565b90503373ffffffffffffffffffffffffffffffffffffffff166108fc829081150290604051600060405180830381858888f193505050501580156106c8573d6000803e3d6000fd5b506000600160003373ffffffffffffffffffffffffffffffffffffffff1673ffffffffffffffffffffffffffffffffffffffff16815260200190815260200160002060020160006101000a81548160ff0219169083151502179055506000600160003373ffffffffffffffffffffffffffffffffffffffff1673ffffffffffffffffffffffffffffffffffffffff168152602001908152602001600020600101819055505050565b60016020528060005260406000206000915090508060000160009054906101000a900473ffffffffffffffffffffffffffffffffffffffff16908060010154908060020160009054906101000a900460ff16905083565b6000819050919050565b6107da816107c7565b82525050565b60006020820190506107f560008301846107d1565b92915050565b600080fd5b610809816107c7565b811461081457600080fd5b50565b60008135905061082681610800565b92915050565b600060208284031215610842576108416107fb565b5b600061085084828501610817565b91505092915050565b600073ffffffffffffffffffffffffffffffffffffffff82169050919050565b600061088482610859565b9050919050565b61089481610879565b811461089f57600080fd5b50565b6000813590506108b18161088b565b92915050565b6000602082840312156108cd576108cc6107fb565b5b60006108db848285016108a2565b91505092915050565b60006108ef82610859565b9050919050565b6108ff816108e4565b82525050565b60008115159050919050565b61091a81610905565b82525050565b600060608201905061093560008301866108f6565b61094260208301856107d1565b61094f6040830184610911565b949350505050565b600082825260208201905092915050565b7f596f75206d757374206861766520656e6f7567682066756e647320746f20776160008201527f6765720000000000000000000000000000000000000000000000000000000000602082015250565b60006109c4602383610957565b91506109cf82610968565b604082019050919050565b600060208201905081810360008301526109f3816109b7565b9050919050565b7f596f75206d757374207761676572206d6f7265207468616e2030000000000000600082015250565b6000610a30601a83610957565b9150610a3b826109fa565b602082019050919050565b60006020820190508181036000830152610a5f81610a23565b9050919050565b7f596f75206861766520616c726561647920776167657265640000000000000000600082015250565b6000610a9c601883610957565b9150610aa782610a66565b602082019050919050565b60006020820190508181036000830152610acb81610a8f565b9050919050565b7f596f75206d7573742068617665207761676572656420746f20636f6c6c656374600082015250565b6000610b08602083610957565b9150610b1382610ad2565b602082019050919050565b60006020820190508181036000830152610b3781610afb565b9050919050565b7f446966666963756c7479206d7573742062652067726561746572207468616e2060008201527f3000000000000000000000000000000000000000000000000000000000000000602082015250565b6000610b9a602183610957565b9150610ba582610b3e565b604082019050919050565b60006020820190508181036000830152610bc981610b8d565b9050919050565b7f4e487b7100000000000000000000000000000000000000000000000000000000600052601160045260246000fd5b6000610c0a826107c7565b9150610c15836107c7565b9250828202610c23816107c7565b91508282048414831517610c3a57610c39610bd0565b5b509291505056fea2646970667358221220936b95df278f8dcd6978cfa00393c0768b1fda72084e9f77ec40ec4b76abec8b64736f6c63430008130033",
  "linkReferences": {},
  "deployedLinkReferences": {}
}