{
  "_format": "hh-sol-artifact-1",
  "contractName": "GameSuggestions",
  "sourceName": "contracts/GameSuggestions.sol",
  "abi": [
    {
      "inputs": [],
      "stateMutability": "nonpayable",
      "type": "constructor"
    },
    {
      "inputs": [
        {
          "internalType": "address",
          "name": "",
          "type": "address"
        }
      ],
      "name": "gameIdeas",
      "outputs": [
        {
          "internalType": "string",
          "name": "name",
          "type": "string"
        },
        {
          "internalType": "string",
          "name": "details",
          "type": "string"
        }
      ],
      "stateMutability": "view",
      "type": "function"
    },
    {
      "inputs": [],
      "name": "getGameIdeas",
      "outputs": [
        {
          "components": [
            {
              "internalType": "string",
              "name": "name",
              "type": "string"
            },
            {
              "internalType": "string",
              "name": "details",
              "type": "string"
            }
          ],
          "internalType": "struct GameSuggestions.GameIdea[]",
          "name": "",
          "type": "tuple[]"
        }
      ],
      "stateMutability": "view",
      "type": "function"
    },
    {
      "inputs": [],
      "name": "isOwner",
      "outputs": [
        {
          "internalType": "bool",
          "name": "",
          "type": "bool"
        }
      ],
      "stateMutability": "view",
      "type": "function"
    },
    {
      "inputs": [
        {
          "internalType": "string",
          "name": "_name",
          "type": "string"
        },
        {
          "internalType": "string",
          "name": "_details",
          "type": "string"
        }
      ],
      "name": "suggestGame",
      "outputs": [],
      "stateMutability": "nonpayable",
      "type": "function"
    }
  ],
  "bytecode": "0x608060405234801561001057600080fd5b50326000806101000a81548173ffffffffffffffffffffffffffffffffffffffff021916908373ffffffffffffffffffffffffffffffffffffffff16021790555061106f806100606000396000f3fe608060405234801561001057600080fd5b506004361061004c5760003560e01c80633b0941b3146100515780638f32d59b1461006d578063a2eabebe1461008b578063f52a1c05146100a9575b600080fd5b61006b60048036038101906100669190610857565b6100da565b005b610075610275565b60405161008291906108ea565b60405180910390f35b6100936102cc565b6040516100a09190610a8a565b60405180910390f35b6100c360048036038101906100be9190610b0a565b6104dd565b6040516100d1929190610b81565b60405180910390f35b6101196040518060400160405280600881526020017f47616d653a20257300000000000000000000000000000000000000000000000081525083610611565b6101586040518060400160405280600b81526020017f44657461696c733a20257300000000000000000000000000000000000000000081525082610611565b604051806040016040528083815260200182815250600160003373ffffffffffffffffffffffffffffffffffffffff1673ffffffffffffffffffffffffffffffffffffffff16815260200190815260200160002060008201518160000190816101c19190610dce565b5060208201518160010190816101d79190610dce565b509050506002600160003373ffffffffffffffffffffffffffffffffffffffff1673ffffffffffffffffffffffffffffffffffffffff1681526020019081526020016000209080600181540180825580915050600190039060005260206000209060020201600090919091909150600082018160000190816102599190610eb6565b506001820181600101908161026e9190610eb6565b5050505050565b60008060009054906101000a900473ffffffffffffffffffffffffffffffffffffffff1673ffffffffffffffffffffffffffffffffffffffff163373ffffffffffffffffffffffffffffffffffffffff1614905090565b606060008054906101000a900473ffffffffffffffffffffffffffffffffffffffff1673ffffffffffffffffffffffffffffffffffffffff163373ffffffffffffffffffffffffffffffffffffffff161461035c576040517f08c379a000000000000000000000000000000000000000000000000000000000815260040161035390610fea565b60405180910390fd5b6002805480602002602001604051908101604052809291908181526020016000905b828210156104d457838290600052602060002090600202016040518060400160405290816000820180546103b190610be7565b80601f01602080910402602001604051908101604052809291908181526020018280546103dd90610be7565b801561042a5780601f106103ff5761010080835404028352916020019161042a565b820191906000526020600020905b81548152906001019060200180831161040d57829003601f168201915b5050505050815260200160018201805461044390610be7565b80601f016020809104026020016040519081016040528092919081815260200182805461046f90610be7565b80156104bc5780601f10610491576101008083540402835291602001916104bc565b820191906000526020600020905b81548152906001019060200180831161049f57829003601f168201915b5050505050815250508152602001906001019061037e565b50505050905090565b600160205280600052604060002060009150905080600001805461050090610be7565b80601f016020809104026020016040519081016040528092919081815260200182805461052c90610be7565b80156105795780601f1061054e57610100808354040283529160200191610579565b820191906000526020600020905b81548152906001019060200180831161055c57829003601f168201915b50505050509080600101805461058e90610be7565b80601f01602080910402602001604051908101604052809291908181526020018280546105ba90610be7565b80156106075780601f106105dc57610100808354040283529160200191610607565b820191906000526020600020905b8154815290600101906020018083116105ea57829003601f168201915b5050505050905082565b6106a98282604051602401610627929190610b81565b6040516020818303038152906040527f4b5c4277000000000000000000000000000000000000000000000000000000007bffffffffffffffffffffffffffffffffffffffffffffffffffffffff19166020820180517bffffffffffffffffffffffffffffffffffffffffffffffffffffffff83818316178352505050506106ad565b5050565b6106c4816106bc6106c76106e8565b63ffffffff16565b50565b60006a636f6e736f6c652e6c6f679050600080835160208501845afa505050565b6106f3819050919050565b6106fb61100a565b565b6000604051905090565b600080fd5b600080fd5b600080fd5b600080fd5b6000601f19601f8301169050919050565b7f4e487b7100000000000000000000000000000000000000000000000000000000600052604160045260246000fd5b6107648261071b565b810181811067ffffffffffffffff821117156107835761078261072c565b5b80604052505050565b60006107966106fd565b90506107a2828261075b565b919050565b600067ffffffffffffffff8211156107c2576107c161072c565b5b6107cb8261071b565b9050602081019050919050565b82818337600083830152505050565b60006107fa6107f5846107a7565b61078c565b90508281526020810184848401111561081657610815610716565b5b6108218482856107d8565b509392505050565b600082601f83011261083e5761083d610711565b5b813561084e8482602086016107e7565b91505092915050565b6000806040838503121561086e5761086d610707565b5b600083013567ffffffffffffffff81111561088c5761088b61070c565b5b61089885828601610829565b925050602083013567ffffffffffffffff8111156108b9576108b861070c565b5b6108c585828601610829565b9150509250929050565b60008115159050919050565b6108e4816108cf565b82525050565b60006020820190506108ff60008301846108db565b92915050565b600081519050919050565b600082825260208201905092915050565b6000819050602082019050919050565b600081519050919050565b600082825260208201905092915050565b60005b8381101561096b578082015181840152602081019050610950565b60008484015250505050565b600061098282610931565b61098c818561093c565b935061099c81856020860161094d565b6109a58161071b565b840191505092915050565b600060408301600083015184820360008601526109cd8282610977565b915050602083015184820360208601526109e78282610977565b9150508091505092915050565b6000610a0083836109b0565b905092915050565b6000602082019050919050565b6000610a2082610905565b610a2a8185610910565b935083602082028501610a3c85610921565b8060005b85811015610a785784840389528151610a5985826109f4565b9450610a6483610a08565b925060208a01995050600181019050610a40565b50829750879550505050505092915050565b60006020820190508181036000830152610aa48184610a15565b905092915050565b600073ffffffffffffffffffffffffffffffffffffffff82169050919050565b6000610ad782610aac565b9050919050565b610ae781610acc565b8114610af257600080fd5b50565b600081359050610b0481610ade565b92915050565b600060208284031215610b2057610b1f610707565b5b6000610b2e84828501610af5565b91505092915050565b600082825260208201905092915050565b6000610b5382610931565b610b5d8185610b37565b9350610b6d81856020860161094d565b610b768161071b565b840191505092915050565b60006040820190508181036000830152610b9b8185610b48565b90508181036020830152610baf8184610b48565b90509392505050565b7f4e487b7100000000000000000000000000000000000000000000000000000000600052602260045260246000fd5b60006002820490506001821680610bff57607f821691505b602082108103610c1257610c11610bb8565b5b50919050565b60008190508160005260206000209050919050565b60006020601f8301049050919050565b600082821b905092915050565b600060088302610c7a7fffffffffffffffffffffffffffffffffffffffffffffffffffffffffffffffff82610c3d565b610c848683610c3d565b95508019841693508086168417925050509392505050565b6000819050919050565b6000819050919050565b6000610ccb610cc6610cc184610c9c565b610ca6565b610c9c565b9050919050565b6000819050919050565b610ce583610cb0565b610cf9610cf182610cd2565b848454610c4a565b825550505050565b600090565b610d0e610d01565b610d19818484610cdc565b505050565b5b81811015610d3d57610d32600082610d06565b600181019050610d1f565b5050565b601f821115610d8257610d5381610c18565b610d5c84610c2d565b81016020851015610d6b578190505b610d7f610d7785610c2d565b830182610d1e565b50505b505050565b600082821c905092915050565b6000610da560001984600802610d87565b1980831691505092915050565b6000610dbe8383610d94565b9150826002028217905092915050565b610dd782610931565b67ffffffffffffffff811115610df057610def61072c565b5b610dfa8254610be7565b610e05828285610d41565b600060209050601f831160018114610e385760008415610e26578287015190505b610e308582610db2565b865550610e98565b601f198416610e4686610c18565b60005b82811015610e6e57848901518255600182019150602085019450602081019050610e49565b86831015610e8b5784890151610e87601f891682610d94565b8355505b6001600288020188555050505b505050505050565b600081549050610eaf81610be7565b9050919050565b818103610ec4575050610f9c565b610ecd82610ea0565b67ffffffffffffffff811115610ee657610ee561072c565b5b610ef08254610be7565b610efb828285610d41565b6000601f831160018114610f2a5760008415610f18578287015490505b610f228582610db2565b865550610f95565b601f198416610f3887610c18565b9650610f4386610c18565b60005b82811015610f6b57848901548255600182019150600185019450602081019050610f46565b86831015610f885784890154610f84601f891682610d94565b8355505b6001600288020188555050505b5050505050505b565b7f4f6e6c7920746865206f776e65722063616e20646f2074686973000000000000600082015250565b6000610fd4601a83610b37565b9150610fdf82610f9e565b602082019050919050565b6000602082019050818103600083015261100381610fc7565b9050919050565b7f4e487b7100000000000000000000000000000000000000000000000000000000600052605160045260246000fdfea26469706673582212209d644c9fce7876f1844e8de5de76f04da6b4f166c219d72ffaf320858f9536d764736f6c63430008130033",
  "linkReferences": {},
  "deployedLinkReferences": {}
}