{
  "_format": "hh-sol-artifact-1",
  "contractName": "MainContract",
  "sourceName": "contracts/MainContract.sol",
  "abi": [
    {
      "inputs": [],
      "stateMutability": "nonpayable",
      "type": "constructor"
    },
    {
      "inputs": [
        {
          "internalType": "address",
          "name": "_sender",
          "type": "address"
        },
        {
          "internalType": "contract Game",
          "name": "game",
          "type": "address"
        }
      ],
      "name": "addColorGuessCurrentGame",
      "outputs": [],
      "stateMutability": "nonpayable",
      "type": "function"
    },
    {
      "inputs": [
        {
          "internalType": "contract Game",
          "name": "game",
          "type": "address"
        }
      ],
      "name": "addCurrentGame",
      "outputs": [],
      "stateMutability": "nonpayable",
      "type": "function"
    },
    {
      "inputs": [
        {
          "internalType": "address",
          "name": "admin",
          "type": "address"
        }
      ],
      "name": "addOwner",
      "outputs": [],
      "stateMutability": "nonpayable",
      "type": "function"
    },
    {
      "inputs": [
        {
          "internalType": "contract Game",
          "name": "game",
          "type": "address"
        }
      ],
      "name": "addPlayableGame",
      "outputs": [],
      "stateMutability": "nonpayable",
      "type": "function"
    },
    {
      "inputs": [
        {
          "internalType": "address",
          "name": "_player",
          "type": "address"
        }
      ],
      "name": "addPlayer",
      "outputs": [],
      "stateMutability": "nonpayable",
      "type": "function"
    },
    {
      "inputs": [],
      "name": "getCurrentGames",
      "outputs": [
        {
          "internalType": "contract Game[]",
          "name": "",
          "type": "address[]"
        }
      ],
      "stateMutability": "view",
      "type": "function"
    },
    {
      "inputs": [],
      "name": "getGamesPlayed",
      "outputs": [
        {
          "internalType": "contract Game[]",
          "name": "",
          "type": "address[]"
        }
      ],
      "stateMutability": "view",
      "type": "function"
    },
    {
      "inputs": [],
      "name": "getPlayerInfo",
      "outputs": [
        {
          "components": [
            {
              "internalType": "string",
              "name": "profilePicture",
              "type": "string"
            },
            {
              "internalType": "uint256",
              "name": "numGamesPlayed",
              "type": "uint256"
            },
            {
              "internalType": "uint256",
              "name": "numWins",
              "type": "uint256"
            },
            {
              "internalType": "contract Game",
              "name": "currentGame",
              "type": "address"
            },
            {
              "internalType": "bool",
              "name": "exists",
              "type": "bool"
            }
          ],
          "internalType": "struct MainContract.Player",
          "name": "",
          "type": "tuple"
        }
      ],
      "stateMutability": "view",
      "type": "function"
    },
    {
      "inputs": [
        {
          "internalType": "address",
          "name": "_sender",
          "type": "address"
        }
      ],
      "name": "removeColorGuessCurrentGame",
      "outputs": [],
      "stateMutability": "nonpayable",
      "type": "function"
    },
    {
      "inputs": [
        {
          "internalType": "contract Game",
          "name": "game",
          "type": "address"
        }
      ],
      "name": "removeCurrentGame",
      "outputs": [],
      "stateMutability": "nonpayable",
      "type": "function"
    },
    {
      "inputs": [
        {
          "internalType": "contract Game",
          "name": "game",
          "type": "address"
        }
      ],
      "name": "removeGame",
      "outputs": [],
      "stateMutability": "nonpayable",
      "type": "function"
    },
    {
      "inputs": [
        {
          "internalType": "string",
          "name": "_profilePicture",
          "type": "string"
        }
      ],
      "name": "setProfilePicture",
      "outputs": [],
      "stateMutability": "nonpayable",
      "type": "function"
    },
    {
      "inputs": [
        {
          "internalType": "uint256",
          "name": "_numGamesPlayed",
          "type": "uint256"
        },
        {
          "internalType": "uint256",
          "name": "_numWins",
          "type": "uint256"
        },
        {
          "internalType": "address",
          "name": "_address",
          "type": "address"
        }
      ],
      "name": "updatePlayer",
      "outputs": [],
      "stateMutability": "nonpayable",
      "type": "function"
    }
  ],
  "bytecode": "0x608060405234801561001057600080fd5b5060016000803273ffffffffffffffffffffffffffffffffffffffff1673ffffffffffffffffffffffffffffffffffffffff16815260200190815260200160002060006101000a81548160ff021916908315150217905550612148806100776000396000f3fe608060405234801561001057600080fd5b50600436106100ce5760003560e01c8063b1275f9a1161008c578063ca06a3f811610066578063ca06a3f8146101d1578063d1df81df146101ef578063e2225dfb1461020d578063f80a2cd614610229576100ce565b8063b1275f9a1461017d578063b904a8e514610199578063bce24669146101b5576100ce565b8062d88ee1146100d35780632a120b58146100ef578063326fac6e1461010b5780635e7e2f5b146101295780637065cb481461014557806376980a0214610161575b600080fd5b6100ed60048036038101906100e89190611744565b610245565b005b610109600480360381019061010491906117fd565b61032e565b005b610113610481565b6040516101209190611938565b60405180910390f35b610143600480360381019061013e91906117fd565b61050f565b005b61015f600480360381019061015a9190611986565b610607565b005b61017b600480360381019061017691906119b3565b6106f3565b005b61019760048036038101906101929190611986565b61083e565b005b6101b360048036038101906101ae9190611986565b610a3e565b005b6101cf60048036038101906101ca91906117fd565b610e26565b005b6101d9611001565b6040516101e69190611938565b60405180910390f35b6101f761108f565b6040516102049190611b1c565b60405180910390f35b61022760048036038101906102229190611b6a565b6111fd565b005b610243600480360381019061023e91906117fd565b61134a565b005b60011515600460003373ffffffffffffffffffffffffffffffffffffffff1673ffffffffffffffffffffffffffffffffffffffff16815260200190815260200160002060030160149054906101000a900460ff161515146102db576040517f08c379a00000000000000000000000000000000000000000000000000000000081526004016102d290611c1a565b60405180910390fd5b80600460003373ffffffffffffffffffffffffffffffffffffffff1673ffffffffffffffffffffffffffffffffffffffff168152602001908152602001600020600001908161032a9190611e3c565b5050565b60606000805b600280549050811015610460578373ffffffffffffffffffffffffffffffffffffffff166002828154811061036c5761036b611f0e565b5b9060005260206000200160009054906101000a900473ffffffffffffffffffffffffffffffffffffffff1673ffffffffffffffffffffffffffffffffffffffff161461044d57600281815481106103c6576103c5611f0e565b5b9060005260206000200160009054906101000a900473ffffffffffffffffffffffffffffffffffffffff1683838151811061040457610403611f0e565b5b602002602001019073ffffffffffffffffffffffffffffffffffffffff16908173ffffffffffffffffffffffffffffffffffffffff1681525050818061044990611f6c565b9250505b808061045890611f6c565b915050610334565b5081600290805190602001906104779291906114f2565b5060609150505050565b6060600280548060200260200160405190810160405280929190818152602001828054801561050557602002820191906000526020600020905b8160009054906101000a900473ffffffffffffffffffffffffffffffffffffffff1673ffffffffffffffffffffffffffffffffffffffff16815260200190600101908083116104bb575b5050505050905090565b600115156000803373ffffffffffffffffffffffffffffffffffffffff1673ffffffffffffffffffffffffffffffffffffffff16815260200190815260200160002060009054906101000a900460ff161515146105a1576040517f08c379a000000000000000000000000000000000000000000000000000000000815260040161059890612000565b60405180910390fd5b6003819080600181540180825580915050600190039060005260206000200160009091909190916101000a81548173ffffffffffffffffffffffffffffffffffffffff021916908373ffffffffffffffffffffffffffffffffffffffff16021790555050565b600115156000803373ffffffffffffffffffffffffffffffffffffffff1673ffffffffffffffffffffffffffffffffffffffff16815260200190815260200160002060009054906101000a900460ff16151514610699576040517f08c379a000000000000000000000000000000000000000000000000000000000815260040161069090612000565b60405180910390fd5b60016000808373ffffffffffffffffffffffffffffffffffffffff1673ffffffffffffffffffffffffffffffffffffffff16815260200190815260200160002060006101000a81548160ff02191690831515021790555050565b6002819080600181540180825580915050600190039060005260206000200160009091909190916101000a81548173ffffffffffffffffffffffffffffffffffffffff021916908373ffffffffffffffffffffffffffffffffffffffff1602179055506001819080600181540180825580915050600190039060005260206000200160009091909190916101000a81548173ffffffffffffffffffffffffffffffffffffffff021916908373ffffffffffffffffffffffffffffffffffffffff16021790555080600460008473ffffffffffffffffffffffffffffffffffffffff1673ffffffffffffffffffffffffffffffffffffffff16815260200190815260200160002060030160006101000a81548173ffffffffffffffffffffffffffffffffffffffff021916908373ffffffffffffffffffffffffffffffffffffffff1602179055505050565b60001515600460008373ffffffffffffffffffffffffffffffffffffffff1673ffffffffffffffffffffffffffffffffffffffff16815260200190815260200160002060030160149054906101000a900460ff161515036109fd576108d76040518060400160405280601081526020017f696e7369646520616464506c6179657200000000000000000000000000000000815250611413565b6040518060a001604052806040518060200160405280600081525081526020016000815260200160008152602001600073ffffffffffffffffffffffffffffffffffffffff16815260200160011515815250600460008373ffffffffffffffffffffffffffffffffffffffff1673ffffffffffffffffffffffffffffffffffffffff168152602001908152602001600020600082015181600001908161097d9190611e3c565b50602082015181600101556040820151816002015560608201518160030160006101000a81548173ffffffffffffffffffffffffffffffffffffffff021916908373ffffffffffffffffffffffffffffffffffffffff16021790555060808201518160030160146101000a81548160ff0219169083151502179055509050505b610a3b6040518060400160405280601181526020017f6f75747369646520616464506c61796572000000000000000000000000000000815250611413565b50565b600060028054905067ffffffffffffffff811115610a5f57610a5e611619565b5b604051908082528060200260200182016040528015610a8d5781602001602082028036833780820191505090505b50905060008060005b600280549050811015610c3757600460008673ffffffffffffffffffffffffffffffffffffffff1673ffffffffffffffffffffffffffffffffffffffff16815260200190815260200160002060030160009054906101000a900473ffffffffffffffffffffffffffffffffffffffff1673ffffffffffffffffffffffffffffffffffffffff1660028281548110610b3057610b2f611f0e565b5b9060005260206000200160009054906101000a900473ffffffffffffffffffffffffffffffffffffffff1673ffffffffffffffffffffffffffffffffffffffff1614610c155760028181548110610b8a57610b89611f0e565b5b9060005260206000200160009054906101000a900473ffffffffffffffffffffffffffffffffffffffff16848481518110610bc857610bc7611f0e565b5b602002602001019073ffffffffffffffffffffffffffffffffffffffff16908173ffffffffffffffffffffffffffffffffffffffff16815250508280610c0d90611f6c565b935050610c24565b8180610c2090611f6c565b9250505b8080610c2f90611f6c565b915050610a96565b50600081600280549050610c4b9190612020565b67ffffffffffffffff811115610c6457610c63611619565b5b604051908082528060200260200182016040528015610c925781602001602082028036833780820191505090505b5090506000925060005b8451811015610d7d57600073ffffffffffffffffffffffffffffffffffffffff16858281518110610cd057610ccf611f0e565b5b602002602001015173ffffffffffffffffffffffffffffffffffffffff1614610d6a57848181518110610d0657610d05611f0e565b5b6020026020010151828581518110610d2157610d20611f0e565b5b602002602001019073ffffffffffffffffffffffffffffffffffffffff16908173ffffffffffffffffffffffffffffffffffffffff16815250508380610d6690611f6c565b9450505b8080610d7590611f6c565b915050610c9c565b508060029080519060200190610d949291906114f2565b506000600460008773ffffffffffffffffffffffffffffffffffffffff1673ffffffffffffffffffffffffffffffffffffffff16815260200190815260200160002060030160006101000a81548173ffffffffffffffffffffffffffffffffffffffff021916908373ffffffffffffffffffffffffffffffffffffffff16021790555060609350606090505050505050565b600115156000803373ffffffffffffffffffffffffffffffffffffffff1673ffffffffffffffffffffffffffffffffffffffff16815260200190815260200160002060009054906101000a900460ff16151514610eb8576040517f08c379a0000000000000000000000000000000000000000000000000000000008152600401610eaf90612000565b60405180910390fd5b60005b600280549050811015610ffd578173ffffffffffffffffffffffffffffffffffffffff1660038281548110610ef357610ef2611f0e565b5b9060005260206000200160009054906101000a900473ffffffffffffffffffffffffffffffffffffffff1673ffffffffffffffffffffffffffffffffffffffff1603610fea5760036001600380549050610f4d9190612020565b81548110610f5e57610f5d611f0e565b5b9060005260206000200160009054906101000a900473ffffffffffffffffffffffffffffffffffffffff1660038281548110610f9d57610f9c611f0e565b5b9060005260206000200160006101000a81548173ffffffffffffffffffffffffffffffffffffffff021916908373ffffffffffffffffffffffffffffffffffffffff160217905550610ffd565b8080610ff590611f6c565b915050610ebb565b5050565b6060600180548060200260200160405190810160405280929190818152602001828054801561108557602002820191906000526020600020905b8160009054906101000a900473ffffffffffffffffffffffffffffffffffffffff1673ffffffffffffffffffffffffffffffffffffffff168152602001906001019080831161103b575b5050505050905090565b61109761157c565b600460003373ffffffffffffffffffffffffffffffffffffffff1673ffffffffffffffffffffffffffffffffffffffff1681526020019081526020016000206040518060a00160405290816000820180546110f190611c69565b80601f016020809104026020016040519081016040528092919081815260200182805461111d90611c69565b801561116a5780601f1061113f5761010080835404028352916020019161116a565b820191906000526020600020905b81548152906001019060200180831161114d57829003601f168201915b5050505050815260200160018201548152602001600282015481526020016003820160009054906101000a900473ffffffffffffffffffffffffffffffffffffffff1673ffffffffffffffffffffffffffffffffffffffff1673ffffffffffffffffffffffffffffffffffffffff1681526020016003820160149054906101000a900460ff161515151581525050905090565b60011515600460008373ffffffffffffffffffffffffffffffffffffffff1673ffffffffffffffffffffffffffffffffffffffff16815260200190815260200160002060030160149054906101000a900460ff16151514611293576040517f08c379a000000000000000000000000000000000000000000000000000000000815260040161128a90611c1a565b60405180910390fd5b82600460008373ffffffffffffffffffffffffffffffffffffffff1673ffffffffffffffffffffffffffffffffffffffff16815260200190815260200160002060010160008282546112e59190612054565b9250508190555081600460008373ffffffffffffffffffffffffffffffffffffffff1673ffffffffffffffffffffffffffffffffffffffff168152602001908152602001600020600201600082825461133e9190612054565b92505081905550505050565b6002819080600181540180825580915050600190039060005260206000200160009091909190916101000a81548173ffffffffffffffffffffffffffffffffffffffff021916908373ffffffffffffffffffffffffffffffffffffffff1602179055506001819080600181540180825580915050600190039060005260206000200160009091909190916101000a81548173ffffffffffffffffffffffffffffffffffffffff021916908373ffffffffffffffffffffffffffffffffffffffff16021790555050565b6114a98160405160240161142791906120c1565b6040516020818303038152906040527f41304fac000000000000000000000000000000000000000000000000000000007bffffffffffffffffffffffffffffffffffffffffffffffffffffffff19166020820180517bffffffffffffffffffffffffffffffffffffffffffffffffffffffff83818316178352505050506114ac565b50565b6114c3816114bb6114c66114e7565b63ffffffff16565b50565b60006a636f6e736f6c652e6c6f679050600080835160208501845afa505050565b6115c3819050919050565b82805482825590600052602060002090810192821561156b579160200282015b8281111561156a5782518260006101000a81548173ffffffffffffffffffffffffffffffffffffffff021916908373ffffffffffffffffffffffffffffffffffffffff16021790555091602001919060010190611512565b5b50905061157891906115cd565b5090565b6040518060a00160405280606081526020016000815260200160008152602001600073ffffffffffffffffffffffffffffffffffffffff1681526020016000151581525090565b6115cb6120e3565b565b5b808211156115e65760008160009055506001016115ce565b5090565b6000604051905090565b600080fd5b600080fd5b600080fd5b600080fd5b6000601f19601f8301169050919050565b7f4e487b7100000000000000000000000000000000000000000000000000000000600052604160045260246000fd5b61165182611608565b810181811067ffffffffffffffff821117156116705761166f611619565b5b80604052505050565b60006116836115ea565b905061168f8282611648565b919050565b600067ffffffffffffffff8211156116af576116ae611619565b5b6116b882611608565b9050602081019050919050565b82818337600083830152505050565b60006116e76116e284611694565b611679565b90508281526020810184848401111561170357611702611603565b5b61170e8482856116c5565b509392505050565b600082601f83011261172b5761172a6115fe565b5b813561173b8482602086016116d4565b91505092915050565b60006020828403121561175a576117596115f4565b5b600082013567ffffffffffffffff811115611778576117776115f9565b5b61178484828501611716565b91505092915050565b600073ffffffffffffffffffffffffffffffffffffffff82169050919050565b60006117b88261178d565b9050919050565b60006117ca826117ad565b9050919050565b6117da816117bf565b81146117e557600080fd5b50565b6000813590506117f7816117d1565b92915050565b600060208284031215611813576118126115f4565b5b6000611821848285016117e8565b91505092915050565b600081519050919050565b600082825260208201905092915050565b6000819050602082019050919050565b6000819050919050565b600061187b6118766118718461178d565b611856565b61178d565b9050919050565b600061188d82611860565b9050919050565b600061189f82611882565b9050919050565b6118af81611894565b82525050565b60006118c183836118a6565b60208301905092915050565b6000602082019050919050565b60006118e58261182a565b6118ef8185611835565b93506118fa83611846565b8060005b8381101561192b57815161191288826118b5565b975061191d836118cd565b9250506001810190506118fe565b5085935050505092915050565b6000602082019050818103600083015261195281846118da565b905092915050565b611963816117ad565b811461196e57600080fd5b50565b6000813590506119808161195a565b92915050565b60006020828403121561199c5761199b6115f4565b5b60006119aa84828501611971565b91505092915050565b600080604083850312156119ca576119c96115f4565b5b60006119d885828601611971565b92505060206119e9858286016117e8565b9150509250929050565b600081519050919050565b600082825260208201905092915050565b60005b83811015611a2d578082015181840152602081019050611a12565b60008484015250505050565b6000611a44826119f3565b611a4e81856119fe565b9350611a5e818560208601611a0f565b611a6781611608565b840191505092915050565b6000819050919050565b611a8581611a72565b82525050565b60008115159050919050565b611aa081611a8b565b82525050565b600060a0830160008301518482036000860152611ac38282611a39565b9150506020830151611ad86020860182611a7c565b506040830151611aeb6040860182611a7c565b506060830151611afe60608601826118a6565b506080830151611b116080860182611a97565b508091505092915050565b60006020820190508181036000830152611b368184611aa6565b905092915050565b611b4781611a72565b8114611b5257600080fd5b50565b600081359050611b6481611b3e565b92915050565b600080600060608486031215611b8357611b826115f4565b5b6000611b9186828701611b55565b9350506020611ba286828701611b55565b9250506040611bb386828701611971565b9150509250925092565b600082825260208201905092915050565b7f506c6179657220646f6573206e6f742065786973740000000000000000000000600082015250565b6000611c04601583611bbd565b9150611c0f82611bce565b602082019050919050565b60006020820190508181036000830152611c3381611bf7565b9050919050565b7f4e487b7100000000000000000000000000000000000000000000000000000000600052602260045260246000fd5b60006002820490506001821680611c8157607f821691505b602082108103611c9457611c93611c3a565b5b50919050565b60008190508160005260206000209050919050565b60006020601f8301049050919050565b600082821b905092915050565b600060088302611cfc7fffffffffffffffffffffffffffffffffffffffffffffffffffffffffffffffff82611cbf565b611d068683611cbf565b95508019841693508086168417925050509392505050565b6000611d39611d34611d2f84611a72565b611856565b611a72565b9050919050565b6000819050919050565b611d5383611d1e565b611d67611d5f82611d40565b848454611ccc565b825550505050565b600090565b611d7c611d6f565b611d87818484611d4a565b505050565b5b81811015611dab57611da0600082611d74565b600181019050611d8d565b5050565b601f821115611df057611dc181611c9a565b611dca84611caf565b81016020851015611dd9578190505b611ded611de585611caf565b830182611d8c565b50505b505050565b600082821c905092915050565b6000611e1360001984600802611df5565b1980831691505092915050565b6000611e2c8383611e02565b9150826002028217905092915050565b611e45826119f3565b67ffffffffffffffff811115611e5e57611e5d611619565b5b611e688254611c69565b611e73828285611daf565b600060209050601f831160018114611ea65760008415611e94578287015190505b611e9e8582611e20565b865550611f06565b601f198416611eb486611c9a565b60005b82811015611edc57848901518255600182019150602085019450602081019050611eb7565b86831015611ef95784890151611ef5601f891682611e02565b8355505b6001600288020188555050505b505050505050565b7f4e487b7100000000000000000000000000000000000000000000000000000000600052603260045260246000fd5b7f4e487b7100000000000000000000000000000000000000000000000000000000600052601160045260246000fd5b6000611f7782611a72565b91507fffffffffffffffffffffffffffffffffffffffffffffffffffffffffffffffff8203611fa957611fa8611f3d565b5b600182019050919050565b7f4f6e6c7920746865206f776e65722063616e20646f2074686973000000000000600082015250565b6000611fea601a83611bbd565b9150611ff582611fb4565b602082019050919050565b6000602082019050818103600083015261201981611fdd565b9050919050565b600061202b82611a72565b915061203683611a72565b925082820390508181111561204e5761204d611f3d565b5b92915050565b600061205f82611a72565b915061206a83611a72565b925082820190508082111561208257612081611f3d565b5b92915050565b6000612093826119f3565b61209d8185611bbd565b93506120ad818560208601611a0f565b6120b681611608565b840191505092915050565b600060208201905081810360008301526120db8184612088565b905092915050565b7f4e487b7100000000000000000000000000000000000000000000000000000000600052605160045260246000fdfea2646970667358221220c3545251421158aedd3afb1ce4424e1975f963c211e49895102108701e48f04b64736f6c63430008130033",
  "linkReferences": {},
  "deployedLinkReferences": {}
}