{
  "_format": "hh-sol-artifact-1",
  "contractName": "MainContract",
  "sourceName": "contracts/MainContract.sol",
  "abi": [
    {
      "inputs": [],
      "stateMutability": "nonpayable",
      "type": "constructor"
    },
    {
      "inputs": [
        {
          "internalType": "address",
          "name": "_sender",
          "type": "address"
        },
        {
          "internalType": "contract Game",
          "name": "game",
          "type": "address"
        }
      ],
      "name": "addColorGuessCurrentGame",
      "outputs": [],
      "stateMutability": "nonpayable",
      "type": "function"
    },
    {
      "inputs": [
        {
          "internalType": "contract Game",
          "name": "game",
          "type": "address"
        }
      ],
      "name": "addCurrentGame",
      "outputs": [],
      "stateMutability": "nonpayable",
      "type": "function"
    },
    {
      "inputs": [
        {
          "internalType": "address",
          "name": "admin",
          "type": "address"
        }
      ],
      "name": "addOwner",
      "outputs": [],
      "stateMutability": "nonpayable",
      "type": "function"
    },
    {
      "inputs": [
        {
          "internalType": "contract Game",
          "name": "game",
          "type": "address"
        }
      ],
      "name": "addPlayableGame",
      "outputs": [],
      "stateMutability": "nonpayable",
      "type": "function"
    },
    {
      "inputs": [
        {
          "internalType": "address",
          "name": "_player",
          "type": "address"
        }
      ],
      "name": "addPlayer",
      "outputs": [],
      "stateMutability": "nonpayable",
      "type": "function"
    },
    {
      "inputs": [],
      "name": "getCurrentGames",
      "outputs": [
        {
          "internalType": "contract Game[]",
          "name": "",
          "type": "address[]"
        }
      ],
      "stateMutability": "view",
      "type": "function"
    },
    {
      "inputs": [],
      "name": "getPlayerInfo",
      "outputs": [
        {
          "components": [
            {
              "internalType": "string",
              "name": "profilePicture",
              "type": "string"
            },
            {
              "internalType": "uint256",
              "name": "numGamesPlayed",
              "type": "uint256"
            },
            {
              "internalType": "uint256",
              "name": "numWins",
              "type": "uint256"
            },
            {
              "internalType": "contract Game",
              "name": "currentGame",
              "type": "address"
            },
            {
              "internalType": "bool",
              "name": "exists",
              "type": "bool"
            }
          ],
          "internalType": "struct MainContract.Player",
          "name": "",
          "type": "tuple"
        }
      ],
      "stateMutability": "view",
      "type": "function"
    },
    {
      "inputs": [
        {
          "internalType": "address",
          "name": "_sender",
          "type": "address"
        }
      ],
      "name": "removeColorGuessCurrentGame",
      "outputs": [],
      "stateMutability": "nonpayable",
      "type": "function"
    },
    {
      "inputs": [
        {
          "internalType": "contract Game",
          "name": "game",
          "type": "address"
        }
      ],
      "name": "removeCurrentGame",
      "outputs": [],
      "stateMutability": "nonpayable",
      "type": "function"
    },
    {
      "inputs": [
        {
          "internalType": "contract Game",
          "name": "game",
          "type": "address"
        }
      ],
      "name": "removeGame",
      "outputs": [],
      "stateMutability": "nonpayable",
      "type": "function"
    },
    {
      "inputs": [
        {
          "internalType": "string",
          "name": "_profilePicture",
          "type": "string"
        }
      ],
      "name": "setProfilePicture",
      "outputs": [],
      "stateMutability": "nonpayable",
      "type": "function"
    },
    {
      "inputs": [
        {
          "internalType": "uint256",
          "name": "_numGamesPlayed",
          "type": "uint256"
        },
        {
          "internalType": "uint256",
          "name": "_numWins",
          "type": "uint256"
        },
        {
          "internalType": "address",
          "name": "_address",
          "type": "address"
        }
      ],
      "name": "updatePlayer",
      "outputs": [],
      "stateMutability": "nonpayable",
      "type": "function"
    }
  ],
  "bytecode": "0x608060405234801561001057600080fd5b5060016000803273ffffffffffffffffffffffffffffffffffffffff1673ffffffffffffffffffffffffffffffffffffffff16815260200190815260200160002060006101000a81548160ff021916908315150217905550612081806100776000396000f3fe608060405234801561001057600080fd5b50600436106100b35760003560e01c8063b1275f9a11610071578063b1275f9a14610162578063b904a8e51461017e578063bce246691461019a578063d1df81df146101b6578063e2225dfb146101d4578063f80a2cd6146101f0576100b3565b8062d88ee1146100b85780632a120b58146100d4578063326fac6e146100f05780635e7e2f5b1461010e5780637065cb481461012a57806376980a0214610146575b600080fd5b6100d260048036038101906100cd919061167d565b61020c565b005b6100ee60048036038101906100e99190611736565b6102f5565b005b6100f8610448565b6040516101059190611871565b60405180910390f35b61012860048036038101906101239190611736565b6104d6565b005b610144600480360381019061013f91906118bf565b6105ce565b005b610160600480360381019061015b91906118ec565b6106ba565b005b61017c600480360381019061017791906118bf565b610805565b005b610198600480360381019061019391906118bf565b610a05565b005b6101b460048036038101906101af9190611736565b610ded565b005b6101be610fc8565b6040516101cb9190611a55565b60405180910390f35b6101ee60048036038101906101e99190611aa3565b611136565b005b61020a60048036038101906102059190611736565b611283565b005b60011515600460003373ffffffffffffffffffffffffffffffffffffffff1673ffffffffffffffffffffffffffffffffffffffff16815260200190815260200160002060030160149054906101000a900460ff161515146102a2576040517f08c379a000000000000000000000000000000000000000000000000000000000815260040161029990611b53565b60405180910390fd5b80600460003373ffffffffffffffffffffffffffffffffffffffff1673ffffffffffffffffffffffffffffffffffffffff16815260200190815260200160002060000190816102f19190611d75565b5050565b60606000805b600280549050811015610427578373ffffffffffffffffffffffffffffffffffffffff166002828154811061033357610332611e47565b5b9060005260206000200160009054906101000a900473ffffffffffffffffffffffffffffffffffffffff1673ffffffffffffffffffffffffffffffffffffffff1614610414576002818154811061038d5761038c611e47565b5b9060005260206000200160009054906101000a900473ffffffffffffffffffffffffffffffffffffffff168383815181106103cb576103ca611e47565b5b602002602001019073ffffffffffffffffffffffffffffffffffffffff16908173ffffffffffffffffffffffffffffffffffffffff1681525050818061041090611ea5565b9250505b808061041f90611ea5565b9150506102fb565b50816002908051906020019061043e92919061142b565b5060609150505050565b606060028054806020026020016040519081016040528092919081815260200182805480156104cc57602002820191906000526020600020905b8160009054906101000a900473ffffffffffffffffffffffffffffffffffffffff1673ffffffffffffffffffffffffffffffffffffffff1681526020019060010190808311610482575b5050505050905090565b600115156000803373ffffffffffffffffffffffffffffffffffffffff1673ffffffffffffffffffffffffffffffffffffffff16815260200190815260200160002060009054906101000a900460ff16151514610568576040517f08c379a000000000000000000000000000000000000000000000000000000000815260040161055f90611f39565b60405180910390fd5b6003819080600181540180825580915050600190039060005260206000200160009091909190916101000a81548173ffffffffffffffffffffffffffffffffffffffff021916908373ffffffffffffffffffffffffffffffffffffffff16021790555050565b600115156000803373ffffffffffffffffffffffffffffffffffffffff1673ffffffffffffffffffffffffffffffffffffffff16815260200190815260200160002060009054906101000a900460ff16151514610660576040517f08c379a000000000000000000000000000000000000000000000000000000000815260040161065790611f39565b60405180910390fd5b60016000808373ffffffffffffffffffffffffffffffffffffffff1673ffffffffffffffffffffffffffffffffffffffff16815260200190815260200160002060006101000a81548160ff02191690831515021790555050565b6002819080600181540180825580915050600190039060005260206000200160009091909190916101000a81548173ffffffffffffffffffffffffffffffffffffffff021916908373ffffffffffffffffffffffffffffffffffffffff1602179055506001819080600181540180825580915050600190039060005260206000200160009091909190916101000a81548173ffffffffffffffffffffffffffffffffffffffff021916908373ffffffffffffffffffffffffffffffffffffffff16021790555080600460008473ffffffffffffffffffffffffffffffffffffffff1673ffffffffffffffffffffffffffffffffffffffff16815260200190815260200160002060030160006101000a81548173ffffffffffffffffffffffffffffffffffffffff021916908373ffffffffffffffffffffffffffffffffffffffff1602179055505050565b60001515600460008373ffffffffffffffffffffffffffffffffffffffff1673ffffffffffffffffffffffffffffffffffffffff16815260200190815260200160002060030160149054906101000a900460ff161515036109c45761089e6040518060400160405280601081526020017f696e7369646520616464506c617965720000000000000000000000000000000081525061134c565b6040518060a001604052806040518060200160405280600081525081526020016000815260200160008152602001600073ffffffffffffffffffffffffffffffffffffffff16815260200160011515815250600460008373ffffffffffffffffffffffffffffffffffffffff1673ffffffffffffffffffffffffffffffffffffffff16815260200190815260200160002060008201518160000190816109449190611d75565b50602082015181600101556040820151816002015560608201518160030160006101000a81548173ffffffffffffffffffffffffffffffffffffffff021916908373ffffffffffffffffffffffffffffffffffffffff16021790555060808201518160030160146101000a81548160ff0219169083151502179055509050505b610a026040518060400160405280601181526020017f6f75747369646520616464506c6179657200000000000000000000000000000081525061134c565b50565b600060028054905067ffffffffffffffff811115610a2657610a25611552565b5b604051908082528060200260200182016040528015610a545781602001602082028036833780820191505090505b50905060008060005b600280549050811015610bfe57600460008673ffffffffffffffffffffffffffffffffffffffff1673ffffffffffffffffffffffffffffffffffffffff16815260200190815260200160002060030160009054906101000a900473ffffffffffffffffffffffffffffffffffffffff1673ffffffffffffffffffffffffffffffffffffffff1660028281548110610af757610af6611e47565b5b9060005260206000200160009054906101000a900473ffffffffffffffffffffffffffffffffffffffff1673ffffffffffffffffffffffffffffffffffffffff1614610bdc5760028181548110610b5157610b50611e47565b5b9060005260206000200160009054906101000a900473ffffffffffffffffffffffffffffffffffffffff16848481518110610b8f57610b8e611e47565b5b602002602001019073ffffffffffffffffffffffffffffffffffffffff16908173ffffffffffffffffffffffffffffffffffffffff16815250508280610bd490611ea5565b935050610beb565b8180610be790611ea5565b9250505b8080610bf690611ea5565b915050610a5d565b50600081600280549050610c129190611f59565b67ffffffffffffffff811115610c2b57610c2a611552565b5b604051908082528060200260200182016040528015610c595781602001602082028036833780820191505090505b5090506000925060005b8451811015610d4457600073ffffffffffffffffffffffffffffffffffffffff16858281518110610c9757610c96611e47565b5b602002602001015173ffffffffffffffffffffffffffffffffffffffff1614610d3157848181518110610ccd57610ccc611e47565b5b6020026020010151828581518110610ce857610ce7611e47565b5b602002602001019073ffffffffffffffffffffffffffffffffffffffff16908173ffffffffffffffffffffffffffffffffffffffff16815250508380610d2d90611ea5565b9450505b8080610d3c90611ea5565b915050610c63565b508060029080519060200190610d5b92919061142b565b506000600460008773ffffffffffffffffffffffffffffffffffffffff1673ffffffffffffffffffffffffffffffffffffffff16815260200190815260200160002060030160006101000a81548173ffffffffffffffffffffffffffffffffffffffff021916908373ffffffffffffffffffffffffffffffffffffffff16021790555060609350606090505050505050565b600115156000803373ffffffffffffffffffffffffffffffffffffffff1673ffffffffffffffffffffffffffffffffffffffff16815260200190815260200160002060009054906101000a900460ff16151514610e7f576040517f08c379a0000000000000000000000000000000000000000000000000000000008152600401610e7690611f39565b60405180910390fd5b60005b600280549050811015610fc4578173ffffffffffffffffffffffffffffffffffffffff1660038281548110610eba57610eb9611e47565b5b9060005260206000200160009054906101000a900473ffffffffffffffffffffffffffffffffffffffff1673ffffffffffffffffffffffffffffffffffffffff1603610fb15760036001600380549050610f149190611f59565b81548110610f2557610f24611e47565b5b9060005260206000200160009054906101000a900473ffffffffffffffffffffffffffffffffffffffff1660038281548110610f6457610f63611e47565b5b9060005260206000200160006101000a81548173ffffffffffffffffffffffffffffffffffffffff021916908373ffffffffffffffffffffffffffffffffffffffff160217905550610fc4565b8080610fbc90611ea5565b915050610e82565b5050565b610fd06114b5565b600460003373ffffffffffffffffffffffffffffffffffffffff1673ffffffffffffffffffffffffffffffffffffffff1681526020019081526020016000206040518060a001604052908160008201805461102a90611ba2565b80601f016020809104026020016040519081016040528092919081815260200182805461105690611ba2565b80156110a35780601f10611078576101008083540402835291602001916110a3565b820191906000526020600020905b81548152906001019060200180831161108657829003601f168201915b5050505050815260200160018201548152602001600282015481526020016003820160009054906101000a900473ffffffffffffffffffffffffffffffffffffffff1673ffffffffffffffffffffffffffffffffffffffff1673ffffffffffffffffffffffffffffffffffffffff1681526020016003820160149054906101000a900460ff161515151581525050905090565b60011515600460008373ffffffffffffffffffffffffffffffffffffffff1673ffffffffffffffffffffffffffffffffffffffff16815260200190815260200160002060030160149054906101000a900460ff161515146111cc576040517f08c379a00000000000000000000000000000000000000000000000000000000081526004016111c390611b53565b60405180910390fd5b82600460008373ffffffffffffffffffffffffffffffffffffffff1673ffffffffffffffffffffffffffffffffffffffff168152602001908152602001600020600101600082825461121e9190611f8d565b9250508190555081600460008373ffffffffffffffffffffffffffffffffffffffff1673ffffffffffffffffffffffffffffffffffffffff16815260200190815260200160002060020160008282546112779190611f8d565b92505081905550505050565b6002819080600181540180825580915050600190039060005260206000200160009091909190916101000a81548173ffffffffffffffffffffffffffffffffffffffff021916908373ffffffffffffffffffffffffffffffffffffffff1602179055506001819080600181540180825580915050600190039060005260206000200160009091909190916101000a81548173ffffffffffffffffffffffffffffffffffffffff021916908373ffffffffffffffffffffffffffffffffffffffff16021790555050565b6113e2816040516024016113609190611ffa565b6040516020818303038152906040527f41304fac000000000000000000000000000000000000000000000000000000007bffffffffffffffffffffffffffffffffffffffffffffffffffffffff19166020820180517bffffffffffffffffffffffffffffffffffffffffffffffffffffffff83818316178352505050506113e5565b50565b6113fc816113f46113ff611420565b63ffffffff16565b50565b60006a636f6e736f6c652e6c6f679050600080835160208501845afa505050565b6114fc819050919050565b8280548282559060005260206000209081019282156114a4579160200282015b828111156114a35782518260006101000a81548173ffffffffffffffffffffffffffffffffffffffff021916908373ffffffffffffffffffffffffffffffffffffffff1602179055509160200191906001019061144b565b5b5090506114b19190611506565b5090565b6040518060a00160405280606081526020016000815260200160008152602001600073ffffffffffffffffffffffffffffffffffffffff1681526020016000151581525090565b61150461201c565b565b5b8082111561151f576000816000905550600101611507565b5090565b6000604051905090565b600080fd5b600080fd5b600080fd5b600080fd5b6000601f19601f8301169050919050565b7f4e487b7100000000000000000000000000000000000000000000000000000000600052604160045260246000fd5b61158a82611541565b810181811067ffffffffffffffff821117156115a9576115a8611552565b5b80604052505050565b60006115bc611523565b90506115c88282611581565b919050565b600067ffffffffffffffff8211156115e8576115e7611552565b5b6115f182611541565b9050602081019050919050565b82818337600083830152505050565b600061162061161b846115cd565b6115b2565b90508281526020810184848401111561163c5761163b61153c565b5b6116478482856115fe565b509392505050565b600082601f83011261166457611663611537565b5b813561167484826020860161160d565b91505092915050565b6000602082840312156116935761169261152d565b5b600082013567ffffffffffffffff8111156116b1576116b0611532565b5b6116bd8482850161164f565b91505092915050565b600073ffffffffffffffffffffffffffffffffffffffff82169050919050565b60006116f1826116c6565b9050919050565b6000611703826116e6565b9050919050565b611713816116f8565b811461171e57600080fd5b50565b6000813590506117308161170a565b92915050565b60006020828403121561174c5761174b61152d565b5b600061175a84828501611721565b91505092915050565b600081519050919050565b600082825260208201905092915050565b6000819050602082019050919050565b6000819050919050565b60006117b46117af6117aa846116c6565b61178f565b6116c6565b9050919050565b60006117c682611799565b9050919050565b60006117d8826117bb565b9050919050565b6117e8816117cd565b82525050565b60006117fa83836117df565b60208301905092915050565b6000602082019050919050565b600061181e82611763565b611828818561176e565b93506118338361177f565b8060005b8381101561186457815161184b88826117ee565b975061185683611806565b925050600181019050611837565b5085935050505092915050565b6000602082019050818103600083015261188b8184611813565b905092915050565b61189c816116e6565b81146118a757600080fd5b50565b6000813590506118b981611893565b92915050565b6000602082840312156118d5576118d461152d565b5b60006118e3848285016118aa565b91505092915050565b600080604083850312156119035761190261152d565b5b6000611911858286016118aa565b925050602061192285828601611721565b9150509250929050565b600081519050919050565b600082825260208201905092915050565b60005b8381101561196657808201518184015260208101905061194b565b60008484015250505050565b600061197d8261192c565b6119878185611937565b9350611997818560208601611948565b6119a081611541565b840191505092915050565b6000819050919050565b6119be816119ab565b82525050565b60008115159050919050565b6119d9816119c4565b82525050565b600060a08301600083015184820360008601526119fc8282611972565b9150506020830151611a1160208601826119b5565b506040830151611a2460408601826119b5565b506060830151611a3760608601826117df565b506080830151611a4a60808601826119d0565b508091505092915050565b60006020820190508181036000830152611a6f81846119df565b905092915050565b611a80816119ab565b8114611a8b57600080fd5b50565b600081359050611a9d81611a77565b92915050565b600080600060608486031215611abc57611abb61152d565b5b6000611aca86828701611a8e565b9350506020611adb86828701611a8e565b9250506040611aec868287016118aa565b9150509250925092565b600082825260208201905092915050565b7f506c6179657220646f6573206e6f742065786973740000000000000000000000600082015250565b6000611b3d601583611af6565b9150611b4882611b07565b602082019050919050565b60006020820190508181036000830152611b6c81611b30565b9050919050565b7f4e487b7100000000000000000000000000000000000000000000000000000000600052602260045260246000fd5b60006002820490506001821680611bba57607f821691505b602082108103611bcd57611bcc611b73565b5b50919050565b60008190508160005260206000209050919050565b60006020601f8301049050919050565b600082821b905092915050565b600060088302611c357fffffffffffffffffffffffffffffffffffffffffffffffffffffffffffffffff82611bf8565b611c3f8683611bf8565b95508019841693508086168417925050509392505050565b6000611c72611c6d611c68846119ab565b61178f565b6119ab565b9050919050565b6000819050919050565b611c8c83611c57565b611ca0611c9882611c79565b848454611c05565b825550505050565b600090565b611cb5611ca8565b611cc0818484611c83565b505050565b5b81811015611ce457611cd9600082611cad565b600181019050611cc6565b5050565b601f821115611d2957611cfa81611bd3565b611d0384611be8565b81016020851015611d12578190505b611d26611d1e85611be8565b830182611cc5565b50505b505050565b600082821c905092915050565b6000611d4c60001984600802611d2e565b1980831691505092915050565b6000611d658383611d3b565b9150826002028217905092915050565b611d7e8261192c565b67ffffffffffffffff811115611d9757611d96611552565b5b611da18254611ba2565b611dac828285611ce8565b600060209050601f831160018114611ddf5760008415611dcd578287015190505b611dd78582611d59565b865550611e3f565b601f198416611ded86611bd3565b60005b82811015611e1557848901518255600182019150602085019450602081019050611df0565b86831015611e325784890151611e2e601f891682611d3b565b8355505b6001600288020188555050505b505050505050565b7f4e487b7100000000000000000000000000000000000000000000000000000000600052603260045260246000fd5b7f4e487b7100000000000000000000000000000000000000000000000000000000600052601160045260246000fd5b6000611eb0826119ab565b91507fffffffffffffffffffffffffffffffffffffffffffffffffffffffffffffffff8203611ee257611ee1611e76565b5b600182019050919050565b7f4f6e6c7920746865206f776e65722063616e20646f2074686973000000000000600082015250565b6000611f23601a83611af6565b9150611f2e82611eed565b602082019050919050565b60006020820190508181036000830152611f5281611f16565b9050919050565b6000611f64826119ab565b9150611f6f836119ab565b9250828203905081811115611f8757611f86611e76565b5b92915050565b6000611f98826119ab565b9150611fa3836119ab565b9250828201905080821115611fbb57611fba611e76565b5b92915050565b6000611fcc8261192c565b611fd68185611af6565b9350611fe6818560208601611948565b611fef81611541565b840191505092915050565b600060208201905081810360008301526120148184611fc1565b905092915050565b7f4e487b7100000000000000000000000000000000000000000000000000000000600052605160045260246000fdfea264697066735822122057fcce3962f78ddb1a145270f9b8adbe2efec8f6025a576629723b0d698a302b64736f6c63430008130033",
  "linkReferences": {},
  "deployedLinkReferences": {}
}