{
  "_format": "hh-sol-artifact-1",
  "contractName": "MainContract",
  "sourceName": "contracts/MainContract.sol",
  "abi": [
    {
      "inputs": [],
      "stateMutability": "nonpayable",
      "type": "constructor"
    },
    {
      "inputs": [
        {
          "internalType": "address",
          "name": "_sender",
          "type": "address"
        },
        {
          "internalType": "contract Game",
          "name": "game",
          "type": "address"
        }
      ],
      "name": "addColorGuessCurrentGame",
      "outputs": [],
      "stateMutability": "nonpayable",
      "type": "function"
    },
    {
      "inputs": [
        {
          "internalType": "contract Game",
          "name": "game",
          "type": "address"
        }
      ],
      "name": "addCurrentGame",
      "outputs": [],
      "stateMutability": "nonpayable",
      "type": "function"
    },
    {
      "inputs": [
        {
          "internalType": "address",
          "name": "admin",
          "type": "address"
        }
      ],
      "name": "addOwner",
      "outputs": [],
      "stateMutability": "nonpayable",
      "type": "function"
    },
    {
      "inputs": [
        {
          "internalType": "contract Game",
          "name": "game",
          "type": "address"
        }
      ],
      "name": "addPlayableGame",
      "outputs": [],
      "stateMutability": "nonpayable",
      "type": "function"
    },
    {
      "inputs": [
        {
          "internalType": "address",
          "name": "_player",
          "type": "address"
        }
      ],
      "name": "addPlayer",
      "outputs": [],
      "stateMutability": "nonpayable",
      "type": "function"
    },
    {
      "inputs": [],
      "name": "clearCurrentGames",
      "outputs": [],
      "stateMutability": "nonpayable",
      "type": "function"
    },
    {
      "inputs": [],
      "name": "getCurrentGames",
      "outputs": [
        {
          "internalType": "contract Game[]",
          "name": "",
          "type": "address[]"
        }
      ],
      "stateMutability": "view",
      "type": "function"
    },
    {
      "inputs": [],
      "name": "getGamesPlayed",
      "outputs": [
        {
          "internalType": "contract Game[]",
          "name": "",
          "type": "address[]"
        }
      ],
      "stateMutability": "view",
      "type": "function"
    },
    {
      "inputs": [],
      "name": "getPlayerInfo",
      "outputs": [
        {
          "components": [
            {
              "internalType": "address",
              "name": "id",
              "type": "address"
            },
            {
              "internalType": "string",
              "name": "profilePicture",
              "type": "string"
            },
            {
              "internalType": "uint256",
              "name": "numGamesPlayed",
              "type": "uint256"
            },
            {
              "internalType": "uint256",
              "name": "numWins",
              "type": "uint256"
            },
            {
              "internalType": "contract Game",
              "name": "currentGame",
              "type": "address"
            },
            {
              "internalType": "bool",
              "name": "exists",
              "type": "bool"
            }
          ],
          "internalType": "struct MainContract.Player",
          "name": "",
          "type": "tuple"
        }
      ],
      "stateMutability": "view",
      "type": "function"
    },
    {
      "inputs": [
        {
          "internalType": "address",
          "name": "_address",
          "type": "address"
        }
      ],
      "name": "getPlayerInfoAddress",
      "outputs": [
        {
          "components": [
            {
              "internalType": "address",
              "name": "id",
              "type": "address"
            },
            {
              "internalType": "string",
              "name": "profilePicture",
              "type": "string"
            },
            {
              "internalType": "uint256",
              "name": "numGamesPlayed",
              "type": "uint256"
            },
            {
              "internalType": "uint256",
              "name": "numWins",
              "type": "uint256"
            },
            {
              "internalType": "contract Game",
              "name": "currentGame",
              "type": "address"
            },
            {
              "internalType": "bool",
              "name": "exists",
              "type": "bool"
            }
          ],
          "internalType": "struct MainContract.Player",
          "name": "",
          "type": "tuple"
        }
      ],
      "stateMutability": "view",
      "type": "function"
    },
    {
      "inputs": [],
      "name": "getPlayerList",
      "outputs": [
        {
          "components": [
            {
              "internalType": "address",
              "name": "id",
              "type": "address"
            },
            {
              "internalType": "string",
              "name": "profilePicture",
              "type": "string"
            },
            {
              "internalType": "uint256",
              "name": "numGamesPlayed",
              "type": "uint256"
            },
            {
              "internalType": "uint256",
              "name": "numWins",
              "type": "uint256"
            },
            {
              "internalType": "contract Game",
              "name": "currentGame",
              "type": "address"
            },
            {
              "internalType": "bool",
              "name": "exists",
              "type": "bool"
            }
          ],
          "internalType": "struct MainContract.Player[]",
          "name": "",
          "type": "tuple[]"
        }
      ],
      "stateMutability": "view",
      "type": "function"
    },
    {
      "inputs": [
        {
          "internalType": "address",
          "name": "_sender",
          "type": "address"
        }
      ],
      "name": "removeCurrentGame",
      "outputs": [],
      "stateMutability": "nonpayable",
      "type": "function"
    },
    {
      "inputs": [
        {
          "internalType": "contract Game",
          "name": "game",
          "type": "address"
        }
      ],
      "name": "removeGame",
      "outputs": [],
      "stateMutability": "nonpayable",
      "type": "function"
    },
    {
      "inputs": [
        {
          "internalType": "string",
          "name": "_profilePicture",
          "type": "string"
        }
      ],
      "name": "setProfilePicture",
      "outputs": [],
      "stateMutability": "nonpayable",
      "type": "function"
    },
    {
      "inputs": [
        {
          "internalType": "uint256",
          "name": "_numGamesPlayed",
          "type": "uint256"
        },
        {
          "internalType": "uint256",
          "name": "_numWins",
          "type": "uint256"
        },
        {
          "internalType": "address",
          "name": "_address",
          "type": "address"
        }
      ],
      "name": "updatePlayer",
      "outputs": [],
      "stateMutability": "nonpayable",
      "type": "function"
    },
    {
      "inputs": [
        {
          "internalType": "address",
          "name": "_player",
          "type": "address"
        }
      ],
      "name": "updatePlayerList",
      "outputs": [],
      "stateMutability": "nonpayable",
      "type": "function"
    }
  ],
  "bytecode": "0x608060405234801561001057600080fd5b5060016000803273ffffffffffffffffffffffffffffffffffffffff1673ffffffffffffffffffffffffffffffffffffffff16815260200190815260200160002060006101000a81548160ff021916908315150217905550612ed2806100776000396000f3fe608060405234801561001057600080fd5b50600436106100ff5760003560e01c8063acea28a011610097578063ca06a3f811610066578063ca06a3f81461025a578063d1df81df14610278578063e2225dfb14610296578063f80a2cd6146102b2576100ff565b8063acea28a0146101e8578063b1275f9a14610218578063bce2466914610234578063c16c757e14610250576100ff565b80635e7e2f5b116100d35780635e7e2f5b1461017657806362a63e29146101925780637065cb48146101b057806376980a02146101cc576100ff565b8062d88ee1146101045780632a120b5814610120578063326fac6e1461013c5780634a53ef6a1461015a575b600080fd5b61011e6004803603810190610119919061229c565b6102ce565b005b61013a60048036038101906101359190612343565b6103b7565b005b61014461077b565b604051610151919061247e565b60405180910390f35b610174600480360381019061016f9190612343565b610809565b005b610190600480360381019061018b91906124de565b610ed8565b005b61019a610fd0565b6040516101a79190612718565b60405180910390f35b6101ca60048036038101906101c59190612343565b61119c565b005b6101e660048036038101906101e1919061273a565b611288565b005b61020260048036038101906101fd9190612343565b611475565b60405161020f9190612803565b60405180910390f35b610232600480360381019061022d9190612343565b61163b565b005b61024e600480360381019061024991906124de565b6119b2565b005b610258611b8d565b005b610262611c2f565b60405161026f919061247e565b60405180910390f35b610280611cbd565b60405161028d9190612803565b60405180910390f35b6102b060048036038101906102ab9190612851565b611e81565b005b6102cc60048036038101906102c791906124de565b611fd7565b005b60011515600460003373ffffffffffffffffffffffffffffffffffffffff1673ffffffffffffffffffffffffffffffffffffffff16815260200190815260200160002060040160149054906101000a900460ff16151514610364576040517f08c379a000000000000000000000000000000000000000000000000000000000815260040161035b90612901565b60405180910390fd5b80600460003373ffffffffffffffffffffffffffffffffffffffff1673ffffffffffffffffffffffffffffffffffffffff16815260200190815260200160002060010190816103b39190612b23565b5050565b6001600460008373ffffffffffffffffffffffffffffffffffffffff1673ffffffffffffffffffffffffffffffffffffffff16815260200190815260200160002060040160009054906101000a900473ffffffffffffffffffffffffffffffffffffffff169080600181540180825580915050600190039060005260206000200160009091909190916101000a81548173ffffffffffffffffffffffffffffffffffffffff021916908373ffffffffffffffffffffffffffffffffffffffff16021790555060005b6002805490508110156106f557600460008373ffffffffffffffffffffffffffffffffffffffff1673ffffffffffffffffffffffffffffffffffffffff16815260200190815260200160002060040160009054906101000a900473ffffffffffffffffffffffffffffffffffffffff1673ffffffffffffffffffffffffffffffffffffffff166002828154811061051957610518612bf5565b5b9060005260206000200160009054906101000a900473ffffffffffffffffffffffffffffffffffffffff1673ffffffffffffffffffffffffffffffffffffffff16036106e2576000600460008473ffffffffffffffffffffffffffffffffffffffff1673ffffffffffffffffffffffffffffffffffffffff16815260200190815260200160002060040160006101000a81548173ffffffffffffffffffffffffffffffffffffffff021916908373ffffffffffffffffffffffffffffffffffffffff1602179055506105ea82610809565b600260016002805490506105fe9190612c53565b8154811061060f5761060e612bf5565b5b9060005260206000200160009054906101000a900473ffffffffffffffffffffffffffffffffffffffff166002828154811061064e5761064d612bf5565b5b9060005260206000200160006101000a81548173ffffffffffffffffffffffffffffffffffffffff021916908373ffffffffffffffffffffffffffffffffffffffff16021790555060028054806106a8576106a7612c87565b5b6001900381819060005260206000200160006101000a81549073ffffffffffffffffffffffffffffffffffffffff021916905590556106f5565b80806106ed90612cb6565b91505061047f565b506000600460008373ffffffffffffffffffffffffffffffffffffffff1673ffffffffffffffffffffffffffffffffffffffff16815260200190815260200160002060040160006101000a81548173ffffffffffffffffffffffffffffffffffffffff021916908373ffffffffffffffffffffffffffffffffffffffff16021790555050565b606060028054806020026020016040519081016040528092919081815260200182805480156107ff57602002820191906000526020600020905b8160009054906101000a900473ffffffffffffffffffffffffffffffffffffffff1673ffffffffffffffffffffffffffffffffffffffff16815260200190600101908083116107b5575b5050505050905090565b60005b600580549050811015610a31578173ffffffffffffffffffffffffffffffffffffffff166005828154811061084457610843612bf5565b5b906000526020600020906005020160000160009054906101000a900473ffffffffffffffffffffffffffffffffffffffff1673ffffffffffffffffffffffffffffffffffffffff1603610a1e57600460008373ffffffffffffffffffffffffffffffffffffffff1673ffffffffffffffffffffffffffffffffffffffff168152602001908152602001600020600582815481106108e4576108e3612bf5565b5b90600052602060002090600502016000820160009054906101000a900473ffffffffffffffffffffffffffffffffffffffff168160000160006101000a81548173ffffffffffffffffffffffffffffffffffffffff021916908373ffffffffffffffffffffffffffffffffffffffff1602179055506001820181600101908161096d9190612d14565b5060028201548160020155600382015481600301556004820160009054906101000a900473ffffffffffffffffffffffffffffffffffffffff168160040160006101000a81548173ffffffffffffffffffffffffffffffffffffffff021916908373ffffffffffffffffffffffffffffffffffffffff1602179055506004820160149054906101000a900460ff168160040160146101000a81548160ff021916908315150217905550905050610a31565b8080610a2990612cb6565b91505061080c565b5060005b600580549050811015610ed45760005b600580549050811015610ec05760058181548110610a6657610a65612bf5565b5b90600052602060002090600502016003015460058381548110610a8c57610a8b612bf5565b5b9060005260206000209060050201600301541115610ead57600060058381548110610aba57610ab9612bf5565b5b90600052602060002090600502016040518060c00160405290816000820160009054906101000a900473ffffffffffffffffffffffffffffffffffffffff1673ffffffffffffffffffffffffffffffffffffffff1673ffffffffffffffffffffffffffffffffffffffff168152602001600182018054610b3990612950565b80601f0160208091040260200160405190810160405280929190818152602001828054610b6590612950565b8015610bb25780601f10610b8757610100808354040283529160200191610bb2565b820191906000526020600020905b815481529060010190602001808311610b9557829003601f168201915b5050505050815260200160028201548152602001600382015481526020016004820160009054906101000a900473ffffffffffffffffffffffffffffffffffffffff1673ffffffffffffffffffffffffffffffffffffffff1673ffffffffffffffffffffffffffffffffffffffff1681526020016004820160149054906101000a900460ff161515151581525050905060058281548110610c5657610c55612bf5565b5b906000526020600020906005020160058481548110610c7857610c77612bf5565b5b90600052602060002090600502016000820160009054906101000a900473ffffffffffffffffffffffffffffffffffffffff168160000160006101000a81548173ffffffffffffffffffffffffffffffffffffffff021916908373ffffffffffffffffffffffffffffffffffffffff16021790555060018201816001019081610d019190612d14565b5060028201548160020155600382015481600301556004820160009054906101000a900473ffffffffffffffffffffffffffffffffffffffff168160040160006101000a81548173ffffffffffffffffffffffffffffffffffffffff021916908373ffffffffffffffffffffffffffffffffffffffff1602179055506004820160149054906101000a900460ff168160040160146101000a81548160ff0219169083151502179055509050508060058381548110610dc257610dc1612bf5565b5b906000526020600020906005020160008201518160000160006101000a81548173ffffffffffffffffffffffffffffffffffffffff021916908373ffffffffffffffffffffffffffffffffffffffff1602179055506020820151816001019081610e2c9190612b23565b50604082015181600201556060820151816003015560808201518160040160006101000a81548173ffffffffffffffffffffffffffffffffffffffff021916908373ffffffffffffffffffffffffffffffffffffffff16021790555060a08201518160040160146101000a81548160ff021916908315150217905550905050505b8080610eb890612cb6565b915050610a45565b508080610ecc90612cb6565b915050610a35565b5050565b600115156000803373ffffffffffffffffffffffffffffffffffffffff1673ffffffffffffffffffffffffffffffffffffffff16815260200190815260200160002060009054906101000a900460ff16151514610f6a576040517f08c379a0000000000000000000000000000000000000000000000000000000008152600401610f6190612e48565b60405180910390fd5b6003819080600181540180825580915050600190039060005260206000200160009091909190916101000a81548173ffffffffffffffffffffffffffffffffffffffff021916908373ffffffffffffffffffffffffffffffffffffffff16021790555050565b60606005805480602002602001604051908101604052809291908181526020016000905b8282101561119357838290600052602060002090600502016040518060c00160405290816000820160009054906101000a900473ffffffffffffffffffffffffffffffffffffffff1673ffffffffffffffffffffffffffffffffffffffff1673ffffffffffffffffffffffffffffffffffffffff16815260200160018201805461107d90612950565b80601f01602080910402602001604051908101604052809291908181526020018280546110a990612950565b80156110f65780601f106110cb576101008083540402835291602001916110f6565b820191906000526020600020905b8154815290600101906020018083116110d957829003601f168201915b5050505050815260200160028201548152602001600382015481526020016004820160009054906101000a900473ffffffffffffffffffffffffffffffffffffffff1673ffffffffffffffffffffffffffffffffffffffff1673ffffffffffffffffffffffffffffffffffffffff1681526020016004820160149054906101000a900460ff16151515158152505081526020019060010190610ff4565b50505050905090565b600115156000803373ffffffffffffffffffffffffffffffffffffffff1673ffffffffffffffffffffffffffffffffffffffff16815260200190815260200160002060009054906101000a900460ff1615151461122e576040517f08c379a000000000000000000000000000000000000000000000000000000000815260040161122590612e48565b60405180910390fd5b60016000808373ffffffffffffffffffffffffffffffffffffffff1673ffffffffffffffffffffffffffffffffffffffff16815260200190815260200160002060006101000a81548160ff02191690831515021790555050565b6002819080600181540180825580915050600190039060005260206000200160009091909190916101000a81548173ffffffffffffffffffffffffffffffffffffffff021916908373ffffffffffffffffffffffffffffffffffffffff16021790555080600460008473ffffffffffffffffffffffffffffffffffffffff1673ffffffffffffffffffffffffffffffffffffffff16815260200190815260200160002060040160006101000a81548173ffffffffffffffffffffffffffffffffffffffff021916908373ffffffffffffffffffffffffffffffffffffffff16021790555060005b600580549050811015611470578273ffffffffffffffffffffffffffffffffffffffff16600582815481106113a7576113a6612bf5565b5b906000526020600020906005020160000160009054906101000a900473ffffffffffffffffffffffffffffffffffffffff1673ffffffffffffffffffffffffffffffffffffffff160361145d57816005828154811061140957611408612bf5565b5b906000526020600020906005020160040160006101000a81548173ffffffffffffffffffffffffffffffffffffffff021916908373ffffffffffffffffffffffffffffffffffffffff160217905550611470565b808061146890612cb6565b91505061136f565b505050565b61147d6120a0565b600460008373ffffffffffffffffffffffffffffffffffffffff1673ffffffffffffffffffffffffffffffffffffffff1681526020019081526020016000206040518060c00160405290816000820160009054906101000a900473ffffffffffffffffffffffffffffffffffffffff1673ffffffffffffffffffffffffffffffffffffffff1673ffffffffffffffffffffffffffffffffffffffff16815260200160018201805461152d90612950565b80601f016020809104026020016040519081016040528092919081815260200182805461155990612950565b80156115a65780601f1061157b576101008083540402835291602001916115a6565b820191906000526020600020905b81548152906001019060200180831161158957829003601f168201915b5050505050815260200160028201548152602001600382015481526020016004820160009054906101000a900473ffffffffffffffffffffffffffffffffffffffff1673ffffffffffffffffffffffffffffffffffffffff1673ffffffffffffffffffffffffffffffffffffffff1681526020016004820160149054906101000a900460ff1615151515815250509050919050565b60001515600460008373ffffffffffffffffffffffffffffffffffffffff1673ffffffffffffffffffffffffffffffffffffffff16815260200190815260200160002060040160149054906101000a900460ff161515036119af576040518060c001604052808273ffffffffffffffffffffffffffffffffffffffff1681526020016040518060200160405280600081525081526020016000815260200160008152602001600073ffffffffffffffffffffffffffffffffffffffff16815260200160011515815250600460008373ffffffffffffffffffffffffffffffffffffffff1673ffffffffffffffffffffffffffffffffffffffff16815260200190815260200160002060008201518160000160006101000a81548173ffffffffffffffffffffffffffffffffffffffff021916908373ffffffffffffffffffffffffffffffffffffffff160217905550602082015181600101908161179f9190612b23565b50604082015181600201556060820151816003015560808201518160040160006101000a81548173ffffffffffffffffffffffffffffffffffffffff021916908373ffffffffffffffffffffffffffffffffffffffff16021790555060a08201518160040160146101000a81548160ff0219169083151502179055509050506005600460008373ffffffffffffffffffffffffffffffffffffffff1673ffffffffffffffffffffffffffffffffffffffff16815260200190815260200160002090806001815401808255809150506001900390600052602060002090600502016000909190919091506000820160009054906101000a900473ffffffffffffffffffffffffffffffffffffffff168160000160006101000a81548173ffffffffffffffffffffffffffffffffffffffff021916908373ffffffffffffffffffffffffffffffffffffffff160217905550600182018160010190816119039190612d14565b5060028201548160020155600382015481600301556004820160009054906101000a900473ffffffffffffffffffffffffffffffffffffffff168160040160006101000a81548173ffffffffffffffffffffffffffffffffffffffff021916908373ffffffffffffffffffffffffffffffffffffffff1602179055506004820160149054906101000a900460ff168160040160146101000a81548160ff02191690831515021790555050505b50565b600115156000803373ffffffffffffffffffffffffffffffffffffffff1673ffffffffffffffffffffffffffffffffffffffff16815260200190815260200160002060009054906101000a900460ff16151514611a44576040517f08c379a0000000000000000000000000000000000000000000000000000000008152600401611a3b90612e48565b60405180910390fd5b60005b600280549050811015611b89578173ffffffffffffffffffffffffffffffffffffffff1660038281548110611a7f57611a7e612bf5565b5b9060005260206000200160009054906101000a900473ffffffffffffffffffffffffffffffffffffffff1673ffffffffffffffffffffffffffffffffffffffff1603611b765760036001600380549050611ad99190612c53565b81548110611aea57611ae9612bf5565b5b9060005260206000200160009054906101000a900473ffffffffffffffffffffffffffffffffffffffff1660038281548110611b2957611b28612bf5565b5b9060005260206000200160006101000a81548173ffffffffffffffffffffffffffffffffffffffff021916908373ffffffffffffffffffffffffffffffffffffffff160217905550611b89565b8080611b8190612cb6565b915050611a47565b5050565b600115156000803373ffffffffffffffffffffffffffffffffffffffff1673ffffffffffffffffffffffffffffffffffffffff16815260200190815260200160002060009054906101000a900460ff16151514611c1f576040517f08c379a0000000000000000000000000000000000000000000000000000000008152600401611c1690612e48565b60405180910390fd5b60026000611c2d9190612104565b565b60606001805480602002602001604051908101604052809291908181526020018280548015611cb357602002820191906000526020600020905b8160009054906101000a900473ffffffffffffffffffffffffffffffffffffffff1673ffffffffffffffffffffffffffffffffffffffff1681526020019060010190808311611c69575b5050505050905090565b611cc56120a0565b600460003373ffffffffffffffffffffffffffffffffffffffff1673ffffffffffffffffffffffffffffffffffffffff1681526020019081526020016000206040518060c00160405290816000820160009054906101000a900473ffffffffffffffffffffffffffffffffffffffff1673ffffffffffffffffffffffffffffffffffffffff1673ffffffffffffffffffffffffffffffffffffffff168152602001600182018054611d7590612950565b80601f0160208091040260200160405190810160405280929190818152602001828054611da190612950565b8015611dee5780601f10611dc357610100808354040283529160200191611dee565b820191906000526020600020905b815481529060010190602001808311611dd157829003601f168201915b5050505050815260200160028201548152602001600382015481526020016004820160009054906101000a900473ffffffffffffffffffffffffffffffffffffffff1673ffffffffffffffffffffffffffffffffffffffff1673ffffffffffffffffffffffffffffffffffffffff1681526020016004820160149054906101000a900460ff161515151581525050905090565b60011515600460008373ffffffffffffffffffffffffffffffffffffffff1673ffffffffffffffffffffffffffffffffffffffff16815260200190815260200160002060040160149054906101000a900460ff16151514611f17576040517f08c379a0000000000000000000000000000000000000000000000000000000008152600401611f0e90612901565b60405180910390fd5b82600460008373ffffffffffffffffffffffffffffffffffffffff1673ffffffffffffffffffffffffffffffffffffffff1681526020019081526020016000206002016000828254611f699190612e68565b9250508190555081600460008373ffffffffffffffffffffffffffffffffffffffff1673ffffffffffffffffffffffffffffffffffffffff1681526020019081526020016000206003016000828254611fc29190612e68565b92505081905550611fd281610809565b505050565b6002819080600181540180825580915050600190039060005260206000200160009091909190916101000a81548173ffffffffffffffffffffffffffffffffffffffff021916908373ffffffffffffffffffffffffffffffffffffffff1602179055506001819080600181540180825580915050600190039060005260206000200160009091909190916101000a81548173ffffffffffffffffffffffffffffffffffffffff021916908373ffffffffffffffffffffffffffffffffffffffff16021790555050565b6040518060c00160405280600073ffffffffffffffffffffffffffffffffffffffff168152602001606081526020016000815260200160008152602001600073ffffffffffffffffffffffffffffffffffffffff1681526020016000151581525090565b50805460008255906000526020600020908101906121229190612125565b50565b5b8082111561213e576000816000905550600101612126565b5090565b6000604051905090565b600080fd5b600080fd5b600080fd5b600080fd5b6000601f19601f8301169050919050565b7f4e487b7100000000000000000000000000000000000000000000000000000000600052604160045260246000fd5b6121a982612160565b810181811067ffffffffffffffff821117156121c8576121c7612171565b5b80604052505050565b60006121db612142565b90506121e782826121a0565b919050565b600067ffffffffffffffff82111561220757612206612171565b5b61221082612160565b9050602081019050919050565b82818337600083830152505050565b600061223f61223a846121ec565b6121d1565b90508281526020810184848401111561225b5761225a61215b565b5b61226684828561221d565b509392505050565b600082601f83011261228357612282612156565b5b813561229384826020860161222c565b91505092915050565b6000602082840312156122b2576122b161214c565b5b600082013567ffffffffffffffff8111156122d0576122cf612151565b5b6122dc8482850161226e565b91505092915050565b600073ffffffffffffffffffffffffffffffffffffffff82169050919050565b6000612310826122e5565b9050919050565b61232081612305565b811461232b57600080fd5b50565b60008135905061233d81612317565b92915050565b6000602082840312156123595761235861214c565b5b60006123678482850161232e565b91505092915050565b600081519050919050565b600082825260208201905092915050565b6000819050602082019050919050565b6000819050919050565b60006123c16123bc6123b7846122e5565b61239c565b6122e5565b9050919050565b60006123d3826123a6565b9050919050565b60006123e5826123c8565b9050919050565b6123f5816123da565b82525050565b600061240783836123ec565b60208301905092915050565b6000602082019050919050565b600061242b82612370565b612435818561237b565b93506124408361238c565b8060005b8381101561247157815161245888826123fb565b975061246383612413565b925050600181019050612444565b5085935050505092915050565b600060208201905081810360008301526124988184612420565b905092915050565b60006124ab82612305565b9050919050565b6124bb816124a0565b81146124c657600080fd5b50565b6000813590506124d8816124b2565b92915050565b6000602082840312156124f4576124f361214c565b5b6000612502848285016124c9565b91505092915050565b600081519050919050565b600082825260208201905092915050565b6000819050602082019050919050565b61254081612305565b82525050565b600081519050919050565b600082825260208201905092915050565b60005b83811015612580578082015181840152602081019050612565565b60008484015250505050565b600061259782612546565b6125a18185612551565b93506125b1818560208601612562565b6125ba81612160565b840191505092915050565b6000819050919050565b6125d8816125c5565b82525050565b60008115159050919050565b6125f3816125de565b82525050565b600060c0830160008301516126116000860182612537565b5060208301518482036020860152612629828261258c565b915050604083015161263e60408601826125cf565b50606083015161265160608601826125cf565b50608083015161266460808601826123ec565b5060a083015161267760a08601826125ea565b508091505092915050565b600061268e83836125f9565b905092915050565b6000602082019050919050565b60006126ae8261250b565b6126b88185612516565b9350836020820285016126ca85612527565b8060005b8581101561270657848403895281516126e78582612682565b94506126f283612696565b925060208a019950506001810190506126ce565b50829750879550505050505092915050565b6000602082019050818103600083015261273281846126a3565b905092915050565b600080604083850312156127515761275061214c565b5b600061275f8582860161232e565b9250506020612770858286016124c9565b9150509250929050565b600060c0830160008301516127926000860182612537565b50602083015184820360208601526127aa828261258c565b91505060408301516127bf60408601826125cf565b5060608301516127d260608601826125cf565b5060808301516127e560808601826123ec565b5060a08301516127f860a08601826125ea565b508091505092915050565b6000602082019050818103600083015261281d818461277a565b905092915050565b61282e816125c5565b811461283957600080fd5b50565b60008135905061284b81612825565b92915050565b60008060006060848603121561286a5761286961214c565b5b60006128788682870161283c565b93505060206128898682870161283c565b925050604061289a8682870161232e565b9150509250925092565b600082825260208201905092915050565b7f506c6179657220646f6573206e6f742065786973740000000000000000000000600082015250565b60006128eb6015836128a4565b91506128f6826128b5565b602082019050919050565b6000602082019050818103600083015261291a816128de565b9050919050565b7f4e487b7100000000000000000000000000000000000000000000000000000000600052602260045260246000fd5b6000600282049050600182168061296857607f821691505b60208210810361297b5761297a612921565b5b50919050565b60008190508160005260206000209050919050565b60006020601f8301049050919050565b600082821b905092915050565b6000600883026129e37fffffffffffffffffffffffffffffffffffffffffffffffffffffffffffffffff826129a6565b6129ed86836129a6565b95508019841693508086168417925050509392505050565b6000612a20612a1b612a16846125c5565b61239c565b6125c5565b9050919050565b6000819050919050565b612a3a83612a05565b612a4e612a4682612a27565b8484546129b3565b825550505050565b600090565b612a63612a56565b612a6e818484612a31565b505050565b5b81811015612a9257612a87600082612a5b565b600181019050612a74565b5050565b601f821115612ad757612aa881612981565b612ab184612996565b81016020851015612ac0578190505b612ad4612acc85612996565b830182612a73565b50505b505050565b600082821c905092915050565b6000612afa60001984600802612adc565b1980831691505092915050565b6000612b138383612ae9565b9150826002028217905092915050565b612b2c82612546565b67ffffffffffffffff811115612b4557612b44612171565b5b612b4f8254612950565b612b5a828285612a96565b600060209050601f831160018114612b8d5760008415612b7b578287015190505b612b858582612b07565b865550612bed565b601f198416612b9b86612981565b60005b82811015612bc357848901518255600182019150602085019450602081019050612b9e565b86831015612be05784890151612bdc601f891682612ae9565b8355505b6001600288020188555050505b505050505050565b7f4e487b7100000000000000000000000000000000000000000000000000000000600052603260045260246000fd5b7f4e487b7100000000000000000000000000000000000000000000000000000000600052601160045260246000fd5b6000612c5e826125c5565b9150612c69836125c5565b9250828203905081811115612c8157612c80612c24565b5b92915050565b7f4e487b7100000000000000000000000000000000000000000000000000000000600052603160045260246000fd5b6000612cc1826125c5565b91507fffffffffffffffffffffffffffffffffffffffffffffffffffffffffffffffff8203612cf357612cf2612c24565b5b600182019050919050565b600081549050612d0d81612950565b9050919050565b818103612d22575050612dfa565b612d2b82612cfe565b67ffffffffffffffff811115612d4457612d43612171565b5b612d4e8254612950565b612d59828285612a96565b6000601f831160018114612d885760008415612d76578287015490505b612d808582612b07565b865550612df3565b601f198416612d9687612981565b9650612da186612981565b60005b82811015612dc957848901548255600182019150600185019450602081019050612da4565b86831015612de65784890154612de2601f891682612ae9565b8355505b6001600288020188555050505b5050505050505b565b7f4f6e6c7920746865206f776e65722063616e20646f2074686973000000000000600082015250565b6000612e32601a836128a4565b9150612e3d82612dfc565b602082019050919050565b60006020820190508181036000830152612e6181612e25565b9050919050565b6000612e73826125c5565b9150612e7e836125c5565b9250828201905080821115612e9657612e95612c24565b5b9291505056fea26469706673582212202d523b8db26a64cb38a3a091caea06fd797aec82a2f02b70b7bad35d74fa68c964736f6c63430008130033",
  "linkReferences": {},
  "deployedLinkReferences": {}
}