{
  "_format": "hh-sol-artifact-1",
  "contractName": "MainContract",
  "sourceName": "contracts/MainContract.sol",
  "abi": [
    {
      "inputs": [],
      "stateMutability": "nonpayable",
      "type": "constructor"
    },
    {
      "inputs": [
        {
          "internalType": "address",
          "name": "_sender",
          "type": "address"
        },
        {
          "internalType": "contract Game",
          "name": "game",
          "type": "address"
        }
      ],
      "name": "addColorGuessCurrentGame",
      "outputs": [],
      "stateMutability": "nonpayable",
      "type": "function"
    },
    {
      "inputs": [
        {
          "internalType": "contract Game",
          "name": "game",
          "type": "address"
        }
      ],
      "name": "addCurrentGame",
      "outputs": [],
      "stateMutability": "nonpayable",
      "type": "function"
    },
    {
      "inputs": [
        {
          "internalType": "address",
          "name": "admin",
          "type": "address"
        }
      ],
      "name": "addOwner",
      "outputs": [],
      "stateMutability": "nonpayable",
      "type": "function"
    },
    {
      "inputs": [
        {
          "internalType": "contract Game",
          "name": "game",
          "type": "address"
        }
      ],
      "name": "addPlayableGame",
      "outputs": [],
      "stateMutability": "nonpayable",
      "type": "function"
    },
    {
      "inputs": [
        {
          "internalType": "address",
          "name": "_player",
          "type": "address"
        }
      ],
      "name": "addPlayer",
      "outputs": [],
      "stateMutability": "nonpayable",
      "type": "function"
    },
    {
      "inputs": [],
      "name": "getCurrentGames",
      "outputs": [
        {
          "internalType": "contract Game[]",
          "name": "",
          "type": "address[]"
        }
      ],
      "stateMutability": "view",
      "type": "function"
    },
    {
      "inputs": [],
      "name": "getPlayerInfo",
      "outputs": [
        {
          "components": [
            {
              "internalType": "string",
              "name": "profilePicture",
              "type": "string"
            },
            {
              "internalType": "uint256",
              "name": "numGamesPlayed",
              "type": "uint256"
            },
            {
              "internalType": "uint256",
              "name": "numWins",
              "type": "uint256"
            },
            {
              "internalType": "contract Game",
              "name": "currentGame",
              "type": "address"
            },
            {
              "internalType": "bool",
              "name": "exists",
              "type": "bool"
            }
          ],
          "internalType": "struct MainContract.Player",
          "name": "",
          "type": "tuple"
        }
      ],
      "stateMutability": "view",
      "type": "function"
    },
    {
      "inputs": [
        {
          "internalType": "address",
          "name": "_sender",
          "type": "address"
        }
      ],
      "name": "removeColorGuessCurrentGame",
      "outputs": [],
      "stateMutability": "nonpayable",
      "type": "function"
    },
    {
      "inputs": [
        {
          "internalType": "contract Game",
          "name": "game",
          "type": "address"
        }
      ],
      "name": "removeCurrentGame",
      "outputs": [],
      "stateMutability": "nonpayable",
      "type": "function"
    },
    {
      "inputs": [
        {
          "internalType": "contract Game",
          "name": "game",
          "type": "address"
        }
      ],
      "name": "removeGame",
      "outputs": [],
      "stateMutability": "nonpayable",
      "type": "function"
    },
    {
      "inputs": [
        {
          "internalType": "string",
          "name": "_profilePicture",
          "type": "string"
        }
      ],
      "name": "setProfilePicture",
      "outputs": [],
      "stateMutability": "nonpayable",
      "type": "function"
    },
    {
      "inputs": [
        {
          "internalType": "uint256",
          "name": "_numGamesPlayed",
          "type": "uint256"
        },
        {
          "internalType": "uint256",
          "name": "_numWins",
          "type": "uint256"
        },
        {
          "internalType": "address",
          "name": "_address",
          "type": "address"
        }
      ],
      "name": "updatePlayer",
      "outputs": [],
      "stateMutability": "nonpayable",
      "type": "function"
    }
  ],
  "bytecode": "0x608060405234801561001057600080fd5b5060016000803273ffffffffffffffffffffffffffffffffffffffff1673ffffffffffffffffffffffffffffffffffffffff16815260200190815260200160002060006101000a81548160ff021916908315150217905550611dc8806100776000396000f3fe608060405234801561001057600080fd5b50600436106100b35760003560e01c8063b1275f9a11610071578063b1275f9a14610162578063b904a8e51461017e578063bce246691461019a578063d1df81df146101b6578063e2225dfb146101d4578063f80a2cd6146101f0576100b3565b8062d88ee1146100b85780632a120b58146100d4578063326fac6e146100f05780635e7e2f5b1461010e5780637065cb481461012a57806376980a0214610146575b600080fd5b6100d260048036038101906100cd919061144e565b61020c565b005b6100ee60048036038101906100e99190611507565b6102f5565b005b6100f8610448565b6040516101059190611642565b60405180910390f35b61012860048036038101906101239190611507565b6104d6565b005b610144600480360381019061013f9190611690565b6105ce565b005b610160600480360381019061015b91906116bd565b6106ba565b005b61017c60048036038101906101779190611690565b610805565b005b61019860048036038101906101939190611690565b6108bf565b005b6101b460048036038101906101af9190611507565b610ca7565b005b6101be610e82565b6040516101cb9190611826565b60405180910390f35b6101ee60048036038101906101e99190611874565b610ff0565b005b61020a60048036038101906102059190611507565b61113d565b005b60011515600460003373ffffffffffffffffffffffffffffffffffffffff1673ffffffffffffffffffffffffffffffffffffffff16815260200190815260200160002060030160149054906101000a900460ff161515146102a2576040517f08c379a000000000000000000000000000000000000000000000000000000000815260040161029990611924565b60405180910390fd5b80600460003373ffffffffffffffffffffffffffffffffffffffff1673ffffffffffffffffffffffffffffffffffffffff16815260200190815260200160002060000190816102f19190611b46565b5050565b60606000805b600280549050811015610427578373ffffffffffffffffffffffffffffffffffffffff166002828154811061033357610332611c18565b5b9060005260206000200160009054906101000a900473ffffffffffffffffffffffffffffffffffffffff1673ffffffffffffffffffffffffffffffffffffffff1614610414576002818154811061038d5761038c611c18565b5b9060005260206000200160009054906101000a900473ffffffffffffffffffffffffffffffffffffffff168383815181106103cb576103ca611c18565b5b602002602001019073ffffffffffffffffffffffffffffffffffffffff16908173ffffffffffffffffffffffffffffffffffffffff1681525050818061041090611c76565b9250505b808061041f90611c76565b9150506102fb565b50816002908051906020019061043e929190611206565b5060609150505050565b606060028054806020026020016040519081016040528092919081815260200182805480156104cc57602002820191906000526020600020905b8160009054906101000a900473ffffffffffffffffffffffffffffffffffffffff1673ffffffffffffffffffffffffffffffffffffffff1681526020019060010190808311610482575b5050505050905090565b600115156000803373ffffffffffffffffffffffffffffffffffffffff1673ffffffffffffffffffffffffffffffffffffffff16815260200190815260200160002060009054906101000a900460ff16151514610568576040517f08c379a000000000000000000000000000000000000000000000000000000000815260040161055f90611d0a565b60405180910390fd5b6003819080600181540180825580915050600190039060005260206000200160009091909190916101000a81548173ffffffffffffffffffffffffffffffffffffffff021916908373ffffffffffffffffffffffffffffffffffffffff16021790555050565b600115156000803373ffffffffffffffffffffffffffffffffffffffff1673ffffffffffffffffffffffffffffffffffffffff16815260200190815260200160002060009054906101000a900460ff16151514610660576040517f08c379a000000000000000000000000000000000000000000000000000000000815260040161065790611d0a565b60405180910390fd5b60016000808373ffffffffffffffffffffffffffffffffffffffff1673ffffffffffffffffffffffffffffffffffffffff16815260200190815260200160002060006101000a81548160ff02191690831515021790555050565b6002819080600181540180825580915050600190039060005260206000200160009091909190916101000a81548173ffffffffffffffffffffffffffffffffffffffff021916908373ffffffffffffffffffffffffffffffffffffffff1602179055506001819080600181540180825580915050600190039060005260206000200160009091909190916101000a81548173ffffffffffffffffffffffffffffffffffffffff021916908373ffffffffffffffffffffffffffffffffffffffff16021790555080600460008473ffffffffffffffffffffffffffffffffffffffff1673ffffffffffffffffffffffffffffffffffffffff16815260200190815260200160002060030160006101000a81548173ffffffffffffffffffffffffffffffffffffffff021916908373ffffffffffffffffffffffffffffffffffffffff1602179055505050565b60001515600460008373ffffffffffffffffffffffffffffffffffffffff1673ffffffffffffffffffffffffffffffffffffffff16815260200190815260200160002060030160149054906101000a900460ff161515036108bc576001600460008373ffffffffffffffffffffffffffffffffffffffff1673ffffffffffffffffffffffffffffffffffffffff16815260200190815260200160002060030160146101000a81548160ff0219169083151502179055505b50565b600060028054905067ffffffffffffffff8111156108e0576108df611323565b5b60405190808252806020026020018201604052801561090e5781602001602082028036833780820191505090505b50905060008060005b600280549050811015610ab857600460008673ffffffffffffffffffffffffffffffffffffffff1673ffffffffffffffffffffffffffffffffffffffff16815260200190815260200160002060030160009054906101000a900473ffffffffffffffffffffffffffffffffffffffff1673ffffffffffffffffffffffffffffffffffffffff16600282815481106109b1576109b0611c18565b5b9060005260206000200160009054906101000a900473ffffffffffffffffffffffffffffffffffffffff1673ffffffffffffffffffffffffffffffffffffffff1614610a965760028181548110610a0b57610a0a611c18565b5b9060005260206000200160009054906101000a900473ffffffffffffffffffffffffffffffffffffffff16848481518110610a4957610a48611c18565b5b602002602001019073ffffffffffffffffffffffffffffffffffffffff16908173ffffffffffffffffffffffffffffffffffffffff16815250508280610a8e90611c76565b935050610aa5565b8180610aa190611c76565b9250505b8080610ab090611c76565b915050610917565b50600081600280549050610acc9190611d2a565b67ffffffffffffffff811115610ae557610ae4611323565b5b604051908082528060200260200182016040528015610b135781602001602082028036833780820191505090505b5090506000925060005b8451811015610bfe57600073ffffffffffffffffffffffffffffffffffffffff16858281518110610b5157610b50611c18565b5b602002602001015173ffffffffffffffffffffffffffffffffffffffff1614610beb57848181518110610b8757610b86611c18565b5b6020026020010151828581518110610ba257610ba1611c18565b5b602002602001019073ffffffffffffffffffffffffffffffffffffffff16908173ffffffffffffffffffffffffffffffffffffffff16815250508380610be790611c76565b9450505b8080610bf690611c76565b915050610b1d565b508060029080519060200190610c15929190611206565b506000600460008773ffffffffffffffffffffffffffffffffffffffff1673ffffffffffffffffffffffffffffffffffffffff16815260200190815260200160002060030160006101000a81548173ffffffffffffffffffffffffffffffffffffffff021916908373ffffffffffffffffffffffffffffffffffffffff16021790555060609350606090505050505050565b600115156000803373ffffffffffffffffffffffffffffffffffffffff1673ffffffffffffffffffffffffffffffffffffffff16815260200190815260200160002060009054906101000a900460ff16151514610d39576040517f08c379a0000000000000000000000000000000000000000000000000000000008152600401610d3090611d0a565b60405180910390fd5b60005b600280549050811015610e7e578173ffffffffffffffffffffffffffffffffffffffff1660038281548110610d7457610d73611c18565b5b9060005260206000200160009054906101000a900473ffffffffffffffffffffffffffffffffffffffff1673ffffffffffffffffffffffffffffffffffffffff1603610e6b5760036001600380549050610dce9190611d2a565b81548110610ddf57610dde611c18565b5b9060005260206000200160009054906101000a900473ffffffffffffffffffffffffffffffffffffffff1660038281548110610e1e57610e1d611c18565b5b9060005260206000200160006101000a81548173ffffffffffffffffffffffffffffffffffffffff021916908373ffffffffffffffffffffffffffffffffffffffff160217905550610e7e565b8080610e7690611c76565b915050610d3c565b5050565b610e8a611290565b600460003373ffffffffffffffffffffffffffffffffffffffff1673ffffffffffffffffffffffffffffffffffffffff1681526020019081526020016000206040518060a0016040529081600082018054610ee490611973565b80601f0160208091040260200160405190810160405280929190818152602001828054610f1090611973565b8015610f5d5780601f10610f3257610100808354040283529160200191610f5d565b820191906000526020600020905b815481529060010190602001808311610f4057829003601f168201915b5050505050815260200160018201548152602001600282015481526020016003820160009054906101000a900473ffffffffffffffffffffffffffffffffffffffff1673ffffffffffffffffffffffffffffffffffffffff1673ffffffffffffffffffffffffffffffffffffffff1681526020016003820160149054906101000a900460ff161515151581525050905090565b60011515600460008373ffffffffffffffffffffffffffffffffffffffff1673ffffffffffffffffffffffffffffffffffffffff16815260200190815260200160002060030160149054906101000a900460ff16151514611086576040517f08c379a000000000000000000000000000000000000000000000000000000000815260040161107d90611924565b60405180910390fd5b82600460008373ffffffffffffffffffffffffffffffffffffffff1673ffffffffffffffffffffffffffffffffffffffff16815260200190815260200160002060010160008282546110d89190611d5e565b9250508190555081600460008373ffffffffffffffffffffffffffffffffffffffff1673ffffffffffffffffffffffffffffffffffffffff16815260200190815260200160002060020160008282546111319190611d5e565b92505081905550505050565b6002819080600181540180825580915050600190039060005260206000200160009091909190916101000a81548173ffffffffffffffffffffffffffffffffffffffff021916908373ffffffffffffffffffffffffffffffffffffffff1602179055506001819080600181540180825580915050600190039060005260206000200160009091909190916101000a81548173ffffffffffffffffffffffffffffffffffffffff021916908373ffffffffffffffffffffffffffffffffffffffff16021790555050565b82805482825590600052602060002090810192821561127f579160200282015b8281111561127e5782518260006101000a81548173ffffffffffffffffffffffffffffffffffffffff021916908373ffffffffffffffffffffffffffffffffffffffff16021790555091602001919060010190611226565b5b50905061128c91906112d7565b5090565b6040518060a00160405280606081526020016000815260200160008152602001600073ffffffffffffffffffffffffffffffffffffffff1681526020016000151581525090565b5b808211156112f05760008160009055506001016112d8565b5090565b6000604051905090565b600080fd5b600080fd5b600080fd5b600080fd5b6000601f19601f8301169050919050565b7f4e487b7100000000000000000000000000000000000000000000000000000000600052604160045260246000fd5b61135b82611312565b810181811067ffffffffffffffff8211171561137a57611379611323565b5b80604052505050565b600061138d6112f4565b90506113998282611352565b919050565b600067ffffffffffffffff8211156113b9576113b8611323565b5b6113c282611312565b9050602081019050919050565b82818337600083830152505050565b60006113f16113ec8461139e565b611383565b90508281526020810184848401111561140d5761140c61130d565b5b6114188482856113cf565b509392505050565b600082601f83011261143557611434611308565b5b81356114458482602086016113de565b91505092915050565b600060208284031215611464576114636112fe565b5b600082013567ffffffffffffffff81111561148257611481611303565b5b61148e84828501611420565b91505092915050565b600073ffffffffffffffffffffffffffffffffffffffff82169050919050565b60006114c282611497565b9050919050565b60006114d4826114b7565b9050919050565b6114e4816114c9565b81146114ef57600080fd5b50565b600081359050611501816114db565b92915050565b60006020828403121561151d5761151c6112fe565b5b600061152b848285016114f2565b91505092915050565b600081519050919050565b600082825260208201905092915050565b6000819050602082019050919050565b6000819050919050565b600061158561158061157b84611497565b611560565b611497565b9050919050565b60006115978261156a565b9050919050565b60006115a98261158c565b9050919050565b6115b98161159e565b82525050565b60006115cb83836115b0565b60208301905092915050565b6000602082019050919050565b60006115ef82611534565b6115f9818561153f565b935061160483611550565b8060005b8381101561163557815161161c88826115bf565b9750611627836115d7565b925050600181019050611608565b5085935050505092915050565b6000602082019050818103600083015261165c81846115e4565b905092915050565b61166d816114b7565b811461167857600080fd5b50565b60008135905061168a81611664565b92915050565b6000602082840312156116a6576116a56112fe565b5b60006116b48482850161167b565b91505092915050565b600080604083850312156116d4576116d36112fe565b5b60006116e28582860161167b565b92505060206116f3858286016114f2565b9150509250929050565b600081519050919050565b600082825260208201905092915050565b60005b8381101561173757808201518184015260208101905061171c565b60008484015250505050565b600061174e826116fd565b6117588185611708565b9350611768818560208601611719565b61177181611312565b840191505092915050565b6000819050919050565b61178f8161177c565b82525050565b60008115159050919050565b6117aa81611795565b82525050565b600060a08301600083015184820360008601526117cd8282611743565b91505060208301516117e26020860182611786565b5060408301516117f56040860182611786565b50606083015161180860608601826115b0565b50608083015161181b60808601826117a1565b508091505092915050565b6000602082019050818103600083015261184081846117b0565b905092915050565b6118518161177c565b811461185c57600080fd5b50565b60008135905061186e81611848565b92915050565b60008060006060848603121561188d5761188c6112fe565b5b600061189b8682870161185f565b93505060206118ac8682870161185f565b92505060406118bd8682870161167b565b9150509250925092565b600082825260208201905092915050565b7f506c6179657220646f6573206e6f742065786973740000000000000000000000600082015250565b600061190e6015836118c7565b9150611919826118d8565b602082019050919050565b6000602082019050818103600083015261193d81611901565b9050919050565b7f4e487b7100000000000000000000000000000000000000000000000000000000600052602260045260246000fd5b6000600282049050600182168061198b57607f821691505b60208210810361199e5761199d611944565b5b50919050565b60008190508160005260206000209050919050565b60006020601f8301049050919050565b600082821b905092915050565b600060088302611a067fffffffffffffffffffffffffffffffffffffffffffffffffffffffffffffffff826119c9565b611a1086836119c9565b95508019841693508086168417925050509392505050565b6000611a43611a3e611a398461177c565b611560565b61177c565b9050919050565b6000819050919050565b611a5d83611a28565b611a71611a6982611a4a565b8484546119d6565b825550505050565b600090565b611a86611a79565b611a91818484611a54565b505050565b5b81811015611ab557611aaa600082611a7e565b600181019050611a97565b5050565b601f821115611afa57611acb816119a4565b611ad4846119b9565b81016020851015611ae3578190505b611af7611aef856119b9565b830182611a96565b50505b505050565b600082821c905092915050565b6000611b1d60001984600802611aff565b1980831691505092915050565b6000611b368383611b0c565b9150826002028217905092915050565b611b4f826116fd565b67ffffffffffffffff811115611b6857611b67611323565b5b611b728254611973565b611b7d828285611ab9565b600060209050601f831160018114611bb05760008415611b9e578287015190505b611ba88582611b2a565b865550611c10565b601f198416611bbe866119a4565b60005b82811015611be657848901518255600182019150602085019450602081019050611bc1565b86831015611c035784890151611bff601f891682611b0c565b8355505b6001600288020188555050505b505050505050565b7f4e487b7100000000000000000000000000000000000000000000000000000000600052603260045260246000fd5b7f4e487b7100000000000000000000000000000000000000000000000000000000600052601160045260246000fd5b6000611c818261177c565b91507fffffffffffffffffffffffffffffffffffffffffffffffffffffffffffffffff8203611cb357611cb2611c47565b5b600182019050919050565b7f4f6e6c7920746865206f776e65722063616e20646f2074686973000000000000600082015250565b6000611cf4601a836118c7565b9150611cff82611cbe565b602082019050919050565b60006020820190508181036000830152611d2381611ce7565b9050919050565b6000611d358261177c565b9150611d408361177c565b9250828203905081811115611d5857611d57611c47565b5b92915050565b6000611d698261177c565b9150611d748361177c565b9250828201905080821115611d8c57611d8b611c47565b5b9291505056fea264697066735822122078da8a65d03167f50d23679d1b482fd54f4d15fbb9132687507190fb13aa01aa64736f6c63430008130033",
  "linkReferences": {},
  "deployedLinkReferences": {}
}