{
  "_format": "hh-sol-artifact-1",
  "contractName": "MainContract",
  "sourceName": "contracts/MainContract.sol",
  "abi": [
    {
      "inputs": [],
      "stateMutability": "nonpayable",
      "type": "constructor"
    },
    {
      "inputs": [
        {
          "internalType": "address",
          "name": "_sender",
          "type": "address"
        },
        {
          "internalType": "contract Game",
          "name": "game",
          "type": "address"
        }
      ],
      "name": "addColorGuessCurrentGame",
      "outputs": [],
      "stateMutability": "nonpayable",
      "type": "function"
    },
    {
      "inputs": [
        {
          "internalType": "contract Game",
          "name": "game",
          "type": "address"
        }
      ],
      "name": "addCurrentGame",
      "outputs": [],
      "stateMutability": "nonpayable",
      "type": "function"
    },
    {
      "inputs": [
        {
          "internalType": "address",
          "name": "admin",
          "type": "address"
        }
      ],
      "name": "addOwner",
      "outputs": [],
      "stateMutability": "nonpayable",
      "type": "function"
    },
    {
      "inputs": [
        {
          "internalType": "contract Game",
          "name": "game",
          "type": "address"
        }
      ],
      "name": "addPlayableGame",
      "outputs": [],
      "stateMutability": "nonpayable",
      "type": "function"
    },
    {
      "inputs": [
        {
          "internalType": "address",
          "name": "_player",
          "type": "address"
        }
      ],
      "name": "addPlayer",
      "outputs": [],
      "stateMutability": "nonpayable",
      "type": "function"
    },
    {
      "inputs": [],
      "name": "clearCurrentGames",
      "outputs": [],
      "stateMutability": "nonpayable",
      "type": "function"
    },
    {
      "inputs": [],
      "name": "getCurrentGames",
      "outputs": [
        {
          "internalType": "contract Game[]",
          "name": "",
          "type": "address[]"
        }
      ],
      "stateMutability": "view",
      "type": "function"
    },
    {
      "inputs": [],
      "name": "getGamesPlayed",
      "outputs": [
        {
          "internalType": "contract Game[]",
          "name": "",
          "type": "address[]"
        }
      ],
      "stateMutability": "view",
      "type": "function"
    },
    {
      "inputs": [],
      "name": "getPlayerInfo",
      "outputs": [
        {
          "components": [
            {
              "internalType": "string",
              "name": "profilePicture",
              "type": "string"
            },
            {
              "internalType": "uint256",
              "name": "numGamesPlayed",
              "type": "uint256"
            },
            {
              "internalType": "uint256",
              "name": "numWins",
              "type": "uint256"
            },
            {
              "internalType": "contract Game",
              "name": "currentGame",
              "type": "address"
            },
            {
              "internalType": "bool",
              "name": "exists",
              "type": "bool"
            }
          ],
          "internalType": "struct MainContract.Player",
          "name": "",
          "type": "tuple"
        }
      ],
      "stateMutability": "view",
      "type": "function"
    },
    {
      "inputs": [
        {
          "internalType": "address",
          "name": "_sender",
          "type": "address"
        }
      ],
      "name": "removeCurrentGame",
      "outputs": [],
      "stateMutability": "nonpayable",
      "type": "function"
    },
    {
      "inputs": [
        {
          "internalType": "contract Game",
          "name": "game",
          "type": "address"
        }
      ],
      "name": "removeGame",
      "outputs": [],
      "stateMutability": "nonpayable",
      "type": "function"
    },
    {
      "inputs": [
        {
          "internalType": "string",
          "name": "_profilePicture",
          "type": "string"
        }
      ],
      "name": "setProfilePicture",
      "outputs": [],
      "stateMutability": "nonpayable",
      "type": "function"
    },
    {
      "inputs": [
        {
          "internalType": "uint256",
          "name": "_numGamesPlayed",
          "type": "uint256"
        },
        {
          "internalType": "uint256",
          "name": "_numWins",
          "type": "uint256"
        },
        {
          "internalType": "address",
          "name": "_address",
          "type": "address"
        }
      ],
      "name": "updatePlayer",
      "outputs": [],
      "stateMutability": "nonpayable",
      "type": "function"
    }
  ],
  "bytecode": "0x608060405234801561001057600080fd5b5060016000803273ffffffffffffffffffffffffffffffffffffffff1673ffffffffffffffffffffffffffffffffffffffff16815260200190815260200160002060006101000a81548160ff021916908315150217905550611d4a806100776000396000f3fe608060405234801561001057600080fd5b50600436106100ce5760003560e01c8063b1275f9a1161008c578063ca06a3f811610066578063ca06a3f8146101bf578063d1df81df146101dd578063e2225dfb146101fb578063f80a2cd614610217576100ce565b8063b1275f9a1461017d578063bce2466914610199578063c16c757e146101b5576100ce565b8062d88ee1146100d35780632a120b58146100ef578063326fac6e1461010b5780635e7e2f5b146101295780637065cb481461014557806376980a0214610161575b600080fd5b6100ed60048036038101906100e891906113a1565b610233565b005b61010960048036038101906101049190611448565b61031c565b005b610113610655565b6040516101209190611583565b60405180910390f35b610143600480360381019061013e91906115e3565b6106e3565b005b61015f600480360381019061015a9190611448565b6107db565b005b61017b60048036038101906101769190611610565b6108c7565b005b61019760048036038101906101929190611448565b6109af565b005b6101b360048036038101906101ae91906115e3565b610b33565b005b6101bd610d0e565b005b6101c7610db0565b6040516101d49190611583565b60405180910390f35b6101e5610e3e565b6040516101f29190611779565b60405180910390f35b610215600480360381019061021091906117c7565b610fac565b005b610231600480360381019061022c91906115e3565b6110f9565b005b60011515600460003373ffffffffffffffffffffffffffffffffffffffff1673ffffffffffffffffffffffffffffffffffffffff16815260200190815260200160002060030160149054906101000a900460ff161515146102c9576040517f08c379a00000000000000000000000000000000000000000000000000000000081526004016102c090611877565b60405180910390fd5b80600460003373ffffffffffffffffffffffffffffffffffffffff1673ffffffffffffffffffffffffffffffffffffffff16815260200190815260200160002060000190816103189190611a99565b5050565b6001600460008373ffffffffffffffffffffffffffffffffffffffff1673ffffffffffffffffffffffffffffffffffffffff16815260200190815260200160002060030160009054906101000a900473ffffffffffffffffffffffffffffffffffffffff169080600181540180825580915050600190039060005260206000200160009091909190916101000a81548173ffffffffffffffffffffffffffffffffffffffff021916908373ffffffffffffffffffffffffffffffffffffffff16021790555060005b6002805490508110156105cf57600460008373ffffffffffffffffffffffffffffffffffffffff1673ffffffffffffffffffffffffffffffffffffffff16815260200190815260200160002060030160009054906101000a900473ffffffffffffffffffffffffffffffffffffffff1673ffffffffffffffffffffffffffffffffffffffff166002828154811061047e5761047d611b6b565b5b9060005260206000200160009054906101000a900473ffffffffffffffffffffffffffffffffffffffff1673ffffffffffffffffffffffffffffffffffffffff16036105bc57600260016002805490506104d89190611bc9565b815481106104e9576104e8611b6b565b5b9060005260206000200160009054906101000a900473ffffffffffffffffffffffffffffffffffffffff166002828154811061052857610527611b6b565b5b9060005260206000200160006101000a81548173ffffffffffffffffffffffffffffffffffffffff021916908373ffffffffffffffffffffffffffffffffffffffff160217905550600280548061058257610581611bfd565b5b6001900381819060005260206000200160006101000a81549073ffffffffffffffffffffffffffffffffffffffff021916905590556105cf565b80806105c790611c2c565b9150506103e4565b506000600460008373ffffffffffffffffffffffffffffffffffffffff1673ffffffffffffffffffffffffffffffffffffffff16815260200190815260200160002060030160006101000a81548173ffffffffffffffffffffffffffffffffffffffff021916908373ffffffffffffffffffffffffffffffffffffffff16021790555050565b606060028054806020026020016040519081016040528092919081815260200182805480156106d957602002820191906000526020600020905b8160009054906101000a900473ffffffffffffffffffffffffffffffffffffffff1673ffffffffffffffffffffffffffffffffffffffff168152602001906001019080831161068f575b5050505050905090565b600115156000803373ffffffffffffffffffffffffffffffffffffffff1673ffffffffffffffffffffffffffffffffffffffff16815260200190815260200160002060009054906101000a900460ff16151514610775576040517f08c379a000000000000000000000000000000000000000000000000000000000815260040161076c90611cc0565b60405180910390fd5b6003819080600181540180825580915050600190039060005260206000200160009091909190916101000a81548173ffffffffffffffffffffffffffffffffffffffff021916908373ffffffffffffffffffffffffffffffffffffffff16021790555050565b600115156000803373ffffffffffffffffffffffffffffffffffffffff1673ffffffffffffffffffffffffffffffffffffffff16815260200190815260200160002060009054906101000a900460ff1615151461086d576040517f08c379a000000000000000000000000000000000000000000000000000000000815260040161086490611cc0565b60405180910390fd5b60016000808373ffffffffffffffffffffffffffffffffffffffff1673ffffffffffffffffffffffffffffffffffffffff16815260200190815260200160002060006101000a81548160ff02191690831515021790555050565b6002819080600181540180825580915050600190039060005260206000200160009091909190916101000a81548173ffffffffffffffffffffffffffffffffffffffff021916908373ffffffffffffffffffffffffffffffffffffffff16021790555080600460008473ffffffffffffffffffffffffffffffffffffffff1673ffffffffffffffffffffffffffffffffffffffff16815260200190815260200160002060030160006101000a81548173ffffffffffffffffffffffffffffffffffffffff021916908373ffffffffffffffffffffffffffffffffffffffff1602179055505050565b60001515600460008373ffffffffffffffffffffffffffffffffffffffff1673ffffffffffffffffffffffffffffffffffffffff16815260200190815260200160002060030160149054906101000a900460ff16151503610b30576040518060a001604052806040518060200160405280600081525081526020016000815260200160008152602001600073ffffffffffffffffffffffffffffffffffffffff16815260200160011515815250600460008373ffffffffffffffffffffffffffffffffffffffff1673ffffffffffffffffffffffffffffffffffffffff1681526020019081526020016000206000820151816000019081610ab09190611a99565b50602082015181600101556040820151816002015560608201518160030160006101000a81548173ffffffffffffffffffffffffffffffffffffffff021916908373ffffffffffffffffffffffffffffffffffffffff16021790555060808201518160030160146101000a81548160ff0219169083151502179055509050505b50565b600115156000803373ffffffffffffffffffffffffffffffffffffffff1673ffffffffffffffffffffffffffffffffffffffff16815260200190815260200160002060009054906101000a900460ff16151514610bc5576040517f08c379a0000000000000000000000000000000000000000000000000000000008152600401610bbc90611cc0565b60405180910390fd5b60005b600280549050811015610d0a578173ffffffffffffffffffffffffffffffffffffffff1660038281548110610c0057610bff611b6b565b5b9060005260206000200160009054906101000a900473ffffffffffffffffffffffffffffffffffffffff1673ffffffffffffffffffffffffffffffffffffffff1603610cf75760036001600380549050610c5a9190611bc9565b81548110610c6b57610c6a611b6b565b5b9060005260206000200160009054906101000a900473ffffffffffffffffffffffffffffffffffffffff1660038281548110610caa57610ca9611b6b565b5b9060005260206000200160006101000a81548173ffffffffffffffffffffffffffffffffffffffff021916908373ffffffffffffffffffffffffffffffffffffffff160217905550610d0a565b8080610d0290611c2c565b915050610bc8565b5050565b600115156000803373ffffffffffffffffffffffffffffffffffffffff1673ffffffffffffffffffffffffffffffffffffffff16815260200190815260200160002060009054906101000a900460ff16151514610da0576040517f08c379a0000000000000000000000000000000000000000000000000000000008152600401610d9790611cc0565b60405180910390fd5b60026000610dae91906111c2565b565b60606001805480602002602001604051908101604052809291908181526020018280548015610e3457602002820191906000526020600020905b8160009054906101000a900473ffffffffffffffffffffffffffffffffffffffff1673ffffffffffffffffffffffffffffffffffffffff1681526020019060010190808311610dea575b5050505050905090565b610e466111e3565b600460003373ffffffffffffffffffffffffffffffffffffffff1673ffffffffffffffffffffffffffffffffffffffff1681526020019081526020016000206040518060a0016040529081600082018054610ea0906118c6565b80601f0160208091040260200160405190810160405280929190818152602001828054610ecc906118c6565b8015610f195780601f10610eee57610100808354040283529160200191610f19565b820191906000526020600020905b815481529060010190602001808311610efc57829003601f168201915b5050505050815260200160018201548152602001600282015481526020016003820160009054906101000a900473ffffffffffffffffffffffffffffffffffffffff1673ffffffffffffffffffffffffffffffffffffffff1673ffffffffffffffffffffffffffffffffffffffff1681526020016003820160149054906101000a900460ff161515151581525050905090565b60011515600460008373ffffffffffffffffffffffffffffffffffffffff1673ffffffffffffffffffffffffffffffffffffffff16815260200190815260200160002060030160149054906101000a900460ff16151514611042576040517f08c379a000000000000000000000000000000000000000000000000000000000815260040161103990611877565b60405180910390fd5b82600460008373ffffffffffffffffffffffffffffffffffffffff1673ffffffffffffffffffffffffffffffffffffffff16815260200190815260200160002060010160008282546110949190611ce0565b9250508190555081600460008373ffffffffffffffffffffffffffffffffffffffff1673ffffffffffffffffffffffffffffffffffffffff16815260200190815260200160002060020160008282546110ed9190611ce0565b92505081905550505050565b6002819080600181540180825580915050600190039060005260206000200160009091909190916101000a81548173ffffffffffffffffffffffffffffffffffffffff021916908373ffffffffffffffffffffffffffffffffffffffff1602179055506001819080600181540180825580915050600190039060005260206000200160009091909190916101000a81548173ffffffffffffffffffffffffffffffffffffffff021916908373ffffffffffffffffffffffffffffffffffffffff16021790555050565b50805460008255906000526020600020908101906111e0919061122a565b50565b6040518060a00160405280606081526020016000815260200160008152602001600073ffffffffffffffffffffffffffffffffffffffff1681526020016000151581525090565b5b8082111561124357600081600090555060010161122b565b5090565b6000604051905090565b600080fd5b600080fd5b600080fd5b600080fd5b6000601f19601f8301169050919050565b7f4e487b7100000000000000000000000000000000000000000000000000000000600052604160045260246000fd5b6112ae82611265565b810181811067ffffffffffffffff821117156112cd576112cc611276565b5b80604052505050565b60006112e0611247565b90506112ec82826112a5565b919050565b600067ffffffffffffffff82111561130c5761130b611276565b5b61131582611265565b9050602081019050919050565b82818337600083830152505050565b600061134461133f846112f1565b6112d6565b9050828152602081018484840111156113605761135f611260565b5b61136b848285611322565b509392505050565b600082601f8301126113885761138761125b565b5b8135611398848260208601611331565b91505092915050565b6000602082840312156113b7576113b6611251565b5b600082013567ffffffffffffffff8111156113d5576113d4611256565b5b6113e184828501611373565b91505092915050565b600073ffffffffffffffffffffffffffffffffffffffff82169050919050565b6000611415826113ea565b9050919050565b6114258161140a565b811461143057600080fd5b50565b6000813590506114428161141c565b92915050565b60006020828403121561145e5761145d611251565b5b600061146c84828501611433565b91505092915050565b600081519050919050565b600082825260208201905092915050565b6000819050602082019050919050565b6000819050919050565b60006114c66114c16114bc846113ea565b6114a1565b6113ea565b9050919050565b60006114d8826114ab565b9050919050565b60006114ea826114cd565b9050919050565b6114fa816114df565b82525050565b600061150c83836114f1565b60208301905092915050565b6000602082019050919050565b600061153082611475565b61153a8185611480565b935061154583611491565b8060005b8381101561157657815161155d8882611500565b975061156883611518565b925050600181019050611549565b5085935050505092915050565b6000602082019050818103600083015261159d8184611525565b905092915050565b60006115b08261140a565b9050919050565b6115c0816115a5565b81146115cb57600080fd5b50565b6000813590506115dd816115b7565b92915050565b6000602082840312156115f9576115f8611251565b5b6000611607848285016115ce565b91505092915050565b6000806040838503121561162757611626611251565b5b600061163585828601611433565b9250506020611646858286016115ce565b9150509250929050565b600081519050919050565b600082825260208201905092915050565b60005b8381101561168a57808201518184015260208101905061166f565b60008484015250505050565b60006116a182611650565b6116ab818561165b565b93506116bb81856020860161166c565b6116c481611265565b840191505092915050565b6000819050919050565b6116e2816116cf565b82525050565b60008115159050919050565b6116fd816116e8565b82525050565b600060a08301600083015184820360008601526117208282611696565b915050602083015161173560208601826116d9565b50604083015161174860408601826116d9565b50606083015161175b60608601826114f1565b50608083015161176e60808601826116f4565b508091505092915050565b600060208201905081810360008301526117938184611703565b905092915050565b6117a4816116cf565b81146117af57600080fd5b50565b6000813590506117c18161179b565b92915050565b6000806000606084860312156117e0576117df611251565b5b60006117ee868287016117b2565b93505060206117ff868287016117b2565b925050604061181086828701611433565b9150509250925092565b600082825260208201905092915050565b7f506c6179657220646f6573206e6f742065786973740000000000000000000000600082015250565b600061186160158361181a565b915061186c8261182b565b602082019050919050565b6000602082019050818103600083015261189081611854565b9050919050565b7f4e487b7100000000000000000000000000000000000000000000000000000000600052602260045260246000fd5b600060028204905060018216806118de57607f821691505b6020821081036118f1576118f0611897565b5b50919050565b60008190508160005260206000209050919050565b60006020601f8301049050919050565b600082821b905092915050565b6000600883026119597fffffffffffffffffffffffffffffffffffffffffffffffffffffffffffffffff8261191c565b611963868361191c565b95508019841693508086168417925050509392505050565b600061199661199161198c846116cf565b6114a1565b6116cf565b9050919050565b6000819050919050565b6119b08361197b565b6119c46119bc8261199d565b848454611929565b825550505050565b600090565b6119d96119cc565b6119e48184846119a7565b505050565b5b81811015611a08576119fd6000826119d1565b6001810190506119ea565b5050565b601f821115611a4d57611a1e816118f7565b611a278461190c565b81016020851015611a36578190505b611a4a611a428561190c565b8301826119e9565b50505b505050565b600082821c905092915050565b6000611a7060001984600802611a52565b1980831691505092915050565b6000611a898383611a5f565b9150826002028217905092915050565b611aa282611650565b67ffffffffffffffff811115611abb57611aba611276565b5b611ac582546118c6565b611ad0828285611a0c565b600060209050601f831160018114611b035760008415611af1578287015190505b611afb8582611a7d565b865550611b63565b601f198416611b11866118f7565b60005b82811015611b3957848901518255600182019150602085019450602081019050611b14565b86831015611b565784890151611b52601f891682611a5f565b8355505b6001600288020188555050505b505050505050565b7f4e487b7100000000000000000000000000000000000000000000000000000000600052603260045260246000fd5b7f4e487b7100000000000000000000000000000000000000000000000000000000600052601160045260246000fd5b6000611bd4826116cf565b9150611bdf836116cf565b9250828203905081811115611bf757611bf6611b9a565b5b92915050565b7f4e487b7100000000000000000000000000000000000000000000000000000000600052603160045260246000fd5b6000611c37826116cf565b91507fffffffffffffffffffffffffffffffffffffffffffffffffffffffffffffffff8203611c6957611c68611b9a565b5b600182019050919050565b7f4f6e6c7920746865206f776e65722063616e20646f2074686973000000000000600082015250565b6000611caa601a8361181a565b9150611cb582611c74565b602082019050919050565b60006020820190508181036000830152611cd981611c9d565b9050919050565b6000611ceb826116cf565b9150611cf6836116cf565b9250828201905080821115611d0e57611d0d611b9a565b5b9291505056fea26469706673582212209607b490145e7a6cd16c6f66ae889c9041086b0f09e19abaeff169a6fa10145064736f6c63430008130033",
  "linkReferences": {},
  "deployedLinkReferences": {}
}