{
  "_format": "hh-sol-artifact-1",
  "contractName": "RockPaperScissors",
  "sourceName": "contracts/RockPaperScissors.sol",
  "abi": [
    {
      "inputs": [
        {
          "internalType": "contract MainContract",
          "name": "main",
          "type": "address"
        },
        {
          "internalType": "enum RockPaperScissors.Choice",
          "name": "playerChoice",
          "type": "uint8"
        }
      ],
      "stateMutability": "payable",
      "type": "constructor"
    },
    {
      "anonymous": false,
      "inputs": [
        {
          "indexed": false,
          "internalType": "address",
          "name": "player",
          "type": "address"
        },
        {
          "indexed": false,
          "internalType": "enum RockPaperScissors.Choice",
          "name": "playerChoice",
          "type": "uint8"
        },
        {
          "indexed": false,
          "internalType": "enum RockPaperScissors.Choice",
          "name": "computerChoice",
          "type": "uint8"
        },
        {
          "indexed": false,
          "internalType": "string",
          "name": "result",
          "type": "string"
        }
      ],
      "name": "GameResult",
      "type": "event"
    },
    {
      "inputs": [],
      "name": "getComputerChoice",
      "outputs": [
        {
          "internalType": "enum RockPaperScissors.Choice",
          "name": "",
          "type": "uint8"
        }
      ],
      "stateMutability": "view",
      "type": "function"
    },
    {
      "inputs": [],
      "name": "getGameOver",
      "outputs": [
        {
          "internalType": "bool",
          "name": "",
          "type": "bool"
        }
      ],
      "stateMutability": "view",
      "type": "function"
    },
    {
      "inputs": [],
      "name": "getIsWinner",
      "outputs": [
        {
          "internalType": "bool",
          "name": "",
          "type": "bool"
        }
      ],
      "stateMutability": "view",
      "type": "function"
    },
    {
      "inputs": [],
      "name": "getPlayerChoice",
      "outputs": [
        {
          "internalType": "enum RockPaperScissors.Choice",
          "name": "",
          "type": "uint8"
        }
      ],
      "stateMutability": "view",
      "type": "function"
    },
    {
      "inputs": [],
      "name": "getWagerChoice",
      "outputs": [
        {
          "internalType": "uint256",
          "name": "",
          "type": "uint256"
        }
      ],
      "stateMutability": "view",
      "type": "function"
    },
    {
      "inputs": [
        {
          "internalType": "uint256",
          "name": "_difficulty",
          "type": "uint256"
        },
        {
          "internalType": "contract MainContract",
          "name": "_contract",
          "type": "address"
        }
      ],
      "name": "payWinner",
      "outputs": [],
      "stateMutability": "payable",
      "type": "function"
    },
    {
      "inputs": [],
      "name": "payWinner",
      "outputs": [],
      "stateMutability": "payable",
      "type": "function"
    },
    {
      "inputs": [
        {
          "internalType": "enum RockPaperScissors.Choice",
          "name": "_playerChoice",
          "type": "uint8"
        }
      ],
      "name": "play",
      "outputs": [],
      "stateMutability": "nonpayable",
      "type": "function"
    },
    {
      "inputs": [
        {
          "internalType": "contract MainContract",
          "name": "_contract",
          "type": "address"
        }
      ],
      "name": "wager",
      "outputs": [],
      "stateMutability": "payable",
      "type": "function"
    }
  ],
  "bytecode": "0x60806040526000600360176101000a81548160ff02191690831515021790555060405162001a2338038062001a238339818101604052810190620000449190620008e0565b655af3107a400034101562000090576040517f08c379a0000000000000000000000000000000000000000000000000000000008152600401620000879062000ac3565b60405180910390fd5b30600360026101000a81548173ffffffffffffffffffffffffffffffffffffffff021916908373ffffffffffffffffffffffffffffffffffffffff1602179055508173ffffffffffffffffffffffffffffffffffffffff1663f80a2cd6306040518263ffffffff1660e01b81526004016200010c919062000aa6565b600060405180830381600087803b1580156200012757600080fd5b505af11580156200013c573d6000803e3d6000fd5b505050508173ffffffffffffffffffffffffffffffffffffffff1663b1275f9a336040518263ffffffff1660e01b81526004016200017b919062000a35565b600060405180830381600087803b1580156200019657600080fd5b505af1158015620001ab573d6000803e3d6000fd5b5050505034600281905550620001c7816200023e60201b60201c565b8173ffffffffffffffffffffffffffffffffffffffff16632a120b58306040518263ffffffff1660e01b815260040162000202919062000aa6565b600060405180830381600087803b1580156200021d57600080fd5b505af115801562000232573d6000803e3d6000fd5b50505050505062000d2b565b6000600362000252620003b060201b60201c565b6200025e919062000c0c565b600281111562000297577f4e487b7100000000000000000000000000000000000000000000000000000000600052602160045260246000fd5b905081600360006101000a81548160ff02191690836002811115620002e5577f4e487b7100000000000000000000000000000000000000000000000000000000600052602160045260246000fd5b021790555080600360016101000a81548160ff0219169083600281111562000336577f4e487b7100000000000000000000000000000000000000000000000000000000600052602160045260246000fd5b021790555060006200034f8383620003e760201b60201c565b90507f13c238bcc90299b9db64b2bba5a4abd1e617f369aa05c58609738e180d1c31153384848460405162000388949392919062000a52565b60405180910390a16001600360176101000a81548160ff021916908315150217905550505050565b6000444233604051602001620003c993929190620009f2565b6040516020818303038152906040528051906020012060001c905090565b606081600281111562000423577f4e487b7100000000000000000000000000000000000000000000000000000000600052602160045260246000fd5b8360028111156200045d577f4e487b7100000000000000000000000000000000000000000000000000000000600052602160045260246000fd5b1415620004b257620004746200086860201b60201c565b6040518060400160405280600b81526020017f4974277320612074696521000000000000000000000000000000000000000000815250905062000862565b60006002811115620004ed577f4e487b7100000000000000000000000000000000000000000000000000000000600052602160045260246000fd5b83600281111562000527577f4e487b7100000000000000000000000000000000000000000000000000000000600052602160045260246000fd5b148015620005a657506002808111156200056a577f4e487b7100000000000000000000000000000000000000000000000000000000600052602160045260246000fd5b826002811115620005a4577f4e487b7100000000000000000000000000000000000000000000000000000000600052602160045260246000fd5b145b80620006a3575060016002811115620005e8577f4e487b7100000000000000000000000000000000000000000000000000000000600052602160045260246000fd5b83600281111562000622577f4e487b7100000000000000000000000000000000000000000000000000000000600052602160045260246000fd5b148015620006a257506000600281111562000666577f4e487b7100000000000000000000000000000000000000000000000000000000600052602160045260246000fd5b826002811115620006a0577f4e487b7100000000000000000000000000000000000000000000000000000000600052602160045260246000fd5b145b5b806200079f5750600280811115620006e4577f4e487b7100000000000000000000000000000000000000000000000000000000600052602160045260246000fd5b8360028111156200071e577f4e487b7100000000000000000000000000000000000000000000000000000000600052602160045260246000fd5b1480156200079e57506001600281111562000762577f4e487b7100000000000000000000000000000000000000000000000000000000600052602160045260246000fd5b8260028111156200079c577f4e487b7100000000000000000000000000000000000000000000000000000000600052602160045260246000fd5b145b5b156200080e57620007b56200086860201b60201c565b6001600360166101000a81548160ff0219169083151502179055506040518060400160405280600881526020017f596f752077696e21000000000000000000000000000000000000000000000000815250905062000862565b6000600360166101000a81548160ff0219169083151502179055506040518060400160405280600981526020017f596f75206c6f736521000000000000000000000000000000000000000000000081525090505b92915050565b3273ffffffffffffffffffffffffffffffffffffffff166108fc479081150290604051600060405180830381858888f19350505050158015620008af573d6000803e3d6000fd5b50565b600081519050620008c38162000d00565b92915050565b600081519050620008da8162000d1a565b92915050565b60008060408385031215620008f457600080fd5b60006200090485828601620008b2565b92505060206200091785828601620008c9565b9150509250929050565b6200092c8162000b01565b82525050565b62000947620009418262000b01565b62000bda565b82525050565b620009588162000b68565b82525050565b620009698162000b90565b82525050565b60006200097c8262000ae5565b62000988818562000af0565b93506200099a81856020860162000ba4565b620009a58162000ca2565b840191505092915050565b6000620009bf60128362000af0565b9150620009cc8262000cc0565b602082019050919050565b620009ec620009e68262000b5e565b62000c02565b82525050565b600062000a008286620009d7565b60208201915062000a128285620009d7565b60208201915062000a24828462000932565b601482019150819050949350505050565b600060208201905062000a4c600083018462000921565b92915050565b600060808201905062000a69600083018762000921565b62000a7860208301866200095e565b62000a8760408301856200095e565b818103606083015262000a9b81846200096f565b905095945050505050565b600060208201905062000abd60008301846200094d565b92915050565b6000602082019050818103600083015262000ade81620009b0565b9050919050565b600081519050919050565b600082825260208201905092915050565b600062000b0e8262000b3e565b9050919050565b600062000b228262000b01565b9050919050565b600081905062000b398262000ce9565b919050565b600073ffffffffffffffffffffffffffffffffffffffff82169050919050565b6000819050919050565b600062000b758262000b7c565b9050919050565b600062000b898262000b3e565b9050919050565b600062000b9d8262000b29565b9050919050565b60005b8381101562000bc457808201518184015260208101905062000ba7565b8381111562000bd4576000848401525b50505050565b600062000be78262000bee565b9050919050565b600062000bfb8262000cb3565b9050919050565b6000819050919050565b600062000c198262000b5e565b915062000c268362000b5e565b92508262000c395762000c3862000c44565b5b828206905092915050565b7f4e487b7100000000000000000000000000000000000000000000000000000000600052601260045260246000fd5b7f4e487b7100000000000000000000000000000000000000000000000000000000600052602160045260246000fd5b6000601f19601f8301169050919050565b60008160601b9050919050565b7f4e6f742062657474696e6720656e6f7567680000000000000000000000000000600082015250565b6003811062000cfd5762000cfc62000c73565b5b50565b62000d0b8162000b15565b811462000d1757600080fd5b50565b6003811062000d2857600080fd5b50565b610ce88062000d3b6000396000f3fe6080604052600436106100865760003560e01c8063895088321161005957806389508832146101175780639c2bf42214610142578063be71248a1461016d578063db96524214610177578063e26e6f23146101a257610086565b806347b94f831461008b5780634d619bee146100a757806353a04b05146100c357806387ad25a9146100ec575b600080fd5b6100a560048036038101906100a091906108fe565b6101cd565b005b6100c160048036038101906100bc91906108ac565b6101d1565b005b3480156100cf57600080fd5b506100ea60048036038101906100e591906108d5565b6101d4565b005b3480156100f857600080fd5b5061010161032f565b60405161010e9190610a81565b60405180910390f35b34801561012357600080fd5b5061012c610346565b6040516101399190610a81565b60405180910390f35b34801561014e57600080fd5b5061015761035d565b6040516101649190610a66565b60405180910390f35b610175610374565b005b34801561018357600080fd5b5061018c6103bd565b6040516101999190610a66565b60405180910390f35b3480156101ae57600080fd5b506101b76103d4565b6040516101c49190610a9c565b60405180910390f35b5050565b50565b600060036101e06103de565b6101ea9190610bb3565b6002811115610222577f4e487b7100000000000000000000000000000000000000000000000000000000600052602160045260246000fd5b905081600360006101000a81548160ff0219169083600281111561026f577f4e487b7100000000000000000000000000000000000000000000000000000000600052602160045260246000fd5b021790555080600360016101000a81548160ff021916908360028111156102bf577f4e487b7100000000000000000000000000000000000000000000000000000000600052602160045260246000fd5b021790555060006102d08383610413565b90507f13c238bcc90299b9db64b2bba5a4abd1e617f369aa05c58609738e180d1c3115338484846040516103079493929190610a1a565b60405180910390a16001600360176101000a81548160ff021916908315150217905550505050565b6000600360009054906101000a900460ff16905090565b6000600360019054906101000a900460ff16905090565b6000600360179054906101000a900460ff16905090565b3273ffffffffffffffffffffffffffffffffffffffff166108fc479081150290604051600060405180830381858888f193505050501580156103ba573d6000803e3d6000fd5b50565b6000600360169054906101000a900460ff16905090565b6000600254905090565b60004442336040516020016103f5939291906109dd565b6040516020818303038152906040528051906020012060001c905090565b606081600281111561044e577f4e487b7100000000000000000000000000000000000000000000000000000000600052602160045260246000fd5b836002811115610487577f4e487b7100000000000000000000000000000000000000000000000000000000600052602160045260246000fd5b14156104d257610495610374565b6040518060400160405280600b81526020017f49742773206120746965210000000000000000000000000000000000000000008152509050610867565b6000600281111561050c577f4e487b7100000000000000000000000000000000000000000000000000000000600052602160045260246000fd5b836002811115610545577f4e487b7100000000000000000000000000000000000000000000000000000000600052602160045260246000fd5b1480156105c15750600280811115610586577f4e487b7100000000000000000000000000000000000000000000000000000000600052602160045260246000fd5b8260028111156105bf577f4e487b7100000000000000000000000000000000000000000000000000000000600052602160045260246000fd5b145b806106b8575060016002811115610601577f4e487b7100000000000000000000000000000000000000000000000000000000600052602160045260246000fd5b83600281111561063a577f4e487b7100000000000000000000000000000000000000000000000000000000600052602160045260246000fd5b1480156106b757506000600281111561067c577f4e487b7100000000000000000000000000000000000000000000000000000000600052602160045260246000fd5b8260028111156106b5577f4e487b7100000000000000000000000000000000000000000000000000000000600052602160045260246000fd5b145b5b806107ae57506002808111156106f7577f4e487b7100000000000000000000000000000000000000000000000000000000600052602160045260246000fd5b836002811115610730577f4e487b7100000000000000000000000000000000000000000000000000000000600052602160045260246000fd5b1480156107ad575060016002811115610772577f4e487b7100000000000000000000000000000000000000000000000000000000600052602160045260246000fd5b8260028111156107ab577f4e487b7100000000000000000000000000000000000000000000000000000000600052602160045260246000fd5b145b5b15610813576107bb610374565b6001600360166101000a81548160ff0219169083151502179055506040518060400160405280600881526020017f596f752077696e210000000000000000000000000000000000000000000000008152509050610867565b6000600360166101000a81548160ff0219169083151502179055506040518060400160405280600981526020017f596f75206c6f736521000000000000000000000000000000000000000000000081525090505b92915050565b60008135905061087c81610c74565b92915050565b60008135905061089181610c8b565b92915050565b6000813590506108a681610c9b565b92915050565b6000602082840312156108be57600080fd5b60006108cc8482850161086d565b91505092915050565b6000602082840312156108e757600080fd5b60006108f584828501610882565b91505092915050565b6000806040838503121561091157600080fd5b600061091f85828601610897565b92505060206109308582860161086d565b9150509250929050565b61094381610ad3565b82525050565b61095a61095582610ad3565b610b85565b82525050565b61096981610ae5565b82525050565b61097881610b40565b82525050565b600061098982610ab7565b6109938185610ac2565b93506109a3818560208601610b52565b6109ac81610c42565b840191505092915050565b6109c081610b36565b82525050565b6109d76109d282610b36565b610ba9565b82525050565b60006109e982866109c6565b6020820191506109f982856109c6565b602082019150610a098284610949565b601482019150819050949350505050565b6000608082019050610a2f600083018761093a565b610a3c602083018661096f565b610a49604083018561096f565b8181036060830152610a5b818461097e565b905095945050505050565b6000602082019050610a7b6000830184610960565b92915050565b6000602082019050610a96600083018461096f565b92915050565b6000602082019050610ab160008301846109b7565b92915050565b600081519050919050565b600082825260208201905092915050565b6000610ade82610b16565b9050919050565b60008115159050919050565b6000610afc82610ad3565b9050919050565b6000819050610b1182610c60565b919050565b600073ffffffffffffffffffffffffffffffffffffffff82169050919050565b6000819050919050565b6000610b4b82610b03565b9050919050565b60005b83811015610b70578082015181840152602081019050610b55565b83811115610b7f576000848401525b50505050565b6000610b9082610b97565b9050919050565b6000610ba282610c53565b9050919050565b6000819050919050565b6000610bbe82610b36565b9150610bc983610b36565b925082610bd957610bd8610be4565b5b828206905092915050565b7f4e487b7100000000000000000000000000000000000000000000000000000000600052601260045260246000fd5b7f4e487b7100000000000000000000000000000000000000000000000000000000600052602160045260246000fd5b6000601f19601f8301169050919050565b60008160601b9050919050565b60038110610c7157610c70610c13565b5b50565b610c7d81610af1565b8114610c8857600080fd5b50565b60038110610c9857600080fd5b50565b610ca481610b36565b8114610caf57600080fd5b5056fea26469706673582212204425794226318aa8568dfa8b5a8d70b930d6480c48a8ad0503d2b35c5d0957b864736f6c63430008040033",
  "linkReferences": {},
  "deployedLinkReferences": {}
}