{
  "_format": "hh-sol-artifact-1",
  "contractName": "ColorGuess",
  "sourceName": "contracts/ColorGuess.sol",
  "abi": [
    {
      "inputs": [],
      "stateMutability": "nonpayable",
      "type": "constructor"
    },
    {
      "inputs": [],
      "name": "contractBalance",
      "outputs": [
        {
          "internalType": "uint256",
          "name": "",
          "type": "uint256"
        }
      ],
      "stateMutability": "view",
      "type": "function"
    },
    {
      "inputs": [],
      "name": "loadContractBalance",
      "outputs": [],
      "stateMutability": "payable",
      "type": "function"
    },
    {
      "inputs": [
        {
          "internalType": "contract MainContract",
          "name": "_contract",
          "type": "address"
        },
        {
          "internalType": "contract ColorGuessLeaderboardContract",
          "name": "_leaderboard",
          "type": "address"
        },
        {
          "internalType": "uint256",
          "name": "_score",
          "type": "uint256"
        }
      ],
      "name": "losingWager",
      "outputs": [],
      "stateMutability": "nonpayable",
      "type": "function"
    },
    {
      "inputs": [
        {
          "internalType": "uint256",
          "name": "_difficulty",
          "type": "uint256"
        },
        {
          "internalType": "contract MainContract",
          "name": "_contract",
          "type": "address"
        },
        {
          "internalType": "contract ColorGuessLeaderboardContract",
          "name": "_leaderboard",
          "type": "address"
        },
        {
          "internalType": "uint256",
          "name": "_score",
          "type": "uint256"
        }
      ],
      "name": "payWinner",
      "outputs": [],
      "stateMutability": "payable",
      "type": "function"
    },
    {
      "inputs": [
        {
          "internalType": "address",
          "name": "",
          "type": "address"
        }
      ],
      "name": "players",
      "outputs": [
        {
          "internalType": "address payable",
          "name": "id",
          "type": "address"
        },
        {
          "internalType": "uint256",
          "name": "wagerAmmount",
          "type": "uint256"
        },
        {
          "internalType": "bool",
          "name": "hasBet",
          "type": "bool"
        },
        {
          "internalType": "contract ColorGuessTempContract",
          "name": "game",
          "type": "address"
        }
      ],
      "stateMutability": "view",
      "type": "function"
    },
    {
      "inputs": [
        {
          "internalType": "contract MainContract",
          "name": "_contract",
          "type": "address"
        },
        {
          "internalType": "uint256",
          "name": "_difficulty",
          "type": "uint256"
        }
      ],
      "name": "wager",
      "outputs": [],
      "stateMutability": "payable",
      "type": "function"
    }
  ],
  "bytecode": "0x608060405234801561001057600080fd5b50326000806101000a81548173ffffffffffffffffffffffffffffffffffffffff021916908373ffffffffffffffffffffffffffffffffffffffff160217905550612b12806100606000396000f3fe6080604052600436106200005c5760003560e01c806369b648de14620000615780638b7afe2e146200008f5780639407d21814620000bf578063aa0abdfb14620000df578063e2eb41ff14620000eb578063f4cbf60b1462000132575b600080fd5b3480156200006e57600080fd5b506200008d60048036038101906200008791906200121a565b62000152565b005b3480156200009c57600080fd5b50620000a762000532565b604051620000b6919062001287565b60405180910390f35b620000dd6004803603810190620000d79190620012a4565b6200053a565b005b620000e962000a92565b005b348015620000f857600080fd5b5062000117600480360381019062000111919062001347565b62000a94565b60405162000129949392919062001426565b60405180910390f35b6200015060048036038101906200014a919062001473565b62000b11565b005b600160003373ffffffffffffffffffffffffffffffffffffffff1673ffffffffffffffffffffffffffffffffffffffff16815260200190815260200160002060020160009054906101000a900460ff16620001e4576040517f08c379a0000000000000000000000000000000000000000000000000000000008152600401620001db906200151b565b60405180910390fd5b6000600160003373ffffffffffffffffffffffffffffffffffffffff1673ffffffffffffffffffffffffffffffffffffffff16815260200190815260200160002060020160006101000a81548160ff0219169083151502179055506000600160003373ffffffffffffffffffffffffffffffffffffffff1673ffffffffffffffffffffffffffffffffffffffff16815260200190815260200160002060010181905550600160003373ffffffffffffffffffffffffffffffffffffffff1673ffffffffffffffffffffffffffffffffffffffff16815260200190815260200160002060020160019054906101000a900473ffffffffffffffffffffffffffffffffffffffff1673ffffffffffffffffffffffffffffffffffffffff16637d2211d66040518163ffffffff1660e01b815260040162000322906200158d565b600060405180830381600087803b1580156200033d57600080fd5b505af115801562000352573d6000803e3d6000fd5b505050506000600160003373ffffffffffffffffffffffffffffffffffffffff1673ffffffffffffffffffffffffffffffffffffffff16815260200190815260200160002060020160016101000a81548173ffffffffffffffffffffffffffffffffffffffff021916908373ffffffffffffffffffffffffffffffffffffffff1602179055508273ffffffffffffffffffffffffffffffffffffffff1663e2225dfb60016000336040518463ffffffff1660e01b8152600401620004199392919062001646565b600060405180830381600087803b1580156200043457600080fd5b505af115801562000449573d6000803e3d6000fd5b505050508273ffffffffffffffffffffffffffffffffffffffff16632a120b58336040518263ffffffff1660e01b815260040162000488919062001683565b600060405180830381600087803b158015620004a357600080fd5b505af1158015620004b8573d6000803e3d6000fd5b505050508173ffffffffffffffffffffffffffffffffffffffff16635b7cfc6133836040518363ffffffff1660e01b8152600401620004f9929190620016a0565b600060405180830381600087803b1580156200051457600080fd5b505af115801562000529573d6000803e3d6000fd5b50505050505050565b600047905090565b600160003373ffffffffffffffffffffffffffffffffffffffff1673ffffffffffffffffffffffffffffffffffffffff16815260200190815260200160002060020160009054906101000a900460ff16620005cc576040517f08c379a0000000000000000000000000000000000000000000000000000000008152600401620005c3906200151b565b60405180910390fd5b6000600160003373ffffffffffffffffffffffffffffffffffffffff1673ffffffffffffffffffffffffffffffffffffffff168152602001908152602001600020600101541162000654576040517f08c379a00000000000000000000000000000000000000000000000000000000081526004016200064b906200171d565b60405180910390fd5b600084118015620006655750600684105b620006a7576040517f08c379a00000000000000000000000000000000000000000000000000000000081526004016200069e90620017b5565b60405180910390fd5b600084600160003373ffffffffffffffffffffffffffffffffffffffff1673ffffffffffffffffffffffffffffffffffffffff16815260200190815260200160002060010154620006f9919062001806565b90503373ffffffffffffffffffffffffffffffffffffffff166108fc829081150290604051600060405180830381858888f1935050505015801562000742573d6000803e3d6000fd5b506000600160003373ffffffffffffffffffffffffffffffffffffffff1673ffffffffffffffffffffffffffffffffffffffff16815260200190815260200160002060020160006101000a81548160ff0219169083151502179055506000600160003373ffffffffffffffffffffffffffffffffffffffff1673ffffffffffffffffffffffffffffffffffffffff16815260200190815260200160002060010181905550600160003373ffffffffffffffffffffffffffffffffffffffff1673ffffffffffffffffffffffffffffffffffffffff16815260200190815260200160002060020160019054906101000a900473ffffffffffffffffffffffffffffffffffffffff1673ffffffffffffffffffffffffffffffffffffffff16637d2211d66040518163ffffffff1660e01b81526004016200088190620018a1565b600060405180830381600087803b1580156200089c57600080fd5b505af1158015620008b1573d6000803e3d6000fd5b505050506000600160003373ffffffffffffffffffffffffffffffffffffffff1673ffffffffffffffffffffffffffffffffffffffff16815260200190815260200160002060020160016101000a81548173ffffffffffffffffffffffffffffffffffffffff021916908373ffffffffffffffffffffffffffffffffffffffff1602179055508373ffffffffffffffffffffffffffffffffffffffff1663e2225dfb600180336040518463ffffffff1660e01b81526004016200097793929190620018c3565b600060405180830381600087803b1580156200099257600080fd5b505af1158015620009a7573d6000803e3d6000fd5b505050508373ffffffffffffffffffffffffffffffffffffffff16632a120b58336040518263ffffffff1660e01b8152600401620009e6919062001683565b600060405180830381600087803b15801562000a0157600080fd5b505af115801562000a16573d6000803e3d6000fd5b505050508273ffffffffffffffffffffffffffffffffffffffff16635b7cfc6133846040518363ffffffff1660e01b815260040162000a57929190620016a0565b600060405180830381600087803b15801562000a7257600080fd5b505af115801562000a87573d6000803e3d6000fd5b505050505050505050565b565b60016020528060005260406000206000915090508060000160009054906101000a900473ffffffffffffffffffffffffffffffffffffffff16908060010154908060020160009054906101000a900460ff16908060020160019054906101000a900473ffffffffffffffffffffffffffffffffffffffff16905084565b343373ffffffffffffffffffffffffffffffffffffffff1631101562000b6e576040517f08c379a000000000000000000000000000000000000000000000000000000000815260040162000b659062001976565b60405180910390fd5b6000341162000bb4576040517f08c379a000000000000000000000000000000000000000000000000000000000815260040162000bab906200171d565b60405180910390fd5b60008111801562000bc55750600681105b62000c07576040517f08c379a000000000000000000000000000000000000000000000000000000000815260040162000bfe90620017b5565b60405180910390fd5b803462000c15919062001806565b47101562000c5a576040517f08c379a000000000000000000000000000000000000000000000000000000000815260040162000c519062001a0e565b60405180910390fd5b60001515600160003373ffffffffffffffffffffffffffffffffffffffff1673ffffffffffffffffffffffffffffffffffffffff16815260200190815260200160002060020160009054906101000a900460ff1615151462000cf3576040517f08c379a000000000000000000000000000000000000000000000000000000000815260040162000cea9062001af2565b60405180910390fd5b600060405162000d03906200110e565b604051809103906000f08015801562000d20573d6000803e3d6000fd5b50905060405180608001604052803373ffffffffffffffffffffffffffffffffffffffff1681526020013481526020016001151581526020018273ffffffffffffffffffffffffffffffffffffffff16815250600160003373ffffffffffffffffffffffffffffffffffffffff1673ffffffffffffffffffffffffffffffffffffffff16815260200190815260200160002060008201518160000160006101000a81548173ffffffffffffffffffffffffffffffffffffffff021916908373ffffffffffffffffffffffffffffffffffffffff1602179055506020820151816001015560408201518160020160006101000a81548160ff02191690831515021790555060608201518160020160016101000a81548173ffffffffffffffffffffffffffffffffffffffff021916908373ffffffffffffffffffffffffffffffffffffffff1602179055509050508073ffffffffffffffffffffffffffffffffffffffff166329731723346040518263ffffffff1660e01b815260040162000ea8919062001287565b600060405180830381600087803b15801562000ec357600080fd5b505af115801562000ed8573d6000803e3d6000fd5b505050508073ffffffffffffffffffffffffffffffffffffffff1663bc8d3ac4336040518263ffffffff1660e01b815260040162000f17919062001683565b600060405180830381600087803b15801562000f3257600080fd5b505af115801562000f47573d6000803e3d6000fd5b505050508073ffffffffffffffffffffffffffffffffffffffff1663602512e1836040518263ffffffff1660e01b815260040162000f86919062001287565b600060405180830381600087803b15801562000fa157600080fd5b505af115801562000fb6573d6000803e3d6000fd5b505050508273ffffffffffffffffffffffffffffffffffffffff1663b1275f9a336040518263ffffffff1660e01b815260040162000ff5919062001683565b600060405180830381600087803b1580156200101057600080fd5b505af115801562001025573d6000803e3d6000fd5b505050508273ffffffffffffffffffffffffffffffffffffffff166376980a0233836040518363ffffffff1660e01b81526004016200106692919062001b14565b600060405180830381600087803b1580156200108157600080fd5b505af115801562001096573d6000803e3d6000fd5b505050508273ffffffffffffffffffffffffffffffffffffffff1663b1275f9a336040518263ffffffff1660e01b8152600401620010d5919062001683565b600060405180830381600087803b158015620010f057600080fd5b505af115801562001105573d6000803e3d6000fd5b50505050505050565b610f9b8062001b4283390190565b600080fd5b600073ffffffffffffffffffffffffffffffffffffffff82169050919050565b60006200114e8262001121565b9050919050565b6000620011628262001141565b9050919050565b620011748162001155565b81146200118057600080fd5b50565b600081359050620011948162001169565b92915050565b6000620011a78262001141565b9050919050565b620011b9816200119a565b8114620011c557600080fd5b50565b600081359050620011d981620011ae565b92915050565b6000819050919050565b620011f481620011df565b81146200120057600080fd5b50565b6000813590506200121481620011e9565b92915050565b6000806000606084860312156200123657620012356200111c565b5b6000620012468682870162001183565b93505060206200125986828701620011c8565b92505060406200126c8682870162001203565b9150509250925092565b6200128181620011df565b82525050565b60006020820190506200129e600083018462001276565b92915050565b60008060008060808587031215620012c157620012c06200111c565b5b6000620012d18782880162001203565b9450506020620012e48782880162001183565b9350506040620012f787828801620011c8565b92505060606200130a8782880162001203565b91505092959194509250565b620013218162001141565b81146200132d57600080fd5b50565b600081359050620013418162001316565b92915050565b60006020828403121562001360576200135f6200111c565b5b6000620013708482850162001330565b91505092915050565b6000620013868262001121565b9050919050565b620013988162001379565b82525050565b60008115159050919050565b620013b5816200139e565b82525050565b6000819050919050565b6000620013e6620013e0620013da8462001121565b620013bb565b62001121565b9050919050565b6000620013fa82620013c5565b9050919050565b60006200140e82620013ed565b9050919050565b620014208162001401565b82525050565b60006080820190506200143d60008301876200138d565b6200144c602083018662001276565b6200145b6040830185620013aa565b6200146a606083018462001415565b95945050505050565b600080604083850312156200148d576200148c6200111c565b5b60006200149d8582860162001183565b9250506020620014b08582860162001203565b9150509250929050565b600082825260208201905092915050565b7f596f75206d7573742068617665207761676572656420746f20636f6c6c656374600082015250565b600062001503602083620014ba565b91506200151082620014cb565b602082019050919050565b600060208201905081810360008301526200153681620014f4565b9050919050565b7f4c6f736572210000000000000000000000000000000000000000000000000000600082015250565b600062001575600683620014ba565b915062001582826200153d565b602082019050919050565b60006020820190508181036000830152620015a88162001566565b9050919050565b6000819050919050565b6000620015da620015d4620015ce84620015af565b620013bb565b620011df565b9050919050565b620015ec81620015b9565b82525050565b6000819050919050565b60006200161d620016176200161184620015f2565b620013bb565b620011df565b9050919050565b6200162f81620015fc565b82525050565b620016408162001141565b82525050565b60006060820190506200165d6000830186620015e1565b6200166c602083018562001624565b6200167b604083018462001635565b949350505050565b60006020820190506200169a600083018462001635565b92915050565b6000604082019050620016b7600083018562001635565b620016c6602083018462001276565b9392505050565b7f596f75206d757374207761676572206d6f7265207468616e2030000000000000600082015250565b600062001705601a83620014ba565b91506200171282620016cd565b602082019050919050565b600060208201905081810360008301526200173881620016f6565b9050919050565b7f446966666963756c7479206d7573742062652067726561746572207468616e2060008201527f3020616e64206c657373207468616e20362e205b312c20355d00000000000000602082015250565b60006200179d603983620014ba565b9150620017aa826200173f565b604082019050919050565b60006020820190508181036000830152620017d0816200178e565b9050919050565b7f4e487b7100000000000000000000000000000000000000000000000000000000600052601160045260246000fd5b60006200181382620011df565b91506200182083620011df565b92508282026200183081620011df565b915082820484148315176200184a5762001849620017d7565b5b5092915050565b7f57696e6e65722100000000000000000000000000000000000000000000000000600082015250565b600062001889600783620014ba565b9150620018968262001851565b602082019050919050565b60006020820190508181036000830152620018bc816200187a565b9050919050565b6000606082019050620018da6000830186620015e1565b620018e96020830185620015e1565b620018f8604083018462001635565b949350505050565b7f596f75206d757374206861766520656e6f7567682066756e647320746f20776160008201527f6765720000000000000000000000000000000000000000000000000000000000602082015250565b60006200195e602383620014ba565b91506200196b8262001900565b604082019050919050565b6000602082019050818103600083015262001991816200194f565b9050919050565b7f54686520636f6e747261637420646f6573206e6f74206861766520656e6f756760008201527f682066756e647320746f20706179206f7574207468652077696e6e6572000000602082015250565b6000620019f6603d83620014ba565b915062001a038262001998565b604082019050919050565b6000602082019050818103600083015262001a2981620019e7565b9050919050565b7f596f75206861766520616c7265616479207761676572656420616e642064696460008201527f206e6f74207265706f727420796f7572206c6f73742e204661696c757265207460208201527f6f20646f20736f20726573756c747320696e206e6f74206265696e672061626c60408201527f6520746f20706c617920616761696e2100000000000000000000000000000000606082015250565b600062001ada607083620014ba565b915062001ae78262001a30565b608082019050919050565b6000602082019050818103600083015262001b0d8162001acb565b9050919050565b600060408201905062001b2b600083018562001635565b62001b3a602083018462001415565b939250505056fe60806040523480156200001157600080fd5b506040518060400160405280600a81526020017f436f6c6f724775657373000000000000000000000000000000000000000000008152506005908162000058919062000320565b506040518060400160405280600b81526020017f496e2050726f6772657373000000000000000000000000000000000000000000815250600690816200009f919062000320565b5062000407565b600081519050919050565b7f4e487b7100000000000000000000000000000000000000000000000000000000600052604160045260246000fd5b7f4e487b7100000000000000000000000000000000000000000000000000000000600052602260045260246000fd5b600060028204905060018216806200012857607f821691505b6020821081036200013e576200013d620000e0565b5b50919050565b60008190508160005260206000209050919050565b60006020601f8301049050919050565b600082821b905092915050565b600060088302620001a87fffffffffffffffffffffffffffffffffffffffffffffffffffffffffffffffff8262000169565b620001b4868362000169565b95508019841693508086168417925050509392505050565b6000819050919050565b6000819050919050565b600062000201620001fb620001f584620001cc565b620001d6565b620001cc565b9050919050565b6000819050919050565b6200021d83620001e0565b620002356200022c8262000208565b84845462000176565b825550505050565b600090565b6200024c6200023d565b6200025981848462000212565b505050565b5b8181101562000281576200027560008262000242565b6001810190506200025f565b5050565b601f821115620002d0576200029a8162000144565b620002a58462000159565b81016020851015620002b5578190505b620002cd620002c48562000159565b8301826200025e565b50505b505050565b600082821c905092915050565b6000620002f560001984600802620002d5565b1980831691505092915050565b6000620003108383620002e2565b9150826002028217905092915050565b6200032b82620000a6565b67ffffffffffffffff811115620003475762000346620000b1565b5b6200035382546200010f565b6200036082828562000285565b600060209050601f83116001811462000398576000841562000383578287015190505b6200038f858262000302565b865550620003ff565b601f198416620003a88662000144565b60005b82811015620003d257848901518255600182019150602085019450602081019050620003ab565b86831015620003f25784890151620003ee601f891682620002e2565b8355505b6001600288020188555050505b505050505050565b610b8480620004176000396000f3fe6080604052600436106100a75760003560e01c80637d2211d6116100645780637d2211d61461018c578063b6baffe3146101b5578063bbda33d9146101e0578063bc8d3ac41461020b578063be71248a14610234578063e186448c1461023e576100a7565b806329731723146100ac5780633308f42d146100d557806347b94f83146101005780634d619bee1461011c5780634e69d56014610138578063602512e114610163575b600080fd5b3480156100b857600080fd5b506100d360048036038101906100ce9190610489565b610269565b005b3480156100e157600080fd5b506100ea610273565b6040516100f791906104f7565b60405180910390f35b61011a60048036038101906101159190610550565b61029d565b005b61013660048036038101906101319190610590565b6102a1565b005b34801561014457600080fd5b5061014d6102a4565b60405161015a919061064d565b60405180910390f35b34801561016f57600080fd5b5061018a60048036038101906101859190610489565b610336565b005b34801561019857600080fd5b506101b360048036038101906101ae91906107a4565b610340565b005b3480156101c157600080fd5b506101ca610353565b6040516101d791906107fc565b60405180910390f35b3480156101ec57600080fd5b506101f561035d565b604051610202919061064d565b60405180910390f35b34801561021757600080fd5b50610232600480360381019061022d9190610843565b6103ef565b005b61023c610433565b005b34801561024a57600080fd5b50610253610435565b60405161026091906107fc565b60405180910390f35b8060028190555050565b6000600360009054906101000a900473ffffffffffffffffffffffffffffffffffffffff16905090565b5050565b50565b6060600680546102b39061089f565b80601f01602080910402602001604051908101604052809291908181526020018280546102df9061089f565b801561032c5780601f106103015761010080835404028352916020019161032c565b820191906000526020600020905b81548152906001019060200180831161030f57829003601f168201915b5050505050905090565b8060048190555050565b806006908161034f9190610a7c565b5050565b6000600454905090565b60606005805461036c9061089f565b80601f01602080910402602001604051908101604052809291908181526020018280546103989061089f565b80156103e55780601f106103ba576101008083540402835291602001916103e5565b820191906000526020600020905b8154815290600101906020018083116103c857829003601f168201915b5050505050905090565b80600360006101000a81548173ffffffffffffffffffffffffffffffffffffffff021916908373ffffffffffffffffffffffffffffffffffffffff16021790555050565b565b6000600254905090565b6000604051905090565b600080fd5b600080fd5b6000819050919050565b61046681610453565b811461047157600080fd5b50565b6000813590506104838161045d565b92915050565b60006020828403121561049f5761049e610449565b5b60006104ad84828501610474565b91505092915050565b600073ffffffffffffffffffffffffffffffffffffffff82169050919050565b60006104e1826104b6565b9050919050565b6104f1816104d6565b82525050565b600060208201905061050c60008301846104e8565b92915050565b600061051d826104d6565b9050919050565b61052d81610512565b811461053857600080fd5b50565b60008135905061054a81610524565b92915050565b6000806040838503121561056757610566610449565b5b600061057585828601610474565b92505060206105868582860161053b565b9150509250929050565b6000602082840312156105a6576105a5610449565b5b60006105b48482850161053b565b91505092915050565b600081519050919050565b600082825260208201905092915050565b60005b838110156105f75780820151818401526020810190506105dc565b60008484015250505050565b6000601f19601f8301169050919050565b600061061f826105bd565b61062981856105c8565b93506106398185602086016105d9565b61064281610603565b840191505092915050565b600060208201905081810360008301526106678184610614565b905092915050565b600080fd5b600080fd5b7f4e487b7100000000000000000000000000000000000000000000000000000000600052604160045260246000fd5b6106b182610603565b810181811067ffffffffffffffff821117156106d0576106cf610679565b5b80604052505050565b60006106e361043f565b90506106ef82826106a8565b919050565b600067ffffffffffffffff82111561070f5761070e610679565b5b61071882610603565b9050602081019050919050565b82818337600083830152505050565b6000610747610742846106f4565b6106d9565b90508281526020810184848401111561076357610762610674565b5b61076e848285610725565b509392505050565b600082601f83011261078b5761078a61066f565b5b813561079b848260208601610734565b91505092915050565b6000602082840312156107ba576107b9610449565b5b600082013567ffffffffffffffff8111156107d8576107d761044e565b5b6107e484828501610776565b91505092915050565b6107f681610453565b82525050565b600060208201905061081160008301846107ed565b92915050565b610820816104d6565b811461082b57600080fd5b50565b60008135905061083d81610817565b92915050565b60006020828403121561085957610858610449565b5b60006108678482850161082e565b91505092915050565b7f4e487b7100000000000000000000000000000000000000000000000000000000600052602260045260246000fd5b600060028204905060018216806108b757607f821691505b6020821081036108ca576108c9610870565b5b50919050565b60008190508160005260206000209050919050565b60006020601f8301049050919050565b600082821b905092915050565b6000600883026109327fffffffffffffffffffffffffffffffffffffffffffffffffffffffffffffffff826108f5565b61093c86836108f5565b95508019841693508086168417925050509392505050565b6000819050919050565b600061097961097461096f84610453565b610954565b610453565b9050919050565b6000819050919050565b6109938361095e565b6109a761099f82610980565b848454610902565b825550505050565b600090565b6109bc6109af565b6109c781848461098a565b505050565b5b818110156109eb576109e06000826109b4565b6001810190506109cd565b5050565b601f821115610a3057610a01816108d0565b610a0a846108e5565b81016020851015610a19578190505b610a2d610a25856108e5565b8301826109cc565b50505b505050565b600082821c905092915050565b6000610a5360001984600802610a35565b1980831691505092915050565b6000610a6c8383610a42565b9150826002028217905092915050565b610a85826105bd565b67ffffffffffffffff811115610a9e57610a9d610679565b5b610aa8825461089f565b610ab38282856109ef565b600060209050601f831160018114610ae65760008415610ad4578287015190505b610ade8582610a60565b865550610b46565b601f198416610af4866108d0565b60005b82811015610b1c57848901518255600182019150602085019450602081019050610af7565b86831015610b395784890151610b35601f891682610a42565b8355505b6001600288020188555050505b50505050505056fea26469706673582212203f90e75d6e1bc7a5d520f9a63b2af85cd7a2b22a8cb9cf9d05efa115e981c18164736f6c63430008130033a26469706673582212208e0a1760aac5d20800907443249066da520da9948d9ef0c163007d382b684bbc64736f6c63430008130033",
  "linkReferences": {},
  "deployedLinkReferences": {}
}