{
  "_format": "hh-sol-artifact-1",
  "contractName": "ColorGuessTempContract",
  "sourceName": "contracts/ColorGuessTempContract.sol",
  "abi": [
    {
      "inputs": [],
      "stateMutability": "nonpayable",
      "type": "constructor"
    },
    {
      "inputs": [],
      "name": "getDifficulty",
      "outputs": [
        {
          "internalType": "uint256",
          "name": "",
          "type": "uint256"
        }
      ],
      "stateMutability": "view",
      "type": "function"
    },
    {
      "inputs": [],
      "name": "getGameName",
      "outputs": [
        {
          "internalType": "string",
          "name": "",
          "type": "string"
        }
      ],
      "stateMutability": "view",
      "type": "function"
    },
    {
      "inputs": [],
      "name": "getPlayer",
      "outputs": [
        {
          "internalType": "address",
          "name": "",
          "type": "address"
        }
      ],
      "stateMutability": "view",
      "type": "function"
    },
    {
      "inputs": [],
      "name": "getWagerAmmount",
      "outputs": [
        {
          "internalType": "uint256",
          "name": "",
          "type": "uint256"
        }
      ],
      "stateMutability": "view",
      "type": "function"
    },
    {
      "inputs": [
        {
          "internalType": "uint256",
          "name": "_difficulty",
          "type": "uint256"
        },
        {
          "internalType": "contract MainContract",
          "name": "_contract",
          "type": "address"
        }
      ],
      "name": "payWinner",
      "outputs": [],
      "stateMutability": "payable",
      "type": "function"
    },
    {
      "inputs": [],
      "name": "payWinner",
      "outputs": [],
      "stateMutability": "payable",
      "type": "function"
    },
    {
      "inputs": [
        {
          "internalType": "uint256",
          "name": "_difficulty",
          "type": "uint256"
        }
      ],
      "name": "setDifficulty",
      "outputs": [],
      "stateMutability": "nonpayable",
      "type": "function"
    },
    {
      "inputs": [
        {
          "internalType": "address",
          "name": "_player",
          "type": "address"
        }
      ],
      "name": "setPlayer",
      "outputs": [],
      "stateMutability": "nonpayable",
      "type": "function"
    },
    {
      "inputs": [
        {
          "internalType": "uint256",
          "name": "_wagerAmmount",
          "type": "uint256"
        }
      ],
      "name": "setWagerAmmount",
      "outputs": [],
      "stateMutability": "nonpayable",
      "type": "function"
    },
    {
      "inputs": [
        {
          "internalType": "contract MainContract",
          "name": "_contract",
          "type": "address"
        }
      ],
      "name": "wager",
      "outputs": [],
      "stateMutability": "payable",
      "type": "function"
    }
  ],
  "bytecode": "0x60806040523480156200001157600080fd5b506040518060400160405280600a81526020017f436f6c6f7247756573730000000000000000000000000000000000000000000081525060059081620000589190620002d9565b50620003c0565b600081519050919050565b7f4e487b7100000000000000000000000000000000000000000000000000000000600052604160045260246000fd5b7f4e487b7100000000000000000000000000000000000000000000000000000000600052602260045260246000fd5b60006002820490506001821680620000e157607f821691505b602082108103620000f757620000f662000099565b5b50919050565b60008190508160005260206000209050919050565b60006020601f8301049050919050565b600082821b905092915050565b600060088302620001617fffffffffffffffffffffffffffffffffffffffffffffffffffffffffffffffff8262000122565b6200016d868362000122565b95508019841693508086168417925050509392505050565b6000819050919050565b6000819050919050565b6000620001ba620001b4620001ae8462000185565b6200018f565b62000185565b9050919050565b6000819050919050565b620001d68362000199565b620001ee620001e582620001c1565b8484546200012f565b825550505050565b600090565b62000205620001f6565b62000212818484620001cb565b505050565b5b818110156200023a576200022e600082620001fb565b60018101905062000218565b5050565b601f82111562000289576200025381620000fd565b6200025e8462000112565b810160208510156200026e578190505b620002866200027d8562000112565b83018262000217565b50505b505050565b600082821c905092915050565b6000620002ae600019846008026200028e565b1980831691505092915050565b6000620002c983836200029b565b9150826002028217905092915050565b620002e4826200005f565b67ffffffffffffffff8111156200030057620002ff6200006a565b5b6200030c8254620000c8565b620003198282856200023e565b600060209050601f8311600181146200035157600084156200033c578287015190505b620003488582620002bb565b865550620003b8565b601f1984166200036186620000fd565b60005b828110156200038b5784890151825560018201915060208501945060208101905062000364565b86831015620003ab5784890151620003a7601f8916826200029b565b8355505b6001600288020188555050505b505050505050565b61066a80620003d06000396000f3fe6080604052600436106100915760003560e01c8063b6baffe311610059578063b6baffe31461014b578063bbda33d914610176578063bc8d3ac4146101a1578063be71248a146101ca578063e186448c146101d457610091565b806329731723146100965780633308f42d146100bf57806347b94f83146100ea5780634d619bee14610106578063602512e114610122575b600080fd5b3480156100a257600080fd5b506100bd60048036038101906100b8919061036b565b6101ff565b005b3480156100cb57600080fd5b506100d4610209565b6040516100e191906103d9565b60405180910390f35b61010460048036038101906100ff9190610432565b610233565b005b610120600480360381019061011b9190610472565b610237565b005b34801561012e57600080fd5b506101496004803603810190610144919061036b565b61023a565b005b34801561015757600080fd5b50610160610244565b60405161016d91906104ae565b60405180910390f35b34801561018257600080fd5b5061018b61024e565b6040516101989190610559565b60405180910390f35b3480156101ad57600080fd5b506101c860048036038101906101c391906105a7565b6102e0565b005b6101d2610324565b005b3480156101e057600080fd5b506101e9610326565b6040516101f691906104ae565b60405180910390f35b8060028190555050565b6000600360009054906101000a900473ffffffffffffffffffffffffffffffffffffffff16905090565b5050565b50565b8060048190555050565b6000600454905090565b60606005805461025d90610603565b80601f016020809104026020016040519081016040528092919081815260200182805461028990610603565b80156102d65780601f106102ab576101008083540402835291602001916102d6565b820191906000526020600020905b8154815290600101906020018083116102b957829003601f168201915b5050505050905090565b80600360006101000a81548173ffffffffffffffffffffffffffffffffffffffff021916908373ffffffffffffffffffffffffffffffffffffffff16021790555050565b565b6000600254905090565b600080fd5b6000819050919050565b61034881610335565b811461035357600080fd5b50565b6000813590506103658161033f565b92915050565b60006020828403121561038157610380610330565b5b600061038f84828501610356565b91505092915050565b600073ffffffffffffffffffffffffffffffffffffffff82169050919050565b60006103c382610398565b9050919050565b6103d3816103b8565b82525050565b60006020820190506103ee60008301846103ca565b92915050565b60006103ff826103b8565b9050919050565b61040f816103f4565b811461041a57600080fd5b50565b60008135905061042c81610406565b92915050565b6000806040838503121561044957610448610330565b5b600061045785828601610356565b92505060206104688582860161041d565b9150509250929050565b60006020828403121561048857610487610330565b5b60006104968482850161041d565b91505092915050565b6104a881610335565b82525050565b60006020820190506104c3600083018461049f565b92915050565b600081519050919050565b600082825260208201905092915050565b60005b838110156105035780820151818401526020810190506104e8565b60008484015250505050565b6000601f19601f8301169050919050565b600061052b826104c9565b61053581856104d4565b93506105458185602086016104e5565b61054e8161050f565b840191505092915050565b600060208201905081810360008301526105738184610520565b905092915050565b610584816103b8565b811461058f57600080fd5b50565b6000813590506105a18161057b565b92915050565b6000602082840312156105bd576105bc610330565b5b60006105cb84828501610592565b91505092915050565b7f4e487b7100000000000000000000000000000000000000000000000000000000600052602260045260246000fd5b6000600282049050600182168061061b57607f821691505b60208210810361062e5761062d6105d4565b5b5091905056fea2646970667358221220e8c7d8322033f5c4966bfc2d437e3c31669746acd81d6d9a07571997aae15f6364736f6c63430008130033",
  "linkReferences": {},
  "deployedLinkReferences": {}
}