{
  "_format": "hh-sol-artifact-1",
  "contractName": "ColorGuessTempContract",
  "sourceName": "contracts/ColorGuessTempContract.sol",
  "abi": [
    {
      "inputs": [],
      "stateMutability": "nonpayable",
      "type": "constructor"
    },
    {
      "inputs": [],
      "name": "getDifficulty",
      "outputs": [
        {
          "internalType": "uint256",
          "name": "",
          "type": "uint256"
        }
      ],
      "stateMutability": "view",
      "type": "function"
    },
    {
      "inputs": [],
      "name": "getGameName",
      "outputs": [
        {
          "internalType": "string",
          "name": "",
          "type": "string"
        }
      ],
      "stateMutability": "view",
      "type": "function"
    },
    {
      "inputs": [],
      "name": "getPlayer",
      "outputs": [
        {
          "internalType": "address",
          "name": "",
          "type": "address"
        }
      ],
      "stateMutability": "view",
      "type": "function"
    },
    {
      "inputs": [],
      "name": "getStatus",
      "outputs": [
        {
          "internalType": "string",
          "name": "",
          "type": "string"
        }
      ],
      "stateMutability": "view",
      "type": "function"
    },
    {
      "inputs": [],
      "name": "getWagerAmmount",
      "outputs": [
        {
          "internalType": "uint256",
          "name": "",
          "type": "uint256"
        }
      ],
      "stateMutability": "view",
      "type": "function"
    },
    {
      "inputs": [
        {
          "internalType": "uint256",
          "name": "_difficulty",
          "type": "uint256"
        },
        {
          "internalType": "contract MainContract",
          "name": "_contract",
          "type": "address"
        }
      ],
      "name": "payWinner",
      "outputs": [],
      "stateMutability": "payable",
      "type": "function"
    },
    {
      "inputs": [],
      "name": "payWinner",
      "outputs": [],
      "stateMutability": "payable",
      "type": "function"
    },
    {
      "inputs": [
        {
          "internalType": "uint256",
          "name": "_difficulty",
          "type": "uint256"
        }
      ],
      "name": "setDifficulty",
      "outputs": [],
      "stateMutability": "nonpayable",
      "type": "function"
    },
    {
      "inputs": [
        {
          "internalType": "address",
          "name": "_player",
          "type": "address"
        }
      ],
      "name": "setPlayer",
      "outputs": [],
      "stateMutability": "nonpayable",
      "type": "function"
    },
    {
      "inputs": [
        {
          "internalType": "string",
          "name": "_status",
          "type": "string"
        }
      ],
      "name": "setStatus",
      "outputs": [],
      "stateMutability": "nonpayable",
      "type": "function"
    },
    {
      "inputs": [
        {
          "internalType": "uint256",
          "name": "_wagerAmmount",
          "type": "uint256"
        }
      ],
      "name": "setWagerAmmount",
      "outputs": [],
      "stateMutability": "nonpayable",
      "type": "function"
    },
    {
      "inputs": [
        {
          "internalType": "contract MainContract",
          "name": "_contract",
          "type": "address"
        }
      ],
      "name": "wager",
      "outputs": [],
      "stateMutability": "payable",
      "type": "function"
    }
  ],
  "bytecode": "0x60806040523480156200001157600080fd5b506040518060400160405280600a81526020017f436f6c6f724775657373000000000000000000000000000000000000000000008152506005908162000058919062000320565b506040518060400160405280600b81526020017f496e2050726f6772657373000000000000000000000000000000000000000000815250600690816200009f919062000320565b5062000407565b600081519050919050565b7f4e487b7100000000000000000000000000000000000000000000000000000000600052604160045260246000fd5b7f4e487b7100000000000000000000000000000000000000000000000000000000600052602260045260246000fd5b600060028204905060018216806200012857607f821691505b6020821081036200013e576200013d620000e0565b5b50919050565b60008190508160005260206000209050919050565b60006020601f8301049050919050565b600082821b905092915050565b600060088302620001a87fffffffffffffffffffffffffffffffffffffffffffffffffffffffffffffffff8262000169565b620001b4868362000169565b95508019841693508086168417925050509392505050565b6000819050919050565b6000819050919050565b600062000201620001fb620001f584620001cc565b620001d6565b620001cc565b9050919050565b6000819050919050565b6200021d83620001e0565b620002356200022c8262000208565b84845462000176565b825550505050565b600090565b6200024c6200023d565b6200025981848462000212565b505050565b5b8181101562000281576200027560008262000242565b6001810190506200025f565b5050565b601f821115620002d0576200029a8162000144565b620002a58462000159565b81016020851015620002b5578190505b620002cd620002c48562000159565b8301826200025e565b50505b505050565b600082821c905092915050565b6000620002f560001984600802620002d5565b1980831691505092915050565b6000620003108383620002e2565b9150826002028217905092915050565b6200032b82620000a6565b67ffffffffffffffff811115620003475762000346620000b1565b5b6200035382546200010f565b6200036082828562000285565b600060209050601f83116001811462000398576000841562000383578287015190505b6200038f858262000302565b865550620003ff565b601f198416620003a88662000144565b60005b82811015620003d257848901518255600182019150602085019450602081019050620003ab565b86831015620003f25784890151620003ee601f891682620002e2565b8355505b6001600288020188555050505b505050505050565b610b8480620004176000396000f3fe6080604052600436106100a75760003560e01c80637d2211d6116100645780637d2211d61461018c578063b6baffe3146101b5578063bbda33d9146101e0578063bc8d3ac41461020b578063be71248a14610234578063e186448c1461023e576100a7565b806329731723146100ac5780633308f42d146100d557806347b94f83146101005780634d619bee1461011c5780634e69d56014610138578063602512e114610163575b600080fd5b3480156100b857600080fd5b506100d360048036038101906100ce9190610489565b610269565b005b3480156100e157600080fd5b506100ea610273565b6040516100f791906104f7565b60405180910390f35b61011a60048036038101906101159190610550565b61029d565b005b61013660048036038101906101319190610590565b6102a1565b005b34801561014457600080fd5b5061014d6102a4565b60405161015a919061064d565b60405180910390f35b34801561016f57600080fd5b5061018a60048036038101906101859190610489565b610336565b005b34801561019857600080fd5b506101b360048036038101906101ae91906107a4565b610340565b005b3480156101c157600080fd5b506101ca610353565b6040516101d791906107fc565b60405180910390f35b3480156101ec57600080fd5b506101f561035d565b604051610202919061064d565b60405180910390f35b34801561021757600080fd5b50610232600480360381019061022d9190610843565b6103ef565b005b61023c610433565b005b34801561024a57600080fd5b50610253610435565b60405161026091906107fc565b60405180910390f35b8060028190555050565b6000600360009054906101000a900473ffffffffffffffffffffffffffffffffffffffff16905090565b5050565b50565b6060600680546102b39061089f565b80601f01602080910402602001604051908101604052809291908181526020018280546102df9061089f565b801561032c5780601f106103015761010080835404028352916020019161032c565b820191906000526020600020905b81548152906001019060200180831161030f57829003601f168201915b5050505050905090565b8060048190555050565b806006908161034f9190610a7c565b5050565b6000600454905090565b60606005805461036c9061089f565b80601f01602080910402602001604051908101604052809291908181526020018280546103989061089f565b80156103e55780601f106103ba576101008083540402835291602001916103e5565b820191906000526020600020905b8154815290600101906020018083116103c857829003601f168201915b5050505050905090565b80600360006101000a81548173ffffffffffffffffffffffffffffffffffffffff021916908373ffffffffffffffffffffffffffffffffffffffff16021790555050565b565b6000600254905090565b6000604051905090565b600080fd5b600080fd5b6000819050919050565b61046681610453565b811461047157600080fd5b50565b6000813590506104838161045d565b92915050565b60006020828403121561049f5761049e610449565b5b60006104ad84828501610474565b91505092915050565b600073ffffffffffffffffffffffffffffffffffffffff82169050919050565b60006104e1826104b6565b9050919050565b6104f1816104d6565b82525050565b600060208201905061050c60008301846104e8565b92915050565b600061051d826104d6565b9050919050565b61052d81610512565b811461053857600080fd5b50565b60008135905061054a81610524565b92915050565b6000806040838503121561056757610566610449565b5b600061057585828601610474565b92505060206105868582860161053b565b9150509250929050565b6000602082840312156105a6576105a5610449565b5b60006105b48482850161053b565b91505092915050565b600081519050919050565b600082825260208201905092915050565b60005b838110156105f75780820151818401526020810190506105dc565b60008484015250505050565b6000601f19601f8301169050919050565b600061061f826105bd565b61062981856105c8565b93506106398185602086016105d9565b61064281610603565b840191505092915050565b600060208201905081810360008301526106678184610614565b905092915050565b600080fd5b600080fd5b7f4e487b7100000000000000000000000000000000000000000000000000000000600052604160045260246000fd5b6106b182610603565b810181811067ffffffffffffffff821117156106d0576106cf610679565b5b80604052505050565b60006106e361043f565b90506106ef82826106a8565b919050565b600067ffffffffffffffff82111561070f5761070e610679565b5b61071882610603565b9050602081019050919050565b82818337600083830152505050565b6000610747610742846106f4565b6106d9565b90508281526020810184848401111561076357610762610674565b5b61076e848285610725565b509392505050565b600082601f83011261078b5761078a61066f565b5b813561079b848260208601610734565b91505092915050565b6000602082840312156107ba576107b9610449565b5b600082013567ffffffffffffffff8111156107d8576107d761044e565b5b6107e484828501610776565b91505092915050565b6107f681610453565b82525050565b600060208201905061081160008301846107ed565b92915050565b610820816104d6565b811461082b57600080fd5b50565b60008135905061083d81610817565b92915050565b60006020828403121561085957610858610449565b5b60006108678482850161082e565b91505092915050565b7f4e487b7100000000000000000000000000000000000000000000000000000000600052602260045260246000fd5b600060028204905060018216806108b757607f821691505b6020821081036108ca576108c9610870565b5b50919050565b60008190508160005260206000209050919050565b60006020601f8301049050919050565b600082821b905092915050565b6000600883026109327fffffffffffffffffffffffffffffffffffffffffffffffffffffffffffffffff826108f5565b61093c86836108f5565b95508019841693508086168417925050509392505050565b6000819050919050565b600061097961097461096f84610453565b610954565b610453565b9050919050565b6000819050919050565b6109938361095e565b6109a761099f82610980565b848454610902565b825550505050565b600090565b6109bc6109af565b6109c781848461098a565b505050565b5b818110156109eb576109e06000826109b4565b6001810190506109cd565b5050565b601f821115610a3057610a01816108d0565b610a0a846108e5565b81016020851015610a19578190505b610a2d610a25856108e5565b8301826109cc565b50505b505050565b600082821c905092915050565b6000610a5360001984600802610a35565b1980831691505092915050565b6000610a6c8383610a42565b9150826002028217905092915050565b610a85826105bd565b67ffffffffffffffff811115610a9e57610a9d610679565b5b610aa8825461089f565b610ab38282856109ef565b600060209050601f831160018114610ae65760008415610ad4578287015190505b610ade8582610a60565b865550610b46565b601f198416610af4866108d0565b60005b82811015610b1c57848901518255600182019150602085019450602081019050610af7565b86831015610b395784890151610b35601f891682610a42565b8355505b6001600288020188555050505b50505050505056fea26469706673582212203f90e75d6e1bc7a5d520f9a63b2af85cd7a2b22a8cb9cf9d05efa115e981c18164736f6c63430008130033",
  "linkReferences": {},
  "deployedLinkReferences": {}
}