{
  "_format": "hh-sol-artifact-1",
  "contractName": "ColorGuess",
  "sourceName": "contracts/ColorGuess.sol",
  "abi": [
    {
      "inputs": [],
      "stateMutability": "nonpayable",
      "type": "constructor"
    },
    {
      "inputs": [],
      "name": "contractBalance",
      "outputs": [
        {
          "internalType": "uint256",
          "name": "",
          "type": "uint256"
        }
      ],
      "stateMutability": "view",
      "type": "function"
    },
    {
      "inputs": [],
      "name": "loadContractBalance",
      "outputs": [],
      "stateMutability": "payable",
      "type": "function"
    },
    {
      "inputs": [
        {
          "internalType": "contract MainContract",
          "name": "_contract",
          "type": "address"
        },
        {
          "internalType": "contract ColorGuessLeaderboardContract",
          "name": "_leaderboard",
          "type": "address"
        },
        {
          "internalType": "uint256",
          "name": "_score",
          "type": "uint256"
        }
      ],
      "name": "losingWager",
      "outputs": [],
      "stateMutability": "nonpayable",
      "type": "function"
    },
    {
      "inputs": [
        {
          "internalType": "uint256",
          "name": "_difficulty",
          "type": "uint256"
        },
        {
          "internalType": "contract MainContract",
          "name": "_contract",
          "type": "address"
        },
        {
          "internalType": "contract ColorGuessLeaderboardContract",
          "name": "_leaderboard",
          "type": "address"
        },
        {
          "internalType": "uint256",
          "name": "_score",
          "type": "uint256"
        }
      ],
      "name": "payWinner",
      "outputs": [],
      "stateMutability": "payable",
      "type": "function"
    },
    {
      "inputs": [
        {
          "internalType": "address",
          "name": "",
          "type": "address"
        }
      ],
      "name": "players",
      "outputs": [
        {
          "internalType": "address payable",
          "name": "id",
          "type": "address"
        },
        {
          "internalType": "uint256",
          "name": "wagerAmmount",
          "type": "uint256"
        },
        {
          "internalType": "bool",
          "name": "hasBet",
          "type": "bool"
        }
      ],
      "stateMutability": "view",
      "type": "function"
    },
    {
      "inputs": [
        {
          "internalType": "contract MainContract",
          "name": "_contract",
          "type": "address"
        }
      ],
      "name": "wager",
      "outputs": [],
      "stateMutability": "payable",
      "type": "function"
    }
  ],
  "bytecode": "0x608060405234801561001057600080fd5b50326000806101000a81548173ffffffffffffffffffffffffffffffffffffffff021916908373ffffffffffffffffffffffffffffffffffffffff1602179055506115e0806100606000396000f3fe6080604052600436106100555760003560e01c80634d619bee1461005a57806369b648de146100765780638b7afe2e1461009f5780639407d218146100ca578063aa0abdfb146100e6578063e2eb41ff146100f0575b600080fd5b610074600480360381019061006f9190610c4c565b61012f565b005b34801561008257600080fd5b5061009d60048036038101906100989190610ced565b610452565b005b3480156100ab57600080fd5b506100b461077b565b6040516100c19190610d4f565b60405180910390f35b6100e460048036038101906100df9190610d6a565b610783565b005b6100ee610b71565b005b3480156100fc57600080fd5b5061011760048036038101906101129190610dfd565b610b73565b60405161012693929190610e66565b60405180910390f35b343373ffffffffffffffffffffffffffffffffffffffff16311015610189576040517f08c379a000000000000000000000000000000000000000000000000000000000815260040161018090610f20565b60405180910390fd5b600034116101cc576040517f08c379a00000000000000000000000000000000000000000000000000000000081526004016101c390610f8c565b60405180910390fd5b60001515600160003373ffffffffffffffffffffffffffffffffffffffff1673ffffffffffffffffffffffffffffffffffffffff16815260200190815260200160002060020160009054906101000a900460ff16151514610262576040517f08c379a00000000000000000000000000000000000000000000000000000000081526004016102599061106a565b60405180910390fd5b60405180606001604052803373ffffffffffffffffffffffffffffffffffffffff16815260200134815260200160011515815250600160003373ffffffffffffffffffffffffffffffffffffffff1673ffffffffffffffffffffffffffffffffffffffff16815260200190815260200160002060008201518160000160006101000a81548173ffffffffffffffffffffffffffffffffffffffff021916908373ffffffffffffffffffffffffffffffffffffffff1602179055506020820151816001015560408201518160020160006101000a81548160ff021916908315150217905550905050600060405161035790610bca565b604051809103906000f080158015610373573d6000803e3d6000fd5b5090508173ffffffffffffffffffffffffffffffffffffffff166376980a0233836040518363ffffffff1660e01b81526004016103b19291906110f8565b600060405180830381600087803b1580156103cb57600080fd5b505af11580156103df573d6000803e3d6000fd5b505050508173ffffffffffffffffffffffffffffffffffffffff1663b1275f9a336040518263ffffffff1660e01b815260040161041c9190611121565b600060405180830381600087803b15801561043657600080fd5b505af115801561044a573d6000803e3d6000fd5b505050505050565b600160003373ffffffffffffffffffffffffffffffffffffffff1673ffffffffffffffffffffffffffffffffffffffff16815260200190815260200160002060020160009054906101000a900460ff166104e1576040517f08c379a00000000000000000000000000000000000000000000000000000000081526004016104d890611188565b60405180910390fd5b60008054906101000a900473ffffffffffffffffffffffffffffffffffffffff1673ffffffffffffffffffffffffffffffffffffffff166108fc600160003373ffffffffffffffffffffffffffffffffffffffff1673ffffffffffffffffffffffffffffffffffffffff168152602001908152602001600020600101549081150290604051600060405180830381858888f19350505050158015610589573d6000803e3d6000fd5b506000600160003373ffffffffffffffffffffffffffffffffffffffff1673ffffffffffffffffffffffffffffffffffffffff16815260200190815260200160002060020160006101000a81548160ff0219169083151502179055506000600160003373ffffffffffffffffffffffffffffffffffffffff1673ffffffffffffffffffffffffffffffffffffffff168152602001908152602001600020600101819055508273ffffffffffffffffffffffffffffffffffffffff1663e2225dfb60016000336040518463ffffffff1660e01b815260040161066c9392919061121e565b600060405180830381600087803b15801561068657600080fd5b505af115801561069a573d6000803e3d6000fd5b505050508273ffffffffffffffffffffffffffffffffffffffff1663b904a8e5336040518263ffffffff1660e01b81526004016106d79190611121565b600060405180830381600087803b1580156106f157600080fd5b505af1158015610705573d6000803e3d6000fd5b505050508173ffffffffffffffffffffffffffffffffffffffff16635b7cfc6133836040518363ffffffff1660e01b8152600401610744929190611255565b600060405180830381600087803b15801561075e57600080fd5b505af1158015610772573d6000803e3d6000fd5b50505050505050565b600047905090565b600160003373ffffffffffffffffffffffffffffffffffffffff1673ffffffffffffffffffffffffffffffffffffffff16815260200190815260200160002060020160009054906101000a900460ff16610812576040517f08c379a000000000000000000000000000000000000000000000000000000000815260040161080990611188565b60405180910390fd5b6000600160003373ffffffffffffffffffffffffffffffffffffffff1673ffffffffffffffffffffffffffffffffffffffff1681526020019081526020016000206001015411610897576040517f08c379a000000000000000000000000000000000000000000000000000000000815260040161088e90610f8c565b60405180910390fd5b6000841180156108a75750600584105b6108e6576040517f08c379a00000000000000000000000000000000000000000000000000000000081526004016108dd906112f0565b60405180910390fd5b600084600160003373ffffffffffffffffffffffffffffffffffffffff1673ffffffffffffffffffffffffffffffffffffffff16815260200190815260200160002060010154610936919061133f565b90503373ffffffffffffffffffffffffffffffffffffffff166108fc829081150290604051600060405180830381858888f1935050505015801561097e573d6000803e3d6000fd5b506000600160003373ffffffffffffffffffffffffffffffffffffffff1673ffffffffffffffffffffffffffffffffffffffff16815260200190815260200160002060020160006101000a81548160ff0219169083151502179055506000600160003373ffffffffffffffffffffffffffffffffffffffff1673ffffffffffffffffffffffffffffffffffffffff168152602001908152602001600020600101819055508373ffffffffffffffffffffffffffffffffffffffff1663e2225dfb600180336040518463ffffffff1660e01b8152600401610a6093929190611381565b600060405180830381600087803b158015610a7a57600080fd5b505af1158015610a8e573d6000803e3d6000fd5b505050508373ffffffffffffffffffffffffffffffffffffffff1663b904a8e5336040518263ffffffff1660e01b8152600401610acb9190611121565b600060405180830381600087803b158015610ae557600080fd5b505af1158015610af9573d6000803e3d6000fd5b505050508273ffffffffffffffffffffffffffffffffffffffff16635b7cfc6133846040518363ffffffff1660e01b8152600401610b38929190611255565b600060405180830381600087803b158015610b5257600080fd5b505af1158015610b66573d6000803e3d6000fd5b505050505050505050565b565b60016020528060005260406000206000915090508060000160009054906101000a900473ffffffffffffffffffffffffffffffffffffffff16908060010154908060020160009054906101000a900460ff16905083565b6101f2806113b983390190565b600080fd5b600073ffffffffffffffffffffffffffffffffffffffff82169050919050565b6000610c0782610bdc565b9050919050565b6000610c1982610bfc565b9050919050565b610c2981610c0e565b8114610c3457600080fd5b50565b600081359050610c4681610c20565b92915050565b600060208284031215610c6257610c61610bd7565b5b6000610c7084828501610c37565b91505092915050565b6000610c8482610bfc565b9050919050565b610c9481610c79565b8114610c9f57600080fd5b50565b600081359050610cb181610c8b565b92915050565b6000819050919050565b610cca81610cb7565b8114610cd557600080fd5b50565b600081359050610ce781610cc1565b92915050565b600080600060608486031215610d0657610d05610bd7565b5b6000610d1486828701610c37565b9350506020610d2586828701610ca2565b9250506040610d3686828701610cd8565b9150509250925092565b610d4981610cb7565b82525050565b6000602082019050610d646000830184610d40565b92915050565b60008060008060808587031215610d8457610d83610bd7565b5b6000610d9287828801610cd8565b9450506020610da387828801610c37565b9350506040610db487828801610ca2565b9250506060610dc587828801610cd8565b91505092959194509250565b610dda81610bfc565b8114610de557600080fd5b50565b600081359050610df781610dd1565b92915050565b600060208284031215610e1357610e12610bd7565b5b6000610e2184828501610de8565b91505092915050565b6000610e3582610bdc565b9050919050565b610e4581610e2a565b82525050565b60008115159050919050565b610e6081610e4b565b82525050565b6000606082019050610e7b6000830186610e3c565b610e886020830185610d40565b610e956040830184610e57565b949350505050565b600082825260208201905092915050565b7f596f75206d757374206861766520656e6f7567682066756e647320746f20776160008201527f6765720000000000000000000000000000000000000000000000000000000000602082015250565b6000610f0a602383610e9d565b9150610f1582610eae565b604082019050919050565b60006020820190508181036000830152610f3981610efd565b9050919050565b7f596f75206d757374207761676572206d6f7265207468616e2030000000000000600082015250565b6000610f76601a83610e9d565b9150610f8182610f40565b602082019050919050565b60006020820190508181036000830152610fa581610f69565b9050919050565b7f596f75206861766520616c7265616479207761676572656420616e642064696460008201527f206e6f74207265706f727420796f7572206c6f73742e204661696c757265207460208201527f6f20646f20736f20726573756c747320696e206e6f74206265696e672061626c60408201527f6520746f20706c617920616761696e2100000000000000000000000000000000606082015250565b6000611054607083610e9d565b915061105f82610fac565b608082019050919050565b6000602082019050818103600083015261108381611047565b9050919050565b61109381610bfc565b82525050565b6000819050919050565b60006110be6110b96110b484610bdc565b611099565b610bdc565b9050919050565b60006110d0826110a3565b9050919050565b60006110e2826110c5565b9050919050565b6110f2816110d7565b82525050565b600060408201905061110d600083018561108a565b61111a60208301846110e9565b9392505050565b6000602082019050611136600083018461108a565b92915050565b7f596f75206d7573742068617665207761676572656420746f20636f6c6c656374600082015250565b6000611172602083610e9d565b915061117d8261113c565b602082019050919050565b600060208201905081810360008301526111a181611165565b9050919050565b6000819050919050565b60006111cd6111c86111c3846111a8565b611099565b610cb7565b9050919050565b6111dd816111b2565b82525050565b6000819050919050565b60006112086112036111fe846111e3565b611099565b610cb7565b9050919050565b611218816111ed565b82525050565b600060608201905061123360008301866111d4565b611240602083018561120f565b61124d604083018461108a565b949350505050565b600060408201905061126a600083018561108a565b6112776020830184610d40565b9392505050565b7f446966666963756c7479206d7573742062652067726561746572207468616e2060008201527f3000000000000000000000000000000000000000000000000000000000000000602082015250565b60006112da602183610e9d565b91506112e58261127e565b604082019050919050565b60006020820190508181036000830152611309816112cd565b9050919050565b7f4e487b7100000000000000000000000000000000000000000000000000000000600052601160045260246000fd5b600061134a82610cb7565b915061135583610cb7565b925082820261136381610cb7565b9150828204841483151761137a57611379611310565b5b5092915050565b600060608201905061139660008301866111d4565b6113a360208301856111d4565b6113b0604083018461108a565b94935050505056fe608060405234801561001057600080fd5b506101d2806100206000396000f3fe6080604052600436106100345760003560e01c806347b94f83146100395780634d619bee14610055578063be71248a14610071575b600080fd5b610053600480360381019061004e919061012f565b61007b565b005b61006f600480360381019061006a919061016f565b61007f565b005b610079610082565b005b5050565b50565b565b600080fd5b6000819050919050565b61009c81610089565b81146100a757600080fd5b50565b6000813590506100b981610093565b92915050565b600073ffffffffffffffffffffffffffffffffffffffff82169050919050565b60006100ea826100bf565b9050919050565b60006100fc826100df565b9050919050565b61010c816100f1565b811461011757600080fd5b50565b60008135905061012981610103565b92915050565b6000806040838503121561014657610145610084565b5b6000610154858286016100aa565b92505060206101658582860161011a565b9150509250929050565b60006020828403121561018557610184610084565b5b60006101938482850161011a565b9150509291505056fea2646970667358221220e49e121d2dfc85652c75596baf9f6c6d94db93f3543b379400a453a189334ae764736f6c63430008130033a2646970667358221220b70ce25d99f37e6b5e0cd2f82f012414552b59563b845d69f4fc5266557b411564736f6c63430008130033",
  "linkReferences": {},
  "deployedLinkReferences": {}
}