{
  "_format": "hh-sol-artifact-1",
  "contractName": "ColorGuessTempContract",
  "sourceName": "contracts/ColorGuessTempContract.sol",
  "abi": [
    {
      "inputs": [
        {
          "internalType": "uint256",
          "name": "_difficulty",
          "type": "uint256"
        },
        {
          "internalType": "contract MainContract",
          "name": "_contract",
          "type": "address"
        }
      ],
      "name": "payWinner",
      "outputs": [],
      "stateMutability": "payable",
      "type": "function"
    },
    {
      "inputs": [],
      "name": "payWinner",
      "outputs": [],
      "stateMutability": "payable",
      "type": "function"
    },
    {
      "inputs": [
        {
          "internalType": "contract MainContract",
          "name": "_contract",
          "type": "address"
        }
      ],
      "name": "wager",
      "outputs": [],
      "stateMutability": "payable",
      "type": "function"
    }
  ],
  "bytecode": "0x608060405234801561001057600080fd5b506101d2806100206000396000f3fe6080604052600436106100345760003560e01c806347b94f83146100395780634d619bee14610055578063be71248a14610071575b600080fd5b610053600480360381019061004e919061012f565b61007b565b005b61006f600480360381019061006a919061016f565b61007f565b005b610079610082565b005b5050565b50565b565b600080fd5b6000819050919050565b61009c81610089565b81146100a757600080fd5b50565b6000813590506100b981610093565b92915050565b600073ffffffffffffffffffffffffffffffffffffffff82169050919050565b60006100ea826100bf565b9050919050565b60006100fc826100df565b9050919050565b61010c816100f1565b811461011757600080fd5b50565b60008135905061012981610103565b92915050565b6000806040838503121561014657610145610084565b5b6000610154858286016100aa565b92505060206101658582860161011a565b9150509250929050565b60006020828403121561018557610184610084565b5b60006101938482850161011a565b9150509291505056fea264697066735822122021d021f513254ba86a272d88882130dcc3b9734db6d8f8e0b2a0963903cadc3464736f6c63430008130033",
  "linkReferences": {},
  "deployedLinkReferences": {}
}