{
  "_format": "hh-sol-artifact-1",
  "contractName": "ColorGuess",
  "sourceName": "contracts/ColorGuess.sol",
  "abi": [
    {
      "inputs": [],
      "stateMutability": "nonpayable",
      "type": "constructor"
    },
    {
      "inputs": [],
      "name": "contractBalance",
      "outputs": [
        {
          "internalType": "uint256",
          "name": "",
          "type": "uint256"
        }
      ],
      "stateMutability": "view",
      "type": "function"
    },
    {
      "inputs": [],
      "name": "loadContractBalance",
      "outputs": [],
      "stateMutability": "payable",
      "type": "function"
    },
    {
      "inputs": [
        {
          "internalType": "contract MainContract",
          "name": "_contract",
          "type": "address"
        },
        {
          "internalType": "contract ColorGuessLeaderboardContract",
          "name": "_leaderboard",
          "type": "address"
        },
        {
          "internalType": "uint256",
          "name": "_score",
          "type": "uint256"
        }
      ],
      "name": "losingWager",
      "outputs": [],
      "stateMutability": "nonpayable",
      "type": "function"
    },
    {
      "inputs": [
        {
          "internalType": "uint256",
          "name": "_difficulty",
          "type": "uint256"
        },
        {
          "internalType": "contract MainContract",
          "name": "_contract",
          "type": "address"
        },
        {
          "internalType": "contract ColorGuessLeaderboardContract",
          "name": "_leaderboard",
          "type": "address"
        },
        {
          "internalType": "uint256",
          "name": "_score",
          "type": "uint256"
        }
      ],
      "name": "payWinner",
      "outputs": [],
      "stateMutability": "payable",
      "type": "function"
    },
    {
      "inputs": [
        {
          "internalType": "address",
          "name": "",
          "type": "address"
        }
      ],
      "name": "players",
      "outputs": [
        {
          "internalType": "address payable",
          "name": "id",
          "type": "address"
        },
        {
          "internalType": "uint256",
          "name": "wagerAmmount",
          "type": "uint256"
        },
        {
          "internalType": "bool",
          "name": "hasBet",
          "type": "bool"
        }
      ],
      "stateMutability": "view",
      "type": "function"
    },
    {
      "inputs": [
        {
          "internalType": "contract MainContract",
          "name": "_contract",
          "type": "address"
        },
        {
          "internalType": "uint256",
          "name": "_difficulty",
          "type": "uint256"
        }
      ],
      "name": "wager",
      "outputs": [],
      "stateMutability": "payable",
      "type": "function"
    }
  ],
  "bytecode": "0x608060405234801561001057600080fd5b50326000806101000a81548173ffffffffffffffffffffffffffffffffffffffff021916908373ffffffffffffffffffffffffffffffffffffffff160217905550611fe4806100606000396000f3fe6080604052600436106200005c5760003560e01c806369b648de14620000615780638b7afe2e146200008f5780639407d21814620000bf578063aa0abdfb14620000df578063e2eb41ff14620000eb578063f4cbf60b1462000131575b600080fd5b3480156200006e57600080fd5b506200008d600480360381019062000087919062000dd9565b62000151565b005b3480156200009c57600080fd5b50620000a7620003e0565b604051620000b6919062000e46565b60405180910390f35b620000dd6004803603810190620000d7919062000e63565b620003e8565b005b620000e9620007ef565b005b348015620000f857600080fd5b5062000117600480360381019062000111919062000f06565b620007f1565b604051620001289392919062000f7a565b60405180910390f35b6200014f600480360381019062000149919062000fb7565b62000848565b005b600160003373ffffffffffffffffffffffffffffffffffffffff1673ffffffffffffffffffffffffffffffffffffffff16815260200190815260200160002060020160009054906101000a900460ff16620001e3576040517f08c379a0000000000000000000000000000000000000000000000000000000008152600401620001da906200105f565b60405180910390fd5b6000600160003373ffffffffffffffffffffffffffffffffffffffff1673ffffffffffffffffffffffffffffffffffffffff16815260200190815260200160002060020160006101000a81548160ff0219169083151502179055506000600160003373ffffffffffffffffffffffffffffffffffffffff1673ffffffffffffffffffffffffffffffffffffffff168152602001908152602001600020600101819055508273ffffffffffffffffffffffffffffffffffffffff1663e2225dfb60016000336040518463ffffffff1660e01b8152600401620002c79392919062001122565b600060405180830381600087803b158015620002e257600080fd5b505af1158015620002f7573d6000803e3d6000fd5b505050508273ffffffffffffffffffffffffffffffffffffffff1663b904a8e5336040518263ffffffff1660e01b81526004016200033691906200115f565b600060405180830381600087803b1580156200035157600080fd5b505af115801562000366573d6000803e3d6000fd5b505050508173ffffffffffffffffffffffffffffffffffffffff16635b7cfc6133836040518363ffffffff1660e01b8152600401620003a79291906200117c565b600060405180830381600087803b158015620003c257600080fd5b505af1158015620003d7573d6000803e3d6000fd5b50505050505050565b600047905090565b600160003373ffffffffffffffffffffffffffffffffffffffff1673ffffffffffffffffffffffffffffffffffffffff16815260200190815260200160002060020160009054906101000a900460ff166200047a576040517f08c379a000000000000000000000000000000000000000000000000000000000815260040162000471906200105f565b60405180910390fd5b6000600160003373ffffffffffffffffffffffffffffffffffffffff1673ffffffffffffffffffffffffffffffffffffffff168152602001908152602001600020600101541162000502576040517f08c379a0000000000000000000000000000000000000000000000000000000008152600401620004f990620011f9565b60405180910390fd5b600084118015620005135750600684105b62000555576040517f08c379a00000000000000000000000000000000000000000000000000000000081526004016200054c9062001291565b60405180910390fd5b600084600160003373ffffffffffffffffffffffffffffffffffffffff1673ffffffffffffffffffffffffffffffffffffffff16815260200190815260200160002060010154620005a79190620012e2565b90503373ffffffffffffffffffffffffffffffffffffffff166108fc829081150290604051600060405180830381858888f19350505050158015620005f0573d6000803e3d6000fd5b506000600160003373ffffffffffffffffffffffffffffffffffffffff1673ffffffffffffffffffffffffffffffffffffffff16815260200190815260200160002060020160006101000a81548160ff0219169083151502179055506000600160003373ffffffffffffffffffffffffffffffffffffffff1673ffffffffffffffffffffffffffffffffffffffff168152602001908152602001600020600101819055508373ffffffffffffffffffffffffffffffffffffffff1663e2225dfb600180336040518463ffffffff1660e01b8152600401620006d4939291906200132d565b600060405180830381600087803b158015620006ef57600080fd5b505af115801562000704573d6000803e3d6000fd5b505050508373ffffffffffffffffffffffffffffffffffffffff1663b904a8e5336040518263ffffffff1660e01b81526004016200074391906200115f565b600060405180830381600087803b1580156200075e57600080fd5b505af115801562000773573d6000803e3d6000fd5b505050508273ffffffffffffffffffffffffffffffffffffffff16635b7cfc6133846040518363ffffffff1660e01b8152600401620007b49291906200117c565b600060405180830381600087803b158015620007cf57600080fd5b505af1158015620007e4573d6000803e3d6000fd5b505050505050505050565b565b60016020528060005260406000206000915090508060000160009054906101000a900473ffffffffffffffffffffffffffffffffffffffff16908060010154908060020160009054906101000a900460ff16905083565b343373ffffffffffffffffffffffffffffffffffffffff16311015620008a5576040517f08c379a00000000000000000000000000000000000000000000000000000000081526004016200089c90620013e0565b60405180910390fd5b60003411620008eb576040517f08c379a0000000000000000000000000000000000000000000000000000000008152600401620008e290620011f9565b60405180910390fd5b60001515600160003373ffffffffffffffffffffffffffffffffffffffff1673ffffffffffffffffffffffffffffffffffffffff16815260200190815260200160002060020160009054906101000a900460ff1615151462000984576040517f08c379a00000000000000000000000000000000000000000000000000000000081526004016200097b90620014c4565b60405180910390fd5b60405180606001604052803373ffffffffffffffffffffffffffffffffffffffff16815260200134815260200160011515815250600160003373ffffffffffffffffffffffffffffffffffffffff1673ffffffffffffffffffffffffffffffffffffffff16815260200190815260200160002060008201518160000160006101000a81548173ffffffffffffffffffffffffffffffffffffffff021916908373ffffffffffffffffffffffffffffffffffffffff1602179055506020820151816001015560408201518160020160006101000a81548160ff021916908315150217905550905050600060405162000a7b9062000ccd565b604051809103906000f08015801562000a98573d6000803e3d6000fd5b5090508073ffffffffffffffffffffffffffffffffffffffff166329731723346040518263ffffffff1660e01b815260040162000ad6919062000e46565b600060405180830381600087803b15801562000af157600080fd5b505af115801562000b06573d6000803e3d6000fd5b505050508073ffffffffffffffffffffffffffffffffffffffff1663bc8d3ac4336040518263ffffffff1660e01b815260040162000b4591906200115f565b600060405180830381600087803b15801562000b6057600080fd5b505af115801562000b75573d6000803e3d6000fd5b505050508073ffffffffffffffffffffffffffffffffffffffff1663602512e1836040518263ffffffff1660e01b815260040162000bb4919062000e46565b600060405180830381600087803b15801562000bcf57600080fd5b505af115801562000be4573d6000803e3d6000fd5b505050508273ffffffffffffffffffffffffffffffffffffffff166376980a0233836040518363ffffffff1660e01b815260040162000c2592919062001547565b600060405180830381600087803b15801562000c4057600080fd5b505af115801562000c55573d6000803e3d6000fd5b505050508273ffffffffffffffffffffffffffffffffffffffff1663b1275f9a336040518263ffffffff1660e01b815260040162000c9491906200115f565b600060405180830381600087803b15801562000caf57600080fd5b505af115801562000cc4573d6000803e3d6000fd5b50505050505050565b610a3a806200157583390190565b600080fd5b600073ffffffffffffffffffffffffffffffffffffffff82169050919050565b600062000d0d8262000ce0565b9050919050565b600062000d218262000d00565b9050919050565b62000d338162000d14565b811462000d3f57600080fd5b50565b60008135905062000d538162000d28565b92915050565b600062000d668262000d00565b9050919050565b62000d788162000d59565b811462000d8457600080fd5b50565b60008135905062000d988162000d6d565b92915050565b6000819050919050565b62000db38162000d9e565b811462000dbf57600080fd5b50565b60008135905062000dd38162000da8565b92915050565b60008060006060848603121562000df55762000df462000cdb565b5b600062000e058682870162000d42565b935050602062000e188682870162000d87565b925050604062000e2b8682870162000dc2565b9150509250925092565b62000e408162000d9e565b82525050565b600060208201905062000e5d600083018462000e35565b92915050565b6000806000806080858703121562000e805762000e7f62000cdb565b5b600062000e908782880162000dc2565b945050602062000ea38782880162000d42565b935050604062000eb68782880162000d87565b925050606062000ec98782880162000dc2565b91505092959194509250565b62000ee08162000d00565b811462000eec57600080fd5b50565b60008135905062000f008162000ed5565b92915050565b60006020828403121562000f1f5762000f1e62000cdb565b5b600062000f2f8482850162000eef565b91505092915050565b600062000f458262000ce0565b9050919050565b62000f578162000f38565b82525050565b60008115159050919050565b62000f748162000f5d565b82525050565b600060608201905062000f91600083018662000f4c565b62000fa0602083018562000e35565b62000faf604083018462000f69565b949350505050565b6000806040838503121562000fd15762000fd062000cdb565b5b600062000fe18582860162000d42565b925050602062000ff48582860162000dc2565b9150509250929050565b600082825260208201905092915050565b7f596f75206d7573742068617665207761676572656420746f20636f6c6c656374600082015250565b60006200104760208362000ffe565b915062001054826200100f565b602082019050919050565b600060208201905081810360008301526200107a8162001038565b9050919050565b6000819050919050565b6000819050919050565b6000620010b6620010b0620010aa8462001081565b6200108b565b62000d9e565b9050919050565b620010c88162001095565b82525050565b6000819050919050565b6000620010f9620010f3620010ed84620010ce565b6200108b565b62000d9e565b9050919050565b6200110b81620010d8565b82525050565b6200111c8162000d00565b82525050565b6000606082019050620011396000830186620010bd565b62001148602083018562001100565b62001157604083018462001111565b949350505050565b600060208201905062001176600083018462001111565b92915050565b600060408201905062001193600083018562001111565b620011a2602083018462000e35565b9392505050565b7f596f75206d757374207761676572206d6f7265207468616e2030000000000000600082015250565b6000620011e1601a8362000ffe565b9150620011ee82620011a9565b602082019050919050565b600060208201905081810360008301526200121481620011d2565b9050919050565b7f446966666963756c7479206d7573742062652067726561746572207468616e2060008201527f3000000000000000000000000000000000000000000000000000000000000000602082015250565b60006200127960218362000ffe565b915062001286826200121b565b604082019050919050565b60006020820190508181036000830152620012ac816200126a565b9050919050565b7f4e487b7100000000000000000000000000000000000000000000000000000000600052601160045260246000fd5b6000620012ef8262000d9e565b9150620012fc8362000d9e565b92508282026200130c8162000d9e565b91508282048414831517620013265762001325620012b3565b5b5092915050565b6000606082019050620013446000830186620010bd565b620013536020830185620010bd565b62001362604083018462001111565b949350505050565b7f596f75206d757374206861766520656e6f7567682066756e647320746f20776160008201527f6765720000000000000000000000000000000000000000000000000000000000602082015250565b6000620013c860238362000ffe565b9150620013d5826200136a565b604082019050919050565b60006020820190508181036000830152620013fb81620013b9565b9050919050565b7f596f75206861766520616c7265616479207761676572656420616e642064696460008201527f206e6f74207265706f727420796f7572206c6f73742e204661696c757265207460208201527f6f20646f20736f20726573756c747320696e206e6f74206265696e672061626c60408201527f6520746f20706c617920616761696e2100000000000000000000000000000000606082015250565b6000620014ac60708362000ffe565b9150620014b98262001402565b608082019050919050565b60006020820190508181036000830152620014df816200149d565b9050919050565b60006200150762001501620014fb8462000ce0565b6200108b565b62000ce0565b9050919050565b60006200151b82620014e6565b9050919050565b60006200152f826200150e565b9050919050565b620015418162001522565b82525050565b60006040820190506200155e600083018562001111565b6200156d602083018462001536565b939250505056fe60806040523480156200001157600080fd5b506040518060400160405280600a81526020017f436f6c6f7247756573730000000000000000000000000000000000000000000081525060059081620000589190620002d9565b50620003c0565b600081519050919050565b7f4e487b7100000000000000000000000000000000000000000000000000000000600052604160045260246000fd5b7f4e487b7100000000000000000000000000000000000000000000000000000000600052602260045260246000fd5b60006002820490506001821680620000e157607f821691505b602082108103620000f757620000f662000099565b5b50919050565b60008190508160005260206000209050919050565b60006020601f8301049050919050565b600082821b905092915050565b600060088302620001617fffffffffffffffffffffffffffffffffffffffffffffffffffffffffffffffff8262000122565b6200016d868362000122565b95508019841693508086168417925050509392505050565b6000819050919050565b6000819050919050565b6000620001ba620001b4620001ae8462000185565b6200018f565b62000185565b9050919050565b6000819050919050565b620001d68362000199565b620001ee620001e582620001c1565b8484546200012f565b825550505050565b600090565b62000205620001f6565b62000212818484620001cb565b505050565b5b818110156200023a576200022e600082620001fb565b60018101905062000218565b5050565b601f82111562000289576200025381620000fd565b6200025e8462000112565b810160208510156200026e578190505b620002866200027d8562000112565b83018262000217565b50505b505050565b600082821c905092915050565b6000620002ae600019846008026200028e565b1980831691505092915050565b6000620002c983836200029b565b9150826002028217905092915050565b620002e4826200005f565b67ffffffffffffffff8111156200030057620002ff6200006a565b5b6200030c8254620000c8565b620003198282856200023e565b600060209050601f8311600181146200035157600084156200033c578287015190505b620003488582620002bb565b865550620003b8565b601f1984166200036186620000fd565b60005b828110156200038b5784890151825560018201915060208501945060208101905062000364565b86831015620003ab5784890151620003a7601f8916826200029b565b8355505b6001600288020188555050505b505050505050565b61066a80620003d06000396000f3fe6080604052600436106100915760003560e01c8063b6baffe311610059578063b6baffe31461014b578063bbda33d914610176578063bc8d3ac4146101a1578063be71248a146101ca578063e186448c146101d457610091565b806329731723146100965780633308f42d146100bf57806347b94f83146100ea5780634d619bee14610106578063602512e114610122575b600080fd5b3480156100a257600080fd5b506100bd60048036038101906100b8919061036b565b6101ff565b005b3480156100cb57600080fd5b506100d4610209565b6040516100e191906103d9565b60405180910390f35b61010460048036038101906100ff9190610432565b610233565b005b610120600480360381019061011b9190610472565b610237565b005b34801561012e57600080fd5b506101496004803603810190610144919061036b565b61023a565b005b34801561015757600080fd5b50610160610244565b60405161016d91906104ae565b60405180910390f35b34801561018257600080fd5b5061018b61024e565b6040516101989190610559565b60405180910390f35b3480156101ad57600080fd5b506101c860048036038101906101c391906105a7565b6102e0565b005b6101d2610324565b005b3480156101e057600080fd5b506101e9610326565b6040516101f691906104ae565b60405180910390f35b8060028190555050565b6000600360009054906101000a900473ffffffffffffffffffffffffffffffffffffffff16905090565b5050565b50565b8060048190555050565b6000600454905090565b60606005805461025d90610603565b80601f016020809104026020016040519081016040528092919081815260200182805461028990610603565b80156102d65780601f106102ab576101008083540402835291602001916102d6565b820191906000526020600020905b8154815290600101906020018083116102b957829003601f168201915b5050505050905090565b80600360006101000a81548173ffffffffffffffffffffffffffffffffffffffff021916908373ffffffffffffffffffffffffffffffffffffffff16021790555050565b565b6000600254905090565b600080fd5b6000819050919050565b61034881610335565b811461035357600080fd5b50565b6000813590506103658161033f565b92915050565b60006020828403121561038157610380610330565b5b600061038f84828501610356565b91505092915050565b600073ffffffffffffffffffffffffffffffffffffffff82169050919050565b60006103c382610398565b9050919050565b6103d3816103b8565b82525050565b60006020820190506103ee60008301846103ca565b92915050565b60006103ff826103b8565b9050919050565b61040f816103f4565b811461041a57600080fd5b50565b60008135905061042c81610406565b92915050565b6000806040838503121561044957610448610330565b5b600061045785828601610356565b92505060206104688582860161041d565b9150509250929050565b60006020828403121561048857610487610330565b5b60006104968482850161041d565b91505092915050565b6104a881610335565b82525050565b60006020820190506104c3600083018461049f565b92915050565b600081519050919050565b600082825260208201905092915050565b60005b838110156105035780820151818401526020810190506104e8565b60008484015250505050565b6000601f19601f8301169050919050565b600061052b826104c9565b61053581856104d4565b93506105458185602086016104e5565b61054e8161050f565b840191505092915050565b600060208201905081810360008301526105738184610520565b905092915050565b610584816103b8565b811461058f57600080fd5b50565b6000813590506105a18161057b565b92915050565b6000602082840312156105bd576105bc610330565b5b60006105cb84828501610592565b91505092915050565b7f4e487b7100000000000000000000000000000000000000000000000000000000600052602260045260246000fd5b6000600282049050600182168061061b57607f821691505b60208210810361062e5761062d6105d4565b5b5091905056fea2646970667358221220e8c7d8322033f5c4966bfc2d437e3c31669746acd81d6d9a07571997aae15f6364736f6c63430008130033a264697066735822122002ff9c0c7f4e15e44e15779edafb66346e991182f9718fb6f8410794517c112e64736f6c63430008130033",
  "linkReferences": {},
  "deployedLinkReferences": {}
}