{
  "_format": "hh-sol-artifact-1",
  "contractName": "MainContract",
  "sourceName": "contracts/MainContract.sol",
  "abi": [
    {
      "inputs": [],
      "stateMutability": "nonpayable",
      "type": "constructor"
    },
    {
      "inputs": [
        {
          "internalType": "address",
          "name": "_sender",
          "type": "address"
        },
        {
          "internalType": "contract Game",
          "name": "game",
          "type": "address"
        }
      ],
      "name": "addColorGuessCurrentGame",
      "outputs": [],
      "stateMutability": "nonpayable",
      "type": "function"
    },
    {
      "inputs": [
        {
          "internalType": "contract Game",
          "name": "game",
          "type": "address"
        }
      ],
      "name": "addCurrentGame",
      "outputs": [],
      "stateMutability": "nonpayable",
      "type": "function"
    },
    {
      "inputs": [
        {
          "internalType": "address",
          "name": "admin",
          "type": "address"
        }
      ],
      "name": "addOwner",
      "outputs": [],
      "stateMutability": "nonpayable",
      "type": "function"
    },
    {
      "inputs": [
        {
          "internalType": "contract Game",
          "name": "game",
          "type": "address"
        }
      ],
      "name": "addPlayableGame",
      "outputs": [],
      "stateMutability": "nonpayable",
      "type": "function"
    },
    {
      "inputs": [
        {
          "internalType": "address",
          "name": "_player",
          "type": "address"
        }
      ],
      "name": "addPlayer",
      "outputs": [],
      "stateMutability": "nonpayable",
      "type": "function"
    },
    {
      "inputs": [],
      "name": "getCurrentGames",
      "outputs": [
        {
          "internalType": "contract Game[]",
          "name": "",
          "type": "address[]"
        }
      ],
      "stateMutability": "view",
      "type": "function"
    },
    {
      "inputs": [],
      "name": "getGamesPlayed",
      "outputs": [
        {
          "internalType": "contract Game[]",
          "name": "",
          "type": "address[]"
        }
      ],
      "stateMutability": "view",
      "type": "function"
    },
    {
      "inputs": [],
      "name": "getPlayerInfo",
      "outputs": [
        {
          "components": [
            {
              "internalType": "string",
              "name": "profilePicture",
              "type": "string"
            },
            {
              "internalType": "uint256",
              "name": "numGamesPlayed",
              "type": "uint256"
            },
            {
              "internalType": "uint256",
              "name": "numWins",
              "type": "uint256"
            },
            {
              "internalType": "contract Game",
              "name": "currentGame",
              "type": "address"
            },
            {
              "internalType": "bool",
              "name": "exists",
              "type": "bool"
            }
          ],
          "internalType": "struct MainContract.Player",
          "name": "",
          "type": "tuple"
        }
      ],
      "stateMutability": "view",
      "type": "function"
    },
    {
      "inputs": [
        {
          "internalType": "address",
          "name": "_sender",
          "type": "address"
        }
      ],
      "name": "removeColorGuessCurrentGame",
      "outputs": [],
      "stateMutability": "nonpayable",
      "type": "function"
    },
    {
      "inputs": [
        {
          "internalType": "contract Game",
          "name": "game",
          "type": "address"
        }
      ],
      "name": "removeCurrentGame",
      "outputs": [],
      "stateMutability": "nonpayable",
      "type": "function"
    },
    {
      "inputs": [
        {
          "internalType": "contract Game",
          "name": "game",
          "type": "address"
        }
      ],
      "name": "removeGame",
      "outputs": [],
      "stateMutability": "nonpayable",
      "type": "function"
    },
    {
      "inputs": [
        {
          "internalType": "string",
          "name": "_profilePicture",
          "type": "string"
        }
      ],
      "name": "setProfilePicture",
      "outputs": [],
      "stateMutability": "nonpayable",
      "type": "function"
    },
    {
      "inputs": [
        {
          "internalType": "uint256",
          "name": "_numGamesPlayed",
          "type": "uint256"
        },
        {
          "internalType": "uint256",
          "name": "_numWins",
          "type": "uint256"
        },
        {
          "internalType": "address",
          "name": "_address",
          "type": "address"
        }
      ],
      "name": "updatePlayer",
      "outputs": [],
      "stateMutability": "nonpayable",
      "type": "function"
    }
  ],
  "bytecode": "0x608060405234801561001057600080fd5b5060016000803273ffffffffffffffffffffffffffffffffffffffff1673ffffffffffffffffffffffffffffffffffffffff16815260200190815260200160002060006101000a81548160ff021916908315150217905550611f2d806100776000396000f3fe608060405234801561001057600080fd5b50600436106100ce5760003560e01c8063b1275f9a1161008c578063ca06a3f811610066578063ca06a3f8146101d1578063d1df81df146101ef578063e2225dfb1461020d578063f80a2cd614610229576100ce565b8063b1275f9a1461017d578063b904a8e514610199578063bce24669146101b5576100ce565b8062d88ee1146100d35780632a120b58146100ef578063326fac6e1461010b5780635e7e2f5b146101295780637065cb481461014557806376980a0214610161575b600080fd5b6100ed60048036038101906100e89190611864565b610245565b005b6101096004803603810190610104919061183b565b610335565b005b6101136104fa565b6040516101209190611a8c565b60405180910390f35b610143600480360381019061013e919061183b565b610588565b005b61015f600480360381019061015a91906117d6565b610680565b005b61017b600480360381019061017691906117ff565b61076c565b005b610197600480360381019061019291906117d6565b6108b7565b005b6101b360048036038101906101ae91906117d6565b610a43565b005b6101cf60048036038101906101ca919061183b565b610f5b565b005b6101d96111a9565b6040516101e69190611a8c565b60405180910390f35b6101f7611237565b6040516102049190611aee565b60405180910390f35b610227600480360381019061022291906118a5565b6113a5565b005b610243600480360381019061023e919061183b565b6114f2565b005b60011515600460003373ffffffffffffffffffffffffffffffffffffffff1673ffffffffffffffffffffffffffffffffffffffff16815260200190815260200160002060030160149054906101000a900460ff161515146102db576040517f08c379a00000000000000000000000000000000000000000000000000000000081526004016102d290611ace565b60405180910390fd5b80600460003373ffffffffffffffffffffffffffffffffffffffff1673ffffffffffffffffffffffffffffffffffffffff16815260200190815260200160002060000190805190602001906103319291906115bb565b5050565b60606000805b6002805490508110156104d9578373ffffffffffffffffffffffffffffffffffffffff1660028281548110610399577f4e487b7100000000000000000000000000000000000000000000000000000000600052603260045260246000fd5b9060005260206000200160009054906101000a900473ffffffffffffffffffffffffffffffffffffffff1673ffffffffffffffffffffffffffffffffffffffff16146104c65760028181548110610419577f4e487b7100000000000000000000000000000000000000000000000000000000600052603260045260246000fd5b9060005260206000200160009054906101000a900473ffffffffffffffffffffffffffffffffffffffff1683838151811061047d577f4e487b7100000000000000000000000000000000000000000000000000000000600052603260045260246000fd5b602002602001019073ffffffffffffffffffffffffffffffffffffffff16908173ffffffffffffffffffffffffffffffffffffffff168152505081806104c290611d79565b9250505b80806104d190611d79565b91505061033b565b5081600290805190602001906104f0929190611641565b5060609150505050565b6060600280548060200260200160405190810160405280929190818152602001828054801561057e57602002820191906000526020600020905b8160009054906101000a900473ffffffffffffffffffffffffffffffffffffffff1673ffffffffffffffffffffffffffffffffffffffff1681526020019060010190808311610534575b5050505050905090565b600115156000803373ffffffffffffffffffffffffffffffffffffffff1673ffffffffffffffffffffffffffffffffffffffff16815260200190815260200160002060009054906101000a900460ff1615151461061a576040517f08c379a000000000000000000000000000000000000000000000000000000000815260040161061190611aae565b60405180910390fd5b6003819080600181540180825580915050600190039060005260206000200160009091909190916101000a81548173ffffffffffffffffffffffffffffffffffffffff021916908373ffffffffffffffffffffffffffffffffffffffff16021790555050565b600115156000803373ffffffffffffffffffffffffffffffffffffffff1673ffffffffffffffffffffffffffffffffffffffff16815260200190815260200160002060009054906101000a900460ff16151514610712576040517f08c379a000000000000000000000000000000000000000000000000000000000815260040161070990611aae565b60405180910390fd5b60016000808373ffffffffffffffffffffffffffffffffffffffff1673ffffffffffffffffffffffffffffffffffffffff16815260200190815260200160002060006101000a81548160ff02191690831515021790555050565b6002819080600181540180825580915050600190039060005260206000200160009091909190916101000a81548173ffffffffffffffffffffffffffffffffffffffff021916908373ffffffffffffffffffffffffffffffffffffffff1602179055506001819080600181540180825580915050600190039060005260206000200160009091909190916101000a81548173ffffffffffffffffffffffffffffffffffffffff021916908373ffffffffffffffffffffffffffffffffffffffff16021790555080600460008473ffffffffffffffffffffffffffffffffffffffff1673ffffffffffffffffffffffffffffffffffffffff16815260200190815260200160002060030160006101000a81548173ffffffffffffffffffffffffffffffffffffffff021916908373ffffffffffffffffffffffffffffffffffffffff1602179055505050565b60001515600460008373ffffffffffffffffffffffffffffffffffffffff1673ffffffffffffffffffffffffffffffffffffffff16815260200190815260200160002060030160149054906101000a900460ff1615151415610a40576040518060a001604052806040518060200160405280600081525081526020016000815260200160008152602001600073ffffffffffffffffffffffffffffffffffffffff16815260200160011515815250600460008373ffffffffffffffffffffffffffffffffffffffff1673ffffffffffffffffffffffffffffffffffffffff16815260200190815260200160002060008201518160000190805190602001906109c09291906115bb565b50602082015181600101556040820151816002015560608201518160030160006101000a81548173ffffffffffffffffffffffffffffffffffffffff021916908373ffffffffffffffffffffffffffffffffffffffff16021790555060808201518160030160146101000a81548160ff0219169083151502179055509050505b50565b600060028054905067ffffffffffffffff811115610a8a577f4e487b7100000000000000000000000000000000000000000000000000000000600052604160045260246000fd5b604051908082528060200260200182016040528015610ab85781602001602082028036833780820191505090505b50905060008060005b600280549050811015610cd457600460008673ffffffffffffffffffffffffffffffffffffffff1673ffffffffffffffffffffffffffffffffffffffff16815260200190815260200160002060030160009054906101000a900473ffffffffffffffffffffffffffffffffffffffff1673ffffffffffffffffffffffffffffffffffffffff1660028281548110610b81577f4e487b7100000000000000000000000000000000000000000000000000000000600052603260045260246000fd5b9060005260206000200160009054906101000a900473ffffffffffffffffffffffffffffffffffffffff1673ffffffffffffffffffffffffffffffffffffffff1614610cb25760028181548110610c01577f4e487b7100000000000000000000000000000000000000000000000000000000600052603260045260246000fd5b9060005260206000200160009054906101000a900473ffffffffffffffffffffffffffffffffffffffff16848481518110610c65577f4e487b7100000000000000000000000000000000000000000000000000000000600052603260045260246000fd5b602002602001019073ffffffffffffffffffffffffffffffffffffffff16908173ffffffffffffffffffffffffffffffffffffffff16815250508280610caa90611d79565b935050610cc1565b8180610cbd90611d79565b9250505b8080610ccc90611d79565b915050610ac1565b50600081600280549050610ce89190611c22565b67ffffffffffffffff811115610d27577f4e487b7100000000000000000000000000000000000000000000000000000000600052604160045260246000fd5b604051908082528060200260200182016040528015610d555781602001602082028036833780820191505090505b5090506000925060005b8451811015610eb257600073ffffffffffffffffffffffffffffffffffffffff16858281518110610db9577f4e487b7100000000000000000000000000000000000000000000000000000000600052603260045260246000fd5b602002602001015173ffffffffffffffffffffffffffffffffffffffff1614610e9f57848181518110610e15577f4e487b7100000000000000000000000000000000000000000000000000000000600052603260045260246000fd5b6020026020010151828581518110610e56577f4e487b7100000000000000000000000000000000000000000000000000000000600052603260045260246000fd5b602002602001019073ffffffffffffffffffffffffffffffffffffffff16908173ffffffffffffffffffffffffffffffffffffffff16815250508380610e9b90611d79565b9450505b8080610eaa90611d79565b915050610d5f565b508060029080519060200190610ec9929190611641565b506000600460008773ffffffffffffffffffffffffffffffffffffffff1673ffffffffffffffffffffffffffffffffffffffff16815260200190815260200160002060030160006101000a81548173ffffffffffffffffffffffffffffffffffffffff021916908373ffffffffffffffffffffffffffffffffffffffff16021790555060609350606090505050505050565b600115156000803373ffffffffffffffffffffffffffffffffffffffff1673ffffffffffffffffffffffffffffffffffffffff16815260200190815260200160002060009054906101000a900460ff16151514610fed576040517f08c379a0000000000000000000000000000000000000000000000000000000008152600401610fe490611aae565b60405180910390fd5b60005b6002805490508110156111a5578173ffffffffffffffffffffffffffffffffffffffff166003828154811061104e577f4e487b7100000000000000000000000000000000000000000000000000000000600052603260045260246000fd5b9060005260206000200160009054906101000a900473ffffffffffffffffffffffffffffffffffffffff1673ffffffffffffffffffffffffffffffffffffffff16141561119257600360016003805490506110a99190611c22565b815481106110e0577f4e487b7100000000000000000000000000000000000000000000000000000000600052603260045260246000fd5b9060005260206000200160009054906101000a900473ffffffffffffffffffffffffffffffffffffffff1660038281548110611145577f4e487b7100000000000000000000000000000000000000000000000000000000600052603260045260246000fd5b9060005260206000200160006101000a81548173ffffffffffffffffffffffffffffffffffffffff021916908373ffffffffffffffffffffffffffffffffffffffff1602179055506111a5565b808061119d90611d79565b915050610ff0565b5050565b6060600180548060200260200160405190810160405280929190818152602001828054801561122d57602002820191906000526020600020905b8160009054906101000a900473ffffffffffffffffffffffffffffffffffffffff1673ffffffffffffffffffffffffffffffffffffffff16815260200190600101908083116111e3575b5050505050905090565b61123f6116cb565b600460003373ffffffffffffffffffffffffffffffffffffffff1673ffffffffffffffffffffffffffffffffffffffff1681526020019081526020016000206040518060a001604052908160008201805461129990611d16565b80601f01602080910402602001604051908101604052809291908181526020018280546112c590611d16565b80156113125780601f106112e757610100808354040283529160200191611312565b820191906000526020600020905b8154815290600101906020018083116112f557829003601f168201915b5050505050815260200160018201548152602001600282015481526020016003820160009054906101000a900473ffffffffffffffffffffffffffffffffffffffff1673ffffffffffffffffffffffffffffffffffffffff1673ffffffffffffffffffffffffffffffffffffffff1681526020016003820160149054906101000a900460ff161515151581525050905090565b60011515600460008373ffffffffffffffffffffffffffffffffffffffff1673ffffffffffffffffffffffffffffffffffffffff16815260200190815260200160002060030160149054906101000a900460ff1615151461143b576040517f08c379a000000000000000000000000000000000000000000000000000000000815260040161143290611ace565b60405180910390fd5b82600460008373ffffffffffffffffffffffffffffffffffffffff1673ffffffffffffffffffffffffffffffffffffffff168152602001908152602001600020600101600082825461148d9190611bcc565b9250508190555081600460008373ffffffffffffffffffffffffffffffffffffffff1673ffffffffffffffffffffffffffffffffffffffff16815260200190815260200160002060020160008282546114e69190611bcc565b92505081905550505050565b6002819080600181540180825580915050600190039060005260206000200160009091909190916101000a81548173ffffffffffffffffffffffffffffffffffffffff021916908373ffffffffffffffffffffffffffffffffffffffff1602179055506001819080600181540180825580915050600190039060005260206000200160009091909190916101000a81548173ffffffffffffffffffffffffffffffffffffffff021916908373ffffffffffffffffffffffffffffffffffffffff16021790555050565b8280546115c790611d16565b90600052602060002090601f0160209004810192826115e95760008555611630565b82601f1061160257805160ff1916838001178555611630565b82800160010185558215611630579182015b8281111561162f578251825591602001919060010190611614565b5b50905061163d9190611712565b5090565b8280548282559060005260206000209081019282156116ba579160200282015b828111156116b95782518260006101000a81548173ffffffffffffffffffffffffffffffffffffffff021916908373ffffffffffffffffffffffffffffffffffffffff16021790555091602001919060010190611661565b5b5090506116c79190611712565b5090565b6040518060a00160405280606081526020016000815260200160008152602001600073ffffffffffffffffffffffffffffffffffffffff1681526020016000151581525090565b5b8082111561172b576000816000905550600101611713565b5090565b600061174261173d84611b35565b611b10565b90508281526020810184848401111561175a57600080fd5b611765848285611cd4565b509392505050565b60008135905061177c81611eb2565b92915050565b60008135905061179181611ec9565b92915050565b600082601f8301126117a857600080fd5b81356117b884826020860161172f565b91505092915050565b6000813590506117d081611ee0565b92915050565b6000602082840312156117e857600080fd5b60006117f68482850161176d565b91505092915050565b6000806040838503121561181257600080fd5b60006118208582860161176d565b925050602061183185828601611782565b9150509250929050565b60006020828403121561184d57600080fd5b600061185b84828501611782565b91505092915050565b60006020828403121561187657600080fd5b600082013567ffffffffffffffff81111561189057600080fd5b61189c84828501611797565b91505092915050565b6000806000606084860312156118ba57600080fd5b60006118c8868287016117c1565b93505060206118d9868287016117c1565b92505060406118ea8682870161176d565b9150509250925092565b60006119008383611979565b60208301905092915050565b600061191782611b76565b6119218185611b99565b935061192c83611b66565b8060005b8381101561195d57815161194488826118f4565b975061194f83611b8c565b925050600181019050611930565b5085935050505092915050565b61197381611c68565b82525050565b61198281611cb0565b82525050565b600061199382611b81565b61199d8185611baa565b93506119ad818560208601611ce3565b6119b681611e4f565b840191505092915050565b60006119ce601a83611bbb565b91506119d982611e60565b602082019050919050565b60006119f1601583611bbb565b91506119fc82611e89565b602082019050919050565b600060a0830160008301518482036000860152611a248282611988565b9150506020830151611a396020860182611a7d565b506040830151611a4c6040860182611a7d565b506060830151611a5f6060860182611979565b506080830151611a72608086018261196a565b508091505092915050565b611a8681611ca6565b82525050565b60006020820190508181036000830152611aa6818461190c565b905092915050565b60006020820190508181036000830152611ac7816119c1565b9050919050565b60006020820190508181036000830152611ae7816119e4565b9050919050565b60006020820190508181036000830152611b088184611a07565b905092915050565b6000611b1a611b2b565b9050611b268282611d48565b919050565b6000604051905090565b600067ffffffffffffffff821115611b5057611b4f611e20565b5b611b5982611e4f565b9050602081019050919050565b6000819050602082019050919050565b600081519050919050565b600081519050919050565b6000602082019050919050565b600082825260208201905092915050565b600082825260208201905092915050565b600082825260208201905092915050565b6000611bd782611ca6565b9150611be283611ca6565b9250827fffffffffffffffffffffffffffffffffffffffffffffffffffffffffffffffff03821115611c1757611c16611dc2565b5b828201905092915050565b6000611c2d82611ca6565b9150611c3883611ca6565b925082821015611c4b57611c4a611dc2565b5b828203905092915050565b6000611c6182611c86565b9050919050565b60008115159050919050565b6000611c7f82611c56565b9050919050565b600073ffffffffffffffffffffffffffffffffffffffff82169050919050565b6000819050919050565b6000611cbb82611cc2565b9050919050565b6000611ccd82611c86565b9050919050565b82818337600083830152505050565b60005b83811015611d01578082015181840152602081019050611ce6565b83811115611d10576000848401525b50505050565b60006002820490506001821680611d2e57607f821691505b60208210811415611d4257611d41611df1565b5b50919050565b611d5182611e4f565b810181811067ffffffffffffffff82111715611d7057611d6f611e20565b5b80604052505050565b6000611d8482611ca6565b91507fffffffffffffffffffffffffffffffffffffffffffffffffffffffffffffffff821415611db757611db6611dc2565b5b600182019050919050565b7f4e487b7100000000000000000000000000000000000000000000000000000000600052601160045260246000fd5b7f4e487b7100000000000000000000000000000000000000000000000000000000600052602260045260246000fd5b7f4e487b7100000000000000000000000000000000000000000000000000000000600052604160045260246000fd5b6000601f19601f8301169050919050565b7f4f6e6c7920746865206f776e65722063616e20646f2074686973000000000000600082015250565b7f506c6179657220646f6573206e6f742065786973740000000000000000000000600082015250565b611ebb81611c56565b8114611ec657600080fd5b50565b611ed281611c74565b8114611edd57600080fd5b50565b611ee981611ca6565b8114611ef457600080fd5b5056fea2646970667358221220c948d4d0e1f9b30c63fe32a91205d06d0638e02f124471a61ae29d446308ffa664736f6c63430008040033",
  "linkReferences": {},
  "deployedLinkReferences": {}
}