{
  "_format": "hh-sol-artifact-1",
  "contractName": "Game",
  "sourceName": "contracts/Game.sol",
  "abi": [
    {
      "inputs": [
        {
          "internalType": "uint256",
          "name": "_difficulty",
          "type": "uint256"
        },
        {
          "internalType": "contract MainContract",
          "name": "_contract",
          "type": "address"
        }
      ],
      "name": "payWinner",
      "outputs": [],
      "stateMutability": "payable",
      "type": "function"
    },
    {
      "inputs": [],
      "name": "payWinner",
      "outputs": [],
      "stateMutability": "payable",
      "type": "function"
    },
    {
      "inputs": [
        {
          "internalType": "contract MainContract",
          "name": "_contract",
          "type": "address"
        }
      ],
      "name": "wager",
      "outputs": [],
      "stateMutability": "payable",
      "type": "function"
    }
  ],
  "bytecode": "0x608060405234801561001057600080fd5b506101c5806100206000396000f3fe6080604052600436106100345760003560e01c806347b94f83146100395780634d619bee14610055578063be71248a14610071575b600080fd5b610053600480360381019061004e91906100d7565b61007b565b005b61006f600480360381019061006a91906100ae565b61007f565b005b610079610082565b005b5050565b50565b565b60008135905061009381610161565b92915050565b6000813590506100a881610178565b92915050565b6000602082840312156100c057600080fd5b60006100ce84828501610084565b91505092915050565b600080604083850312156100ea57600080fd5b60006100f885828601610099565b925050602061010985828601610084565b9150509250929050565b600061011e82610137565b9050919050565b600061013082610113565b9050919050565b600073ffffffffffffffffffffffffffffffffffffffff82169050919050565b6000819050919050565b61016a81610125565b811461017557600080fd5b50565b61018181610157565b811461018c57600080fd5b5056fea26469706673582212206d638a96228bd256eed1c1c7df0547e1afc9f716215dc31f27a9d69b002ef79264736f6c63430008040033",
  "linkReferences": {},
  "deployedLinkReferences": {}
}